{
  "_format": "hh-sol-artifact-1",
  "contractName": "Verifier",
  "sourceName": "contracts/src/Verifier.sol",
  "abi": [
    {
      "inputs": [],
      "stateMutability": "nonpayable",
      "type": "constructor"
    },
    {
      "anonymous": false,
      "inputs": [
        {
          "indexed": true,
          "internalType": "IVerifier.Hash",
          "name": "hash",
          "type": "bytes32"
        },
        {
          "indexed": true,
          "internalType": "address",
          "name": "owner",
          "type": "address"
        },
        {
          "indexed": false,
          "internalType": "string",
          "name": "name",
          "type": "string"
        },
        {
          "indexed": false,
          "internalType": "string",
          "name": "description",
          "type": "string"
        }
      ],
      "name": "ModelRegistration",
      "type": "event"
    },
    {
      "anonymous": false,
      "inputs": [
        {
          "indexed": true,
          "internalType": "address",
          "name": "previousOwner",
          "type": "address"
        },
        {
          "indexed": true,
          "internalType": "address",
          "name": "newOwner",
          "type": "address"
        }
      ],
      "name": "OwnershipTransferred",
      "type": "event"
    },
    {
      "inputs": [
        {
          "internalType": "bytes32",
          "name": "commitmentModel",
          "type": "bytes32"
        },
        {
          "internalType": "bytes32",
          "name": "commitmentData",
          "type": "bytes32"
        },
        {
          "internalType": "bytes32",
          "name": "commitmentResults",
          "type": "bytes32"
        }
      ],
      "name": "commit",
      "outputs": [
        {
          "internalType": "uint256",
          "name": "commitmentId",
          "type": "uint256"
        },
        {
          "internalType": "bytes32",
          "name": "challenge",
          "type": "bytes32"
        }
      ],
      "stateMutability": "nonpayable",
      "type": "function"
    },
    {
      "inputs": [
        {
          "internalType": "IVerifier.Hash",
          "name": "modelCommitment",
          "type": "bytes32"
        }
      ],
      "name": "getModelInfo",
      "outputs": [
        {
          "components": [
            {
              "internalType": "string",
              "name": "name",
              "type": "string"
            },
            {
              "internalType": "string",
              "name": "description",
              "type": "string"
            },
            {
              "internalType": "address",
              "name": "owner",
              "type": "address"
            }
          ],
          "internalType": "struct IVerifier.Model",
          "name": "modelInfo",
          "type": "tuple"
        }
      ],
      "stateMutability": "view",
      "type": "function"
    },
    {
      "inputs": [
        {
          "internalType": "address",
          "name": "ownerAddress",
          "type": "address"
        },
        {
          "internalType": "uint32",
          "name": "offset",
          "type": "uint32"
        },
        {
          "internalType": "uint32",
          "name": "limit",
          "type": "uint32"
        }
      ],
      "name": "getModels",
      "outputs": [
        {
          "components": [
            {
              "internalType": "IVerifier.Hash",
              "name": "commitment",
              "type": "bytes32"
            },
            {
              "internalType": "string",
              "name": "name",
              "type": "string"
            }
          ],
          "internalType": "struct IVerifier.ModelCommitment[]",
          "name": "modelCommitments",
          "type": "tuple[]"
        }
      ],
      "stateMutability": "view",
      "type": "function"
    },
    {
      "inputs": [],
      "name": "owner",
      "outputs": [
        {
          "internalType": "address",
          "name": "",
          "type": "address"
        }
      ],
      "stateMutability": "view",
      "type": "function"
    },
    {
      "inputs": [
        {
          "internalType": "IVerifier.Hash",
          "name": "modelCommitment",
          "type": "bytes32"
        },
        {
          "internalType": "string",
          "name": "modelName",
          "type": "string"
        },
        {
          "internalType": "string",
          "name": "modelDescription",
          "type": "string"
        }
      ],
      "name": "registerModel",
      "outputs": [
        {
          "components": [
            {
              "internalType": "string",
              "name": "name",
              "type": "string"
            },
            {
              "internalType": "string",
              "name": "description",
              "type": "string"
            },
            {
              "internalType": "address",
              "name": "owner",
              "type": "address"
            }
          ],
          "internalType": "struct IVerifier.Model",
          "name": "modelInfo",
          "type": "tuple"
        }
      ],
      "stateMutability": "nonpayable",
      "type": "function"
    },
    {
      "inputs": [],
      "name": "renounceOwnership",
      "outputs": [],
      "stateMutability": "nonpayable",
      "type": "function"
    },
    {
      "inputs": [
        {
          "internalType": "uint256",
          "name": "commitmentId",
          "type": "uint256"
        },
        {
          "components": [
            {
              "internalType": "IVerifier.Hash",
              "name": "leaf",
              "type": "bytes32"
            },
            {
              "internalType": "IVerifier.Hash[]",
              "name": "proof",
              "type": "bytes32[]"
            }
          ],
          "internalType": "struct IVerifier.MerkleProof[]",
          "name": "merkleProofs",
          "type": "tuple[]"
        }
      ],
      "name": "reveal",
      "outputs": [
        {
          "internalType": "IVerifier.Hash[]",
          "name": "verifiedNodes",
          "type": "bytes32[]"
        }
      ],
      "stateMutability": "view",
      "type": "function"
    },
    {
      "inputs": [
        {
          "internalType": "address",
          "name": "newOwner",
          "type": "address"
        }
      ],
      "name": "transferOwnership",
      "outputs": [],
      "stateMutability": "nonpayable",
      "type": "function"
    },
    {
      "inputs": [
        {
          "internalType": "uint256",
          "name": "commitmentId",
          "type": "uint256"
        },
        {
          "components": [
            {
              "internalType": "uint256[2]",
              "name": "a",
              "type": "uint256[2]"
            },
            {
              "internalType": "uint256[2][2]",
              "name": "b",
              "type": "uint256[2][2]"
            },
            {
              "internalType": "uint256[2]",
              "name": "c",
              "type": "uint256[2]"
            },
            {
              "internalType": "uint256[16]",
              "name": "input",
              "type": "uint256[16]"
            }
          ],
          "internalType": "struct IVerifier.Zkp[]",
          "name": "zkps",
          "type": "tuple[]"
        }
      ],
      "name": "verify",
      "outputs": [
        {
          "components": [
            {
              "components": [
                {
                  "internalType": "uint256[2]",
                  "name": "a",
                  "type": "uint256[2]"
                },
                {
                  "internalType": "uint256[2][2]",
                  "name": "b",
                  "type": "uint256[2][2]"
                },
                {
                  "internalType": "uint256[2]",
                  "name": "c",
                  "type": "uint256[2]"
                },
                {
                  "internalType": "uint256[16]",
                  "name": "input",
                  "type": "uint256[16]"
                }
              ],
              "internalType": "struct IVerifier.Zkp",
              "name": "zkp",
              "type": "tuple"
            },
            {
              "internalType": "bool",
              "name": "isValid",
              "type": "bool"
            }
          ],
          "internalType": "struct IVerifier.ZkpWithValidity[]",
          "name": "zkpVerifications",
          "type": "tuple[]"
        }
      ],
      "stateMutability": "nonpayable",
      "type": "function"
    }
  ],
  "bytecode": "0x60806040523480156200001157600080fd5b5062000032620000266200003860201b60201c565b6200004060201b60201c565b62000104565b600033905090565b60008060009054906101000a900473ffffffffffffffffffffffffffffffffffffffff169050816000806101000a81548173ffffffffffffffffffffffffffffffffffffffff021916908373ffffffffffffffffffffffffffffffffffffffff1602179055508173ffffffffffffffffffffffffffffffffffffffff168173ffffffffffffffffffffffffffffffffffffffff167f8be0079c531659141344cd1fd0a4f28419497f9722a3daafe3b4186f6b6457e060405160405180910390a35050565b61270d80620001146000396000f3fe608060405234801561001057600080fd5b50600436106100935760003560e01c806395ee7a281161006657806395ee7a2814610120578063b005b08b14610150578063c46bfb1f14610180578063e4e5b258146101b0578063f2fde38b146101e157610093565b80632e08318114610098578063715018a6146100c85780638da5cb5b146100d25780638e6906f0146100f0575b600080fd5b6100b260048036038101906100ad9190610fe7565b6101fd565b6040516100bf91906111f4565b60405180910390f35b6100d0610542565b005b6100da610556565b6040516100e79190611225565b60405180910390f35b61010a60048036038101906101059190611652565b61057f565b60405161011791906119cc565b60405180910390f35b61013a60048036038101906101359190611a49565b610587565b6040516101479190611b58565b60405180910390f35b61016a60048036038101906101659190611ba6565b610590565b6040516101779190611c39565b60405180910390f35b61019a60048036038101906101959190611cb1565b6107e3565b6040516101a79190611c39565b60405180910390f35b6101ca60048036038101906101c59190611d72565b610c03565b6040516101d8929190611de3565b60405180910390f35b6101fb60048036038101906101f69190611e0c565b610c0e565b005b6060600180805490506102109190611e68565b8363ffffffff161180610229575060008363ffffffff16105b610268576040517f08c379a000000000000000000000000000000000000000000000000000000000815260040161025f90611ef9565b60405180910390fd5b60008263ffffffff16106102b1576040517f08c379a00000000000000000000000000000000000000000000000000000000081526004016102a890611f65565b60405180910390fd5b60008263ffffffff16036102c457601491505b600073ffffffffffffffffffffffffffffffffffffffff168473ffffffffffffffffffffffffffffffffffffffff16036103fd576103f66001805480602002602001604051908101604052809291908181526020016000905b828210156103eb57838290600052602060002090600202016040518060400160405290816000820154815260200160018201805461035a90611fb4565b80601f016020809104026020016040519081016040528092919081815260200182805461038690611fb4565b80156103d35780601f106103a8576101008083540402835291602001916103d3565b820191906000526020600020905b8154815290600101906020018083116103b657829003601f168201915b5050505050815250508152602001906001019061031d565b505050508484610c91565b905061053b565b610538600260008673ffffffffffffffffffffffffffffffffffffffff1673ffffffffffffffffffffffffffffffffffffffff168152602001908152602001600020805480602002602001604051908101604052809291908181526020016000905b8282101561052d57838290600052602060002090600202016040518060400160405290816000820154815260200160018201805461049c90611fb4565b80601f01602080910402602001604051908101604052809291908181526020018280546104c890611fb4565b80156105155780601f106104ea57610100808354040283529160200191610515565b820191906000526020600020905b8154815290600101906020018083116104f857829003601f168201915b5050505050815250508152602001906001019061045f565b505050508484610c91565b90505b9392505050565b61054a610d9b565b6105546000610e19565b565b60008060009054906101000a900473ffffffffffffffffffffffffffffffffffffffff16905090565b606092915050565b60609392505050565b610598610ee5565b6000602060ff16036105df576040517f08c379a00000000000000000000000000000000000000000000000000000000081526004016105d690612031565b60405180910390fd5b600060036000848152602001908152602001600020600001805461060290611fb4565b905003610644576040517f08c379a000000000000000000000000000000000000000000000000000000000815260040161063b9061209d565b60405180910390fd5b6003600083815260200190815260200160002060405180606001604052908160008201805461067290611fb4565b80601f016020809104026020016040519081016040528092919081815260200182805461069e90611fb4565b80156106eb5780601f106106c0576101008083540402835291602001916106eb565b820191906000526020600020905b8154815290600101906020018083116106ce57829003601f168201915b5050505050815260200160018201805461070490611fb4565b80601f016020809104026020016040519081016040528092919081815260200182805461073090611fb4565b801561077d5780601f106107525761010080835404028352916020019161077d565b820191906000526020600020905b81548152906001019060200180831161076057829003601f168201915b505050505081526020016002820160009054906101000a900473ffffffffffffffffffffffffffffffffffffffff1673ffffffffffffffffffffffffffffffffffffffff1673ffffffffffffffffffffffffffffffffffffffff16815250509050919050565b6107eb610ee5565b6000602060ff1603610832576040517f08c379a000000000000000000000000000000000000000000000000000000000815260040161082990612031565b60405180910390fd5b600060036000888152602001908152602001600020600001805461085590611fb4565b905014610897576040517f08c379a000000000000000000000000000000000000000000000000000000000815260040161088e90612109565b60405180910390fd5b600085859050036108dd576040517f08c379a00000000000000000000000000000000000000000000000000000000081526004016108d490612175565b60405180910390fd5b60008383905003610923576040517f08c379a000000000000000000000000000000000000000000000000000000000815260040161091a906121e1565b60405180910390fd5b6000604051806040016040528088815260200187878080601f016020809104026020016040519081016040528093929190818152602001838380828437600081840152601f19601f82011690508083019250505050505050815250905060018190806001815401808255809150506001900390600052602060002090600202016000909190919091506000820151816000015560208201518160010190816109cb91906123ad565b505050600260003373ffffffffffffffffffffffffffffffffffffffff1673ffffffffffffffffffffffffffffffffffffffff168152602001908152602001600020819080600181540180825580915050600190039060005260206000209060020201600090919091909150600082015181600001556020820151816001019081610a5691906123ad565b5050506000604051806060016040528088888080601f016020809104026020016040519081016040528093929190818152602001838380828437600081840152601f19601f82011690508083019250505050505050815260200186868080601f016020809104026020016040519081016040528093929190818152602001838380828437600081840152601f19601f8201169050808301925050505050505081526020013373ffffffffffffffffffffffffffffffffffffffff16815250905080600360008a81526020019081526020016000206000820151816000019081610b3f91906123ad565b506020820151816001019081610b5591906123ad565b5060408201518160020160006101000a81548173ffffffffffffffffffffffffffffffffffffffff021916908373ffffffffffffffffffffffffffffffffffffffff1602179055509050503373ffffffffffffffffffffffffffffffffffffffff16887f2696159d4be01a3f65ab63966a1eeb8bc9d72476c090db477897d725a4400b1789898989604051610bed94939291906124bb565b60405180910390a3809250505095945050505050565b600080935093915050565b610c16610d9b565b600073ffffffffffffffffffffffffffffffffffffffff168173ffffffffffffffffffffffffffffffffffffffff1603610c85576040517f08c379a0000000000000000000000000000000000000000000000000000000008152600401610c7c90612568565b60405180910390fd5b610c8e81610e19565b50565b606083518284610ca19190612588565b63ffffffff161115610cc3578263ffffffff168451610cc09190611e68565b91505b60008263ffffffff1667ffffffffffffffff811115610ce557610ce461127b565b5b604051908082528060200260200182016040528015610d1e57816020015b610d0b610f1c565b815260200190600190039081610d035790505b50905060005b8363ffffffff16811015610d8f5785818663ffffffff16610d4591906125c0565b81518110610d5657610d556125f4565b5b6020026020010151828281518110610d7157610d706125f4565b5b60200260200101819052508080610d8790612623565b915050610d24565b50809150509392505050565b610da3610edd565b73ffffffffffffffffffffffffffffffffffffffff16610dc1610556565b73ffffffffffffffffffffffffffffffffffffffff1614610e17576040517f08c379a0000000000000000000000000000000000000000000000000000000008152600401610e0e906126b7565b60405180910390fd5b565b60008060009054906101000a900473ffffffffffffffffffffffffffffffffffffffff169050816000806101000a81548173ffffffffffffffffffffffffffffffffffffffff021916908373ffffffffffffffffffffffffffffffffffffffff1602179055508173ffffffffffffffffffffffffffffffffffffffff168173ffffffffffffffffffffffffffffffffffffffff167f8be0079c531659141344cd1fd0a4f28419497f9722a3daafe3b4186f6b6457e060405160405180910390a35050565b600033905090565b60405180606001604052806060815260200160608152602001600073ffffffffffffffffffffffffffffffffffffffff1681525090565b604051806040016040528060008019168152602001606081525090565b6000604051905090565b600080fd5b600080fd5b600073ffffffffffffffffffffffffffffffffffffffff82169050919050565b6000610f7882610f4d565b9050919050565b610f8881610f6d565b8114610f9357600080fd5b50565b600081359050610fa581610f7f565b92915050565b600063ffffffff82169050919050565b610fc481610fab565b8114610fcf57600080fd5b50565b600081359050610fe181610fbb565b92915050565b60008060006060848603121561100057610fff610f43565b5b600061100e86828701610f96565b935050602061101f86828701610fd2565b925050604061103086828701610fd2565b9150509250925092565b600081519050919050565b600082825260208201905092915050565b6000819050602082019050919050565b6000819050919050565b600061107b82611066565b9050919050565b61108b81611070565b82525050565b600081519050919050565b600082825260208201905092915050565b60005b838110156110cb5780820151818401526020810190506110b0565b60008484015250505050565b6000601f19601f8301169050919050565b60006110f382611091565b6110fd818561109c565b935061110d8185602086016110ad565b611116816110d7565b840191505092915050565b60006040830160008301516111396000860182611082565b506020830151848203602086015261115182826110e8565b9150508091505092915050565b600061116a8383611121565b905092915050565b6000602082019050919050565b600061118a8261103a565b6111948185611045565b9350836020820285016111a685611056565b8060005b858110156111e257848403895281516111c3858261115e565b94506111ce83611172565b925060208a019950506001810190506111aa565b50829750879550505050505092915050565b6000602082019050818103600083015261120e818461117f565b905092915050565b61121f81610f6d565b82525050565b600060208201905061123a6000830184611216565b92915050565b6000819050919050565b61125381611240565b811461125e57600080fd5b50565b6000813590506112708161124a565b92915050565b600080fd5b7f4e487b7100000000000000000000000000000000000000000000000000000000600052604160045260246000fd5b6112b3826110d7565b810181811067ffffffffffffffff821117156112d2576112d161127b565b5b80604052505050565b60006112e5610f39565b90506112f182826112aa565b919050565b600067ffffffffffffffff8211156113115761131061127b565b5b602082029050602081019050919050565b600080fd5b600080fd5b600067ffffffffffffffff8211156113475761134661127b565b5b602082029050919050565b60006113656113608461132c565b6112db565b9050806020840283018581111561137f5761137e611322565b5b835b818110156113a857806113948882611261565b845260208401935050602081019050611381565b5050509392505050565b600082601f8301126113c7576113c6611276565b5b60026113d4848285611352565b91505092915050565b600067ffffffffffffffff8211156113f8576113f761127b565b5b602082029050919050565b6000611416611411846113dd565b6112db565b905080604084028301858111156114305761142f611322565b5b835b81811015611459578061144588826113b2565b845260208401935050604081019050611432565b5050509392505050565b600082601f83011261147857611477611276565b5b6002611485848285611403565b91505092915050565b600067ffffffffffffffff8211156114a9576114a861127b565b5b602082029050919050565b60006114c76114c28461148e565b6112db565b905080602084028301858111156114e1576114e0611322565b5b835b8181101561150a57806114f68882611261565b8452602084019350506020810190506114e3565b5050509392505050565b600082601f83011261152957611528611276565b5b60106115368482856114b4565b91505092915050565b6000610300828403121561155657611555611327565b5b61156060806112db565b90506000611570848285016113b2565b600083015250604061158484828501611463565b60208301525060c0611598848285016113b2565b6040830152506101006115ad84828501611514565b60608301525092915050565b60006115cc6115c7846112f6565b6112db565b90508083825260208201905061030084028301858111156115f0576115ef611322565b5b835b8181101561161a5780611605888261153f565b845260208401935050610300810190506115f2565b5050509392505050565b600082601f83011261163957611638611276565b5b81356116498482602086016115b9565b91505092915050565b6000806040838503121561166957611668610f43565b5b600061167785828601611261565b925050602083013567ffffffffffffffff81111561169857611697610f48565b5b6116a485828601611624565b9150509250929050565b600081519050919050565b600082825260208201905092915050565b6000819050602082019050919050565b600060029050919050565b600081905092915050565b6000819050919050565b61170381611240565b82525050565b600061171583836116fa565b60208301905092915050565b6000602082019050919050565b611737816116da565b61174181846116e5565b925061174c826116f0565b8060005b8381101561177d5781516117648782611709565b965061176f83611721565b925050600181019050611750565b505050505050565b600060029050919050565b600081905092915050565b6000819050919050565b60006117b1838361172e565b60408301905092915050565b6000602082019050919050565b6117d381611785565b6117dd8184611790565b92506117e88261179b565b8060005b8381101561181957815161180087826117a5565b965061180b836117bd565b9250506001810190506117ec565b505050505050565b600060109050919050565b600081905092915050565b6000819050919050565b6000602082019050919050565b61185781611821565b611861818461182c565b925061186c82611837565b8060005b8381101561189d5781516118848782611709565b965061188f83611841565b925050600181019050611870565b505050505050565b610300820160008201516118bc600085018261172e565b5060208201516118cf60408501826117ca565b5060408201516118e260c085018261172e565b5060608201516118f661010085018261184e565b50505050565b60008115159050919050565b611911816118fc565b82525050565b6103208201600082015161192e60008501826118a5565b506020820151611942610300850182611908565b50505050565b60006119548383611917565b6103208301905092915050565b6000602082019050919050565b6000611979826116ae565b61198381856116b9565b935061198e836116ca565b8060005b838110156119bf5781516119a68882611948565b97506119b183611961565b925050600181019050611992565b5085935050505092915050565b600060208201905081810360008301526119e6818461196e565b905092915050565b600080fd5b60008083601f840112611a0957611a08611276565b5b8235905067ffffffffffffffff811115611a2657611a256119ee565b5b602083019150836020820283011115611a4257611a41611322565b5b9250929050565b600080600060408486031215611a6257611a61610f43565b5b6000611a7086828701611261565b935050602084013567ffffffffffffffff811115611a9157611a90610f48565b5b611a9d868287016119f3565b92509250509250925092565b600081519050919050565b600082825260208201905092915050565b6000819050602082019050919050565b6000611ae18383611082565b60208301905092915050565b6000602082019050919050565b6000611b0582611aa9565b611b0f8185611ab4565b9350611b1a83611ac5565b8060005b83811015611b4b578151611b328882611ad5565b9750611b3d83611aed565b925050600181019050611b1e565b5085935050505092915050565b60006020820190508181036000830152611b728184611afa565b905092915050565b611b8381611066565b8114611b8e57600080fd5b50565b600081359050611ba081611b7a565b92915050565b600060208284031215611bbc57611bbb610f43565b5b6000611bca84828501611b91565b91505092915050565b611bdc81610f6d565b82525050565b60006060830160008301518482036000860152611bff82826110e8565b91505060208301518482036020860152611c1982826110e8565b9150506040830151611c2e6040860182611bd3565b508091505092915050565b60006020820190508181036000830152611c538184611be2565b905092915050565b60008083601f840112611c7157611c70611276565b5b8235905067ffffffffffffffff811115611c8e57611c8d6119ee565b5b602083019150836001820283011115611caa57611ca9611322565b5b9250929050565b600080600080600060608688031215611ccd57611ccc610f43565b5b6000611cdb88828901611b91565b955050602086013567ffffffffffffffff811115611cfc57611cfb610f48565b5b611d0888828901611c5b565b9450945050604086013567ffffffffffffffff811115611d2b57611d2a610f48565b5b611d3788828901611c5b565b92509250509295509295909350565b611d4f81611066565b8114611d5a57600080fd5b50565b600081359050611d6c81611d46565b92915050565b600080600060608486031215611d8b57611d8a610f43565b5b6000611d9986828701611d5d565b9350506020611daa86828701611d5d565b9250506040611dbb86828701611d5d565b9150509250925092565b611dce81611240565b82525050565b611ddd81611066565b82525050565b6000604082019050611df86000830185611dc5565b611e056020830184611dd4565b9392505050565b600060208284031215611e2257611e21610f43565b5b6000611e3084828501610f96565b91505092915050565b7f4e487b7100000000000000000000000000000000000000000000000000000000600052601160045260246000fd5b6000611e7382611240565b9150611e7e83611240565b9250828203905081811115611e9657611e95611e39565b5b92915050565b600082825260208201905092915050565b7f696e76616c6964206f6666736574000000000000000000000000000000000000600082015250565b6000611ee3600e83611e9c565b9150611eee82611ead565b602082019050919050565b60006020820190508181036000830152611f1281611ed6565b9050919050565b7f696e76616c6964206c696d697400000000000000000000000000000000000000600082015250565b6000611f4f600d83611e9c565b9150611f5a82611f19565b602082019050919050565b60006020820190508181036000830152611f7e81611f42565b9050919050565b7f4e487b7100000000000000000000000000000000000000000000000000000000600052602260045260246000fd5b60006002820490506001821680611fcc57607f821691505b602082108103611fdf57611fde611f85565b5b50919050565b7f696e76616c6964206d6f64656c436f6d6d69746d656e74000000000000000000600082015250565b600061201b601783611e9c565b915061202682611fe5565b602082019050919050565b6000602082019050818103600083015261204a8161200e565b9050919050565b7f6d6f64656c206e6f7420666f756e640000000000000000000000000000000000600082015250565b6000612087600f83611e9c565b915061209282612051565b602082019050919050565b600060208201905081810360008301526120b68161207a565b9050919050565b7f6d6f64656c20616c726561647920657869737473000000000000000000000000600082015250565b60006120f3601483611e9c565b91506120fe826120bd565b602082019050919050565b60006020820190508181036000830152612122816120e6565b9050919050565b7f696e76616c6964206d6f64656c4e616d65000000000000000000000000000000600082015250565b600061215f601183611e9c565b915061216a82612129565b602082019050919050565b6000602082019050818103600083015261218e81612152565b9050919050565b7f696e76616c6964206d6f64656c4465736372697074696f6e0000000000000000600082015250565b60006121cb601883611e9c565b91506121d682612195565b602082019050919050565b600060208201905081810360008301526121fa816121be565b9050919050565b60008190508160005260206000209050919050565b60006020601f8301049050919050565b600082821b905092915050565b6000600883026122637fffffffffffffffffffffffffffffffffffffffffffffffffffffffffffffffff82612226565b61226d8683612226565b95508019841693508086168417925050509392505050565b6000819050919050565b60006122aa6122a56122a084611240565b612285565b611240565b9050919050565b6000819050919050565b6122c48361228f565b6122d86122d0826122b1565b848454612233565b825550505050565b600090565b6122ed6122e0565b6122f88184846122bb565b505050565b5b8181101561231c576123116000826122e5565b6001810190506122fe565b5050565b601f8211156123615761233281612201565b61233b84612216565b8101602085101561234a578190505b61235e61235685612216565b8301826122fd565b50505b505050565b600082821c905092915050565b600061238460001984600802612366565b1980831691505092915050565b600061239d8383612373565b9150826002028217905092915050565b6123b682611091565b67ffffffffffffffff8111156123cf576123ce61127b565b5b6123d98254611fb4565b6123e4828285612320565b600060209050601f8311600181146124175760008415612405578287015190505b61240f8582612391565b865550612477565b601f19841661242586612201565b60005b8281101561244d57848901518255600182019150602085019450602081019050612428565b8683101561246a5784890151612466601f891682612373565b8355505b6001600288020188555050505b505050505050565b82818337600083830152505050565b600061249a8385611e9c565b93506124a783858461247f565b6124b0836110d7565b840190509392505050565b600060408201905081810360008301526124d681868861248e565b905081810360208301526124eb81848661248e565b905095945050505050565b7f4f776e61626c653a206e6577206f776e657220697320746865207a65726f206160008201527f6464726573730000000000000000000000000000000000000000000000000000602082015250565b6000612552602683611e9c565b915061255d826124f6565b604082019050919050565b6000602082019050818103600083015261258181612545565b9050919050565b600061259382610fab565b915061259e83610fab565b9250828201905063ffffffff8111156125ba576125b9611e39565b5b92915050565b60006125cb82611240565b91506125d683611240565b92508282019050808211156125ee576125ed611e39565b5b92915050565b7f4e487b7100000000000000000000000000000000000000000000000000000000600052603260045260246000fd5b600061262e82611240565b91507fffffffffffffffffffffffffffffffffffffffffffffffffffffffffffffffff82036126605761265f611e39565b5b600182019050919050565b7f4f776e61626c653a2063616c6c6572206973206e6f7420746865206f776e6572600082015250565b60006126a1602083611e9c565b91506126ac8261266b565b602082019050919050565b600060208201905081810360008301526126d081612694565b905091905056fea2646970667358221220032a85156a9f5c1b87e41d3485ff7ef100247515abbdde9331fe6b86db35307564736f6c63430008110033",
  "linkReferences": {},
  "deployedLinkReferences": {}
}