{
  "_format": "hh-sol-artifact-1",
  "contractName": "Verifier",
  "sourceName": "contracts/src/Verifier.sol",
  "abi": [
    {
      "inputs": [],
      "stateMutability": "nonpayable",
      "type": "constructor"
    },
    {
      "anonymous": false,
      "inputs": [
        {
          "indexed": true,
          "internalType": "IVerifier.Hash",
          "name": "contentId",
          "type": "bytes32"
        },
        {
          "indexed": true,
          "internalType": "address",
          "name": "ownerAddress",
          "type": "address"
        }
      ],
      "name": "ModelDisabled",
      "type": "event"
    },
    {
      "anonymous": false,
      "inputs": [
        {
          "indexed": true,
          "internalType": "IVerifier.Hash",
          "name": "contentId",
          "type": "bytes32"
        },
        {
          "indexed": true,
          "internalType": "address",
          "name": "ownerAddress",
          "type": "address"
        }
      ],
      "name": "ModelRegistered",
      "type": "event"
    },
    {
      "anonymous": false,
      "inputs": [
        {
          "indexed": true,
          "internalType": "IVerifier.Hash",
          "name": "contentId",
          "type": "bytes32"
        },
        {
          "indexed": true,
          "internalType": "address",
          "name": "ownerAddress",
          "type": "address"
        },
        {
          "indexed": false,
          "internalType": "string",
          "name": "name",
          "type": "string"
        },
        {
          "indexed": false,
          "internalType": "string",
          "name": "description",
          "type": "string"
        }
      ],
      "name": "ModelUpdated",
      "type": "event"
    },
    {
      "anonymous": false,
      "inputs": [
        {
          "indexed": true,
          "internalType": "address",
          "name": "previousOwner",
          "type": "address"
        },
        {
          "indexed": true,
          "internalType": "address",
          "name": "newOwner",
          "type": "address"
        }
      ],
      "name": "OwnershipTransferred",
      "type": "event"
    },
    {
      "inputs": [
        {
          "internalType": "bytes32",
          "name": "commitmentModel",
          "type": "bytes32"
        },
        {
          "internalType": "bytes32",
          "name": "commitmentData",
          "type": "bytes32"
        },
        {
          "internalType": "bytes32",
          "name": "commitmentResults",
          "type": "bytes32"
        }
      ],
      "name": "commit",
      "outputs": [
        {
          "internalType": "uint256",
          "name": "commitmentId",
          "type": "uint256"
        },
        {
          "internalType": "bytes32",
          "name": "challenge",
          "type": "bytes32"
        }
      ],
      "stateMutability": "nonpayable",
      "type": "function"
    },
    {
      "inputs": [
        {
          "internalType": "IVerifier.Hash",
          "name": "modelContentId",
          "type": "bytes32"
        }
      ],
      "name": "disableModel",
      "outputs": [
        {
          "components": [
            {
              "internalType": "IVerifier.Hash",
              "name": "contentId",
              "type": "bytes32"
            },
            {
              "internalType": "string",
              "name": "name",
              "type": "string"
            },
            {
              "internalType": "string",
              "name": "description",
              "type": "string"
            },
            {
              "internalType": "address",
              "name": "ownerAddress",
              "type": "address"
            },
            {
              "internalType": "bool",
              "name": "isDisabled",
              "type": "bool"
            }
          ],
          "internalType": "struct IVerifier.Model",
          "name": "model",
          "type": "tuple"
        }
      ],
      "stateMutability": "nonpayable",
      "type": "function"
    },
    {
      "inputs": [
        {
          "internalType": "IVerifier.Hash",
          "name": "modelContentId",
          "type": "bytes32"
        }
      ],
      "name": "getModel",
      "outputs": [
        {
          "components": [
            {
              "internalType": "IVerifier.Hash",
              "name": "contentId",
              "type": "bytes32"
            },
            {
              "internalType": "string",
              "name": "name",
              "type": "string"
            },
            {
              "internalType": "string",
              "name": "description",
              "type": "string"
            },
            {
              "internalType": "address",
              "name": "ownerAddress",
              "type": "address"
            },
            {
              "internalType": "bool",
              "name": "isDisabled",
              "type": "bool"
            }
          ],
          "internalType": "struct IVerifier.Model",
          "name": "model",
          "type": "tuple"
        }
      ],
      "stateMutability": "view",
      "type": "function"
    },
    {
      "inputs": [
        {
          "internalType": "uint32",
          "name": "offset",
          "type": "uint32"
        },
        {
          "internalType": "uint32",
          "name": "limit",
          "type": "uint32"
        }
      ],
      "name": "getModels",
      "outputs": [
        {
          "components": [
            {
              "internalType": "IVerifier.Hash",
              "name": "contentId",
              "type": "bytes32"
            },
            {
              "internalType": "string",
              "name": "name",
              "type": "string"
            }
          ],
          "internalType": "struct IVerifier.ModelArrayElement[]",
          "name": "paginatedModels",
          "type": "tuple[]"
        }
      ],
      "stateMutability": "view",
      "type": "function"
    },
    {
      "inputs": [
        {
          "internalType": "address",
          "name": "ownerAddress",
          "type": "address"
        },
        {
          "internalType": "uint32",
          "name": "offset",
          "type": "uint32"
        },
        {
          "internalType": "uint32",
          "name": "limit",
          "type": "uint32"
        }
      ],
      "name": "getModelsByOwnerAddress",
      "outputs": [
        {
          "components": [
            {
              "internalType": "IVerifier.Hash",
              "name": "contentId",
              "type": "bytes32"
            },
            {
              "internalType": "string",
              "name": "name",
              "type": "string"
            }
          ],
          "internalType": "struct IVerifier.ModelArrayElement[]",
          "name": "paginatedModels",
          "type": "tuple[]"
        }
      ],
      "stateMutability": "view",
      "type": "function"
    },
    {
      "inputs": [],
      "name": "owner",
      "outputs": [
        {
          "internalType": "address",
          "name": "",
          "type": "address"
        }
      ],
      "stateMutability": "view",
      "type": "function"
    },
    {
      "inputs": [
        {
          "internalType": "IVerifier.Hash",
          "name": "modelContentId",
          "type": "bytes32"
        },
        {
          "internalType": "string",
          "name": "modelName",
          "type": "string"
        },
        {
          "internalType": "string",
          "name": "modelDescription",
          "type": "string"
        }
      ],
      "name": "registerModel",
      "outputs": [
        {
          "components": [
            {
              "internalType": "IVerifier.Hash",
              "name": "contentId",
              "type": "bytes32"
            },
            {
              "internalType": "string",
              "name": "name",
              "type": "string"
            },
            {
              "internalType": "string",
              "name": "description",
              "type": "string"
            },
            {
              "internalType": "address",
              "name": "ownerAddress",
              "type": "address"
            },
            {
              "internalType": "bool",
              "name": "isDisabled",
              "type": "bool"
            }
          ],
          "internalType": "struct IVerifier.Model",
          "name": "model",
          "type": "tuple"
        }
      ],
      "stateMutability": "nonpayable",
      "type": "function"
    },
    {
      "inputs": [],
      "name": "renounceOwnership",
      "outputs": [],
      "stateMutability": "nonpayable",
      "type": "function"
    },
    {
      "inputs": [
        {
          "internalType": "uint256",
          "name": "commitmentId",
          "type": "uint256"
        },
        {
          "components": [
            {
              "internalType": "IVerifier.Hash",
              "name": "leaf",
              "type": "bytes32"
            },
            {
              "internalType": "IVerifier.Hash[]",
              "name": "proof",
              "type": "bytes32[]"
            }
          ],
          "internalType": "struct IVerifier.MerkleProof[]",
          "name": "merkleProofs",
          "type": "tuple[]"
        }
      ],
      "name": "reveal",
      "outputs": [
        {
          "internalType": "IVerifier.Hash[]",
          "name": "verifiedNodes",
          "type": "bytes32[]"
        }
      ],
      "stateMutability": "view",
      "type": "function"
    },
    {
      "inputs": [
        {
          "internalType": "address",
          "name": "newOwner",
          "type": "address"
        }
      ],
      "name": "transferOwnership",
      "outputs": [],
      "stateMutability": "nonpayable",
      "type": "function"
    },
    {
      "inputs": [
        {
          "internalType": "IVerifier.Hash",
          "name": "modelContentId",
          "type": "bytes32"
        },
        {
          "internalType": "string",
          "name": "modelName",
          "type": "string"
        },
        {
          "internalType": "string",
          "name": "modelDescription",
          "type": "string"
        }
      ],
      "name": "updateModel",
      "outputs": [
        {
          "components": [
            {
              "internalType": "IVerifier.Hash",
              "name": "contentId",
              "type": "bytes32"
            },
            {
              "internalType": "string",
              "name": "name",
              "type": "string"
            },
            {
              "internalType": "string",
              "name": "description",
              "type": "string"
            },
            {
              "internalType": "address",
              "name": "ownerAddress",
              "type": "address"
            },
            {
              "internalType": "bool",
              "name": "isDisabled",
              "type": "bool"
            }
          ],
          "internalType": "struct IVerifier.Model",
          "name": "model",
          "type": "tuple"
        }
      ],
      "stateMutability": "nonpayable",
      "type": "function"
    },
    {
      "inputs": [
        {
          "internalType": "uint256",
          "name": "commitmentId",
          "type": "uint256"
        },
        {
          "components": [
            {
              "internalType": "uint256[2]",
              "name": "a",
              "type": "uint256[2]"
            },
            {
              "internalType": "uint256[2][2]",
              "name": "b",
              "type": "uint256[2][2]"
            },
            {
              "internalType": "uint256[2]",
              "name": "c",
              "type": "uint256[2]"
            },
            {
              "internalType": "uint256[16]",
              "name": "input",
              "type": "uint256[16]"
            }
          ],
          "internalType": "struct IVerifier.Zkp[]",
          "name": "zkps",
          "type": "tuple[]"
        }
      ],
      "name": "verify",
      "outputs": [
        {
          "components": [
            {
              "components": [
                {
                  "internalType": "uint256[2]",
                  "name": "a",
                  "type": "uint256[2]"
                },
                {
                  "internalType": "uint256[2][2]",
                  "name": "b",
                  "type": "uint256[2][2]"
                },
                {
                  "internalType": "uint256[2]",
                  "name": "c",
                  "type": "uint256[2]"
                },
                {
                  "internalType": "uint256[16]",
                  "name": "input",
                  "type": "uint256[16]"
                }
              ],
              "internalType": "struct IVerifier.Zkp",
              "name": "zkp",
              "type": "tuple"
            },
            {
              "internalType": "bool",
              "name": "isValid",
              "type": "bool"
            }
          ],
          "internalType": "struct IVerifier.ZkpWithValidity[]",
          "name": "zkpVerifications",
          "type": "tuple[]"
        }
      ],
      "stateMutability": "nonpayable",
      "type": "function"
    }
  ],
  "bytecode": "0x60806040523480156200001157600080fd5b5062000032620000266200003860201b60201c565b6200004060201b60201c565b62000104565b600033905090565b60008060009054906101000a900473ffffffffffffffffffffffffffffffffffffffff169050816000806101000a81548173ffffffffffffffffffffffffffffffffffffffff021916908373ffffffffffffffffffffffffffffffffffffffff1602179055508173ffffffffffffffffffffffffffffffffffffffff168173ffffffffffffffffffffffffffffffffffffffff167f8be0079c531659141344cd1fd0a4f28419497f9722a3daafe3b4186f6b6457e060405160405180910390a35050565b612ef680620001146000396000f3fe608060405234801561001057600080fd5b50600436106100b45760003560e01c806395ee7a281161007157806395ee7a28146101a15780639d3a2407146101d1578063c46bfb1f14610201578063d7c7e94814610231578063e4e5b25814610261578063f2fde38b14610292576100b4565b8063109656fb146100b957806321e7c498146100e957806370bca45014610119578063715018a6146101495780638da5cb5b146101535780638e6906f014610171575b600080fd5b6100d360048036038101906100ce9190611730565b6102ae565b6040516100e0919061193d565b60405180910390f35b61010360048036038101906100fe919061198b565b6104d1565b6040516101109190611a5f565b60405180910390f35b610133600480360381019061012e919061198b565b610704565b6040516101409190611a5f565b60405180910390f35b610151610966565b005b61015b61097a565b6040516101689190611a90565b60405180910390f35b61018b60048036038101906101869190611ebd565b6109a3565b604051610198919061221c565b60405180910390f35b6101bb60048036038101906101b69190612299565b6109ab565b6040516101c891906123a8565b60405180910390f35b6101eb60048036038101906101e691906123ca565b6109b4565b6040516101f8919061193d565b60405180910390f35b61021b60048036038101906102169190612460565b610ad7565b6040516102289190611a5f565b60405180910390f35b61024b60048036038101906102469190612460565b610e38565b6040516102589190611a5f565b60405180910390f35b61027b60048036038101906102769190612521565b61114f565b604051610289929190612592565b60405180910390f35b6102ac60048036038101906102a791906125bb565b61115a565b005b60608160008163ffffffff161180156102ce5750601e8163ffffffff1611155b61030d576040517f08c379a000000000000000000000000000000000000000000000000000000000815260040161030490612645565b60405180910390fd5b6000600260008773ffffffffffffffffffffffffffffffffffffffff1673ffffffffffffffffffffffffffffffffffffffff1681526020019081526020016000208054905003610392576040517f08c379a0000000000000000000000000000000000000000000000000000000008152600401610389906126b1565b60405180910390fd5b60008463ffffffff16101580156103f05750600260008673ffffffffffffffffffffffffffffffffffffffff1673ffffffffffffffffffffffffffffffffffffffff168152602001908152602001600020805490508463ffffffff16105b61042f576040517f08c379a000000000000000000000000000000000000000000000000000000000815260040161042690612743565b60405180910390fd5b6104c7600260008773ffffffffffffffffffffffffffffffffffffffff1673ffffffffffffffffffffffffffffffffffffffff1681526020019081526020016000208054806020026020016040519081016040528092919081815260200182805480156104bb57602002820191906000526020600020905b8154815260200190600101908083116104a7575b505050505085856111dd565b9150509392505050565b6104d961161b565b8160006003600083815260200190815260200160002060010180546104fd90612792565b90500361053f576040517f08c379a00000000000000000000000000000000000000000000000000000000081526004016105369061280f565b60405180910390fd5b600360008481526020019081526020016000206040518060a00160405290816000820154815260200160018201805461057790612792565b80601f01602080910402602001604051908101604052809291908181526020018280546105a390612792565b80156105f05780601f106105c5576101008083540402835291602001916105f0565b820191906000526020600020905b8154815290600101906020018083116105d357829003601f168201915b5050505050815260200160028201805461060990612792565b80601f016020809104026020016040519081016040528092919081815260200182805461063590612792565b80156106825780601f1061065757610100808354040283529160200191610682565b820191906000526020600020905b81548152906001019060200180831161066557829003601f168201915b505050505081526020016003820160009054906101000a900473ffffffffffffffffffffffffffffffffffffffff1673ffffffffffffffffffffffffffffffffffffffff1673ffffffffffffffffffffffffffffffffffffffff1681526020016003820160149054906101000a900460ff161515151581525050915050919050565b61070c61161b565b81600060036000838152602001908152602001600020600101805461073090612792565b905003610772576040517f08c379a00000000000000000000000000000000000000000000000000000000081526004016107699061280f565b60405180910390fd5b60016003600085815260200190815260200160002060030160146101000a81548160ff021916908315150217905550600360008481526020019081526020016000206040518060a0016040529081600082015481526020016001820180546107d990612792565b80601f016020809104026020016040519081016040528092919081815260200182805461080590612792565b80156108525780601f1061082757610100808354040283529160200191610852565b820191906000526020600020905b81548152906001019060200180831161083557829003601f168201915b5050505050815260200160028201805461086b90612792565b80601f016020809104026020016040519081016040528092919081815260200182805461089790612792565b80156108e45780601f106108b9576101008083540402835291602001916108e4565b820191906000526020600020905b8154815290600101906020018083116108c757829003601f168201915b505050505081526020016003820160009054906101000a900473ffffffffffffffffffffffffffffffffffffffff1673ffffffffffffffffffffffffffffffffffffffff1673ffffffffffffffffffffffffffffffffffffffff1681526020016003820160149054906101000a900460ff161515151581525050915050919050565b61096e6114d1565b610978600061154f565b565b60008060009054906101000a900473ffffffffffffffffffffffffffffffffffffffff16905090565b606092915050565b60609392505050565b60608160008163ffffffff161180156109d45750601e8163ffffffff1611155b610a13576040517f08c379a0000000000000000000000000000000000000000000000000000000008152600401610a0a90612645565b60405180910390fd5b60008463ffffffff1610158015610a3457506001805490508463ffffffff16105b610a73576040517f08c379a0000000000000000000000000000000000000000000000000000000008152600401610a6a90612743565b60405180910390fd5b610ace6001805480602002602001604051908101604052809291908181526020018280548015610ac257602002820191906000526020600020905b815481526020019060010190808311610aae575b505050505085856111dd565b91505092915050565b610adf61161b565b8484848460008484905003610b29576040517f08c379a0000000000000000000000000000000000000000000000000000000008152600401610b209061287b565b60405180910390fd5b60008282905003610b6f576040517f08c379a0000000000000000000000000000000000000000000000000000000008152600401610b66906128e7565b60405180910390fd5b6000600360008c81526020019081526020016000206001018054610b9290612792565b905014610bd4576040517f08c379a0000000000000000000000000000000000000000000000000000000008152600401610bcb90612953565b60405180910390fd5b60018a9080600181540180825580915050600190039060005260206000200160009091909190915055600260003373ffffffffffffffffffffffffffffffffffffffff1673ffffffffffffffffffffffffffffffffffffffff1681526020019081526020016000208a908060018154018082558091505060019003906000526020600020016000909190919091505560006040518060a001604052808c81526020018b8b8080601f016020809104026020016040519081016040528093929190818152602001838380828437600081840152601f19601f82011690508083019250505050505050815260200189898080601f016020809104026020016040519081016040528093929190818152602001838380828437600081840152601f19601f8201169050808301925050505050505081526020013373ffffffffffffffffffffffffffffffffffffffff16815260200160001515815250905080600360008d8152602001908152602001600020600082015181600001556020820151816001019081610d629190612b1f565b506040820151816002019081610d789190612b1f565b5060608201518160030160006101000a81548173ffffffffffffffffffffffffffffffffffffffff021916908373ffffffffffffffffffffffffffffffffffffffff16021790555060808201518160030160146101000a81548160ff0219169083151502179055509050503373ffffffffffffffffffffffffffffffffffffffff168b7fc0bb3838ad72991f913b1a5c821da885948755a4ee450ec034e7a256e09aca5a60405160405180910390a3809550505050505095945050505050565b610e4061161b565b856000600360008381526020019081526020016000206001018054610e6490612792565b905003610ea6576040517f08c379a0000000000000000000000000000000000000000000000000000000008152600401610e9d9061280f565b60405180910390fd5b8585858560008484905003610ef0576040517f08c379a0000000000000000000000000000000000000000000000000000000008152600401610ee79061287b565b60405180910390fd5b60008282905003610f36576040517f08c379a0000000000000000000000000000000000000000000000000000000008152600401610f2d906128e7565b60405180910390fd5b8989600360008e81526020019081526020016000206001019182610f5b929190612bfc565b508787600360008e81526020019081526020016000206002019182610f81929190612bfc565b50600360008c81526020019081526020016000206040518060a001604052908160008201548152602001600182018054610fba90612792565b80601f0160208091040260200160405190810160405280929190818152602001828054610fe690612792565b80156110335780601f1061100857610100808354040283529160200191611033565b820191906000526020600020905b81548152906001019060200180831161101657829003601f168201915b5050505050815260200160028201805461104c90612792565b80601f016020809104026020016040519081016040528092919081815260200182805461107890612792565b80156110c55780601f1061109a576101008083540402835291602001916110c5565b820191906000526020600020905b8154815290600101906020018083116110a857829003601f168201915b505050505081526020016003820160009054906101000a900473ffffffffffffffffffffffffffffffffffffffff1673ffffffffffffffffffffffffffffffffffffffff1673ffffffffffffffffffffffffffffffffffffffff1681526020016003820160149054906101000a900460ff1615151515815250509550505050505095945050505050565b600080935093915050565b6111626114d1565b600073ffffffffffffffffffffffffffffffffffffffff168173ffffffffffffffffffffffffffffffffffffffff16036111d1576040517f08c379a00000000000000000000000000000000000000000000000000000000081526004016111c890612d3e565b60405180910390fd5b6111da8161154f565b50565b6060835182846111ed9190612d8d565b63ffffffff16111561120f578263ffffffff16845161120c9190612dc5565b91505b60008263ffffffff1667ffffffffffffffff81111561123157611230611ae6565b5b60405190808252806020026020018201604052801561126a57816020015b611257611665565b81526020019060019003908161124f5790505b50905060005b8363ffffffff168163ffffffff1610156114c5576000600360008884896112979190612d8d565b63ffffffff16815181106112ae576112ad612df9565b5b602002602001015181526020019081526020016000206040518060a0016040529081600082015481526020016001820180546112e990612792565b80601f016020809104026020016040519081016040528092919081815260200182805461131590612792565b80156113625780601f1061133757610100808354040283529160200191611362565b820191906000526020600020905b81548152906001019060200180831161134557829003601f168201915b5050505050815260200160028201805461137b90612792565b80601f01602080910402602001604051908101604052809291908181526020018280546113a790612792565b80156113f45780601f106113c9576101008083540402835291602001916113f4565b820191906000526020600020905b8154815290600101906020018083116113d757829003601f168201915b505050505081526020016003820160009054906101000a900473ffffffffffffffffffffffffffffffffffffffff1673ffffffffffffffffffffffffffffffffffffffff1673ffffffffffffffffffffffffffffffffffffffff1681526020016003820160149054906101000a900460ff16151515158152505090506040518060400160405280826000015181526020018260200151815250838363ffffffff16815181106114a6576114a5612df9565b5b60200260200101819052505080806114bd90612e28565b915050611270565b50809150509392505050565b6114d9611613565b73ffffffffffffffffffffffffffffffffffffffff166114f761097a565b73ffffffffffffffffffffffffffffffffffffffff161461154d576040517f08c379a000000000000000000000000000000000000000000000000000000000815260040161154490612ea0565b60405180910390fd5b565b60008060009054906101000a900473ffffffffffffffffffffffffffffffffffffffff169050816000806101000a81548173ffffffffffffffffffffffffffffffffffffffff021916908373ffffffffffffffffffffffffffffffffffffffff1602179055508173ffffffffffffffffffffffffffffffffffffffff168173ffffffffffffffffffffffffffffffffffffffff167f8be0079c531659141344cd1fd0a4f28419497f9722a3daafe3b4186f6b6457e060405160405180910390a35050565b600033905090565b6040518060a00160405280600080191681526020016060815260200160608152602001600073ffffffffffffffffffffffffffffffffffffffff1681526020016000151581525090565b604051806040016040528060008019168152602001606081525090565b6000604051905090565b600080fd5b600080fd5b600073ffffffffffffffffffffffffffffffffffffffff82169050919050565b60006116c182611696565b9050919050565b6116d1816116b6565b81146116dc57600080fd5b50565b6000813590506116ee816116c8565b92915050565b600063ffffffff82169050919050565b61170d816116f4565b811461171857600080fd5b50565b60008135905061172a81611704565b92915050565b6000806000606084860312156117495761174861168c565b5b6000611757868287016116df565b93505060206117688682870161171b565b92505060406117798682870161171b565b9150509250925092565b600081519050919050565b600082825260208201905092915050565b6000819050602082019050919050565b6000819050919050565b60006117c4826117af565b9050919050565b6117d4816117b9565b82525050565b600081519050919050565b600082825260208201905092915050565b60005b838110156118145780820151818401526020810190506117f9565b60008484015250505050565b6000601f19601f8301169050919050565b600061183c826117da565b61184681856117e5565b93506118568185602086016117f6565b61185f81611820565b840191505092915050565b600060408301600083015161188260008601826117cb565b506020830151848203602086015261189a8282611831565b9150508091505092915050565b60006118b3838361186a565b905092915050565b6000602082019050919050565b60006118d382611783565b6118dd818561178e565b9350836020820285016118ef8561179f565b8060005b8581101561192b578484038952815161190c85826118a7565b9450611917836118bb565b925060208a019950506001810190506118f3565b50829750879550505050505092915050565b6000602082019050818103600083015261195781846118c8565b905092915050565b611968816117af565b811461197357600080fd5b50565b6000813590506119858161195f565b92915050565b6000602082840312156119a1576119a061168c565b5b60006119af84828501611976565b91505092915050565b6119c1816116b6565b82525050565b60008115159050919050565b6119dc816119c7565b82525050565b600060a0830160008301516119fa60008601826117cb565b5060208301518482036020860152611a128282611831565b91505060408301518482036040860152611a2c8282611831565b9150506060830151611a4160608601826119b8565b506080830151611a5460808601826119d3565b508091505092915050565b60006020820190508181036000830152611a7981846119e2565b905092915050565b611a8a816116b6565b82525050565b6000602082019050611aa56000830184611a81565b92915050565b6000819050919050565b611abe81611aab565b8114611ac957600080fd5b50565b600081359050611adb81611ab5565b92915050565b600080fd5b7f4e487b7100000000000000000000000000000000000000000000000000000000600052604160045260246000fd5b611b1e82611820565b810181811067ffffffffffffffff82111715611b3d57611b3c611ae6565b5b80604052505050565b6000611b50611682565b9050611b5c8282611b15565b919050565b600067ffffffffffffffff821115611b7c57611b7b611ae6565b5b602082029050602081019050919050565b600080fd5b600080fd5b600067ffffffffffffffff821115611bb257611bb1611ae6565b5b602082029050919050565b6000611bd0611bcb84611b97565b611b46565b90508060208402830185811115611bea57611be9611b8d565b5b835b81811015611c135780611bff8882611acc565b845260208401935050602081019050611bec565b5050509392505050565b600082601f830112611c3257611c31611ae1565b5b6002611c3f848285611bbd565b91505092915050565b600067ffffffffffffffff821115611c6357611c62611ae6565b5b602082029050919050565b6000611c81611c7c84611c48565b611b46565b90508060408402830185811115611c9b57611c9a611b8d565b5b835b81811015611cc45780611cb08882611c1d565b845260208401935050604081019050611c9d565b5050509392505050565b600082601f830112611ce357611ce2611ae1565b5b6002611cf0848285611c6e565b91505092915050565b600067ffffffffffffffff821115611d1457611d13611ae6565b5b602082029050919050565b6000611d32611d2d84611cf9565b611b46565b90508060208402830185811115611d4c57611d4b611b8d565b5b835b81811015611d755780611d618882611acc565b845260208401935050602081019050611d4e565b5050509392505050565b600082601f830112611d9457611d93611ae1565b5b6010611da1848285611d1f565b91505092915050565b60006103008284031215611dc157611dc0611b92565b5b611dcb6080611b46565b90506000611ddb84828501611c1d565b6000830152506040611def84828501611cce565b60208301525060c0611e0384828501611c1d565b604083015250610100611e1884828501611d7f565b60608301525092915050565b6000611e37611e3284611b61565b611b46565b9050808382526020820190506103008402830185811115611e5b57611e5a611b8d565b5b835b81811015611e855780611e708882611daa565b84526020840193505061030081019050611e5d565b5050509392505050565b600082601f830112611ea457611ea3611ae1565b5b8135611eb4848260208601611e24565b91505092915050565b60008060408385031215611ed457611ed361168c565b5b6000611ee285828601611acc565b925050602083013567ffffffffffffffff811115611f0357611f02611691565b5b611f0f85828601611e8f565b9150509250929050565b600081519050919050565b600082825260208201905092915050565b6000819050602082019050919050565b600060029050919050565b600081905092915050565b6000819050919050565b611f6e81611aab565b82525050565b6000611f808383611f65565b60208301905092915050565b6000602082019050919050565b611fa281611f45565b611fac8184611f50565b9250611fb782611f5b565b8060005b83811015611fe8578151611fcf8782611f74565b9650611fda83611f8c565b925050600181019050611fbb565b505050505050565b600060029050919050565b600081905092915050565b6000819050919050565b600061201c8383611f99565b60408301905092915050565b6000602082019050919050565b61203e81611ff0565b6120488184611ffb565b925061205382612006565b8060005b8381101561208457815161206b8782612010565b965061207683612028565b925050600181019050612057565b505050505050565b600060109050919050565b600081905092915050565b6000819050919050565b6000602082019050919050565b6120c28161208c565b6120cc8184612097565b92506120d7826120a2565b8060005b838110156121085781516120ef8782611f74565b96506120fa836120ac565b9250506001810190506120db565b505050505050565b610300820160008201516121276000850182611f99565b50602082015161213a6040850182612035565b50604082015161214d60c0850182611f99565b5060608201516121616101008501826120b9565b50505050565b6103208201600082015161217e6000850182612110565b5060208201516121926103008501826119d3565b50505050565b60006121a48383612167565b6103208301905092915050565b6000602082019050919050565b60006121c982611f19565b6121d38185611f24565b93506121de83611f35565b8060005b8381101561220f5781516121f68882612198565b9750612201836121b1565b9250506001810190506121e2565b5085935050505092915050565b6000602082019050818103600083015261223681846121be565b905092915050565b600080fd5b60008083601f84011261225957612258611ae1565b5b8235905067ffffffffffffffff8111156122765761227561223e565b5b60208301915083602082028301111561229257612291611b8d565b5b9250929050565b6000806000604084860312156122b2576122b161168c565b5b60006122c086828701611acc565b935050602084013567ffffffffffffffff8111156122e1576122e0611691565b5b6122ed86828701612243565b92509250509250925092565b600081519050919050565b600082825260208201905092915050565b6000819050602082019050919050565b600061233183836117cb565b60208301905092915050565b6000602082019050919050565b6000612355826122f9565b61235f8185612304565b935061236a83612315565b8060005b8381101561239b5781516123828882612325565b975061238d8361233d565b92505060018101905061236e565b5085935050505092915050565b600060208201905081810360008301526123c2818461234a565b905092915050565b600080604083850312156123e1576123e061168c565b5b60006123ef8582860161171b565b92505060206124008582860161171b565b9150509250929050565b60008083601f8401126124205761241f611ae1565b5b8235905067ffffffffffffffff81111561243d5761243c61223e565b5b60208301915083600182028301111561245957612458611b8d565b5b9250929050565b60008060008060006060868803121561247c5761247b61168c565b5b600061248a88828901611976565b955050602086013567ffffffffffffffff8111156124ab576124aa611691565b5b6124b78882890161240a565b9450945050604086013567ffffffffffffffff8111156124da576124d9611691565b5b6124e68882890161240a565b92509250509295509295909350565b6124fe816117af565b811461250957600080fd5b50565b60008135905061251b816124f5565b92915050565b60008060006060848603121561253a5761253961168c565b5b60006125488682870161250c565b93505060206125598682870161250c565b925050604061256a8682870161250c565b9150509250925092565b61257d81611aab565b82525050565b61258c816117af565b82525050565b60006040820190506125a76000830185612574565b6125b46020830184612583565b9392505050565b6000602082840312156125d1576125d061168c565b5b60006125df848285016116df565b91505092915050565b600082825260208201905092915050565b7f6c696d6974206d757374206265203e203020616e64203c3d2033300000000000600082015250565b600061262f601b836125e8565b915061263a826125f9565b602082019050919050565b6000602082019050818103600083015261265e81612622565b9050919050565b7f6d6f64656c206f776e6572206e6f7420666f756e640000000000000000000000600082015250565b600061269b6015836125e8565b91506126a682612665565b602082019050919050565b600060208201905081810360008301526126ca8161268e565b9050919050565b7f6f6666736574206d757374203e3d203020616e64203c206c656e677468206f6660008201527f206c697374206f66206d6f64656c730000000000000000000000000000000000602082015250565b600061272d602f836125e8565b9150612738826126d1565b604082019050919050565b6000602082019050818103600083015261275c81612720565b9050919050565b7f4e487b7100000000000000000000000000000000000000000000000000000000600052602260045260246000fd5b600060028204905060018216806127aa57607f821691505b6020821081036127bd576127bc612763565b5b50919050565b7f6d6f64656c206e6f7420666f756e640000000000000000000000000000000000600082015250565b60006127f9600f836125e8565b9150612804826127c3565b602082019050919050565b60006020820190508181036000830152612828816127ec565b9050919050565b7f656d707479206d6f64656c4e616d650000000000000000000000000000000000600082015250565b6000612865600f836125e8565b91506128708261282f565b602082019050919050565b6000602082019050818103600083015261289481612858565b9050919050565b7f656d707479206d6f64656c4465736372697074696f6e00000000000000000000600082015250565b60006128d16016836125e8565b91506128dc8261289b565b602082019050919050565b60006020820190508181036000830152612900816128c4565b9050919050565b7f6d6f64656c20616c726561647920657869737473000000000000000000000000600082015250565b600061293d6014836125e8565b915061294882612907565b602082019050919050565b6000602082019050818103600083015261296c81612930565b9050919050565b60008190508160005260206000209050919050565b60006020601f8301049050919050565b600082821b905092915050565b6000600883026129d57fffffffffffffffffffffffffffffffffffffffffffffffffffffffffffffffff82612998565b6129df8683612998565b95508019841693508086168417925050509392505050565b6000819050919050565b6000612a1c612a17612a1284611aab565b6129f7565b611aab565b9050919050565b6000819050919050565b612a3683612a01565b612a4a612a4282612a23565b8484546129a5565b825550505050565b600090565b612a5f612a52565b612a6a818484612a2d565b505050565b5b81811015612a8e57612a83600082612a57565b600181019050612a70565b5050565b601f821115612ad357612aa481612973565b612aad84612988565b81016020851015612abc578190505b612ad0612ac885612988565b830182612a6f565b50505b505050565b600082821c905092915050565b6000612af660001984600802612ad8565b1980831691505092915050565b6000612b0f8383612ae5565b9150826002028217905092915050565b612b28826117da565b67ffffffffffffffff811115612b4157612b40611ae6565b5b612b4b8254612792565b612b56828285612a92565b600060209050601f831160018114612b895760008415612b77578287015190505b612b818582612b03565b865550612be9565b601f198416612b9786612973565b60005b82811015612bbf57848901518255600182019150602085019450602081019050612b9a565b86831015612bdc5784890151612bd8601f891682612ae5565b8355505b6001600288020188555050505b505050505050565b600082905092915050565b612c068383612bf1565b67ffffffffffffffff811115612c1f57612c1e611ae6565b5b612c298254612792565b612c34828285612a92565b6000601f831160018114612c635760008415612c51578287013590505b612c5b8582612b03565b865550612cc3565b601f198416612c7186612973565b60005b82811015612c9957848901358255600182019150602085019450602081019050612c74565b86831015612cb65784890135612cb2601f891682612ae5565b8355505b6001600288020188555050505b50505050505050565b7f4f776e61626c653a206e6577206f776e657220697320746865207a65726f206160008201527f6464726573730000000000000000000000000000000000000000000000000000602082015250565b6000612d286026836125e8565b9150612d3382612ccc565b604082019050919050565b60006020820190508181036000830152612d5781612d1b565b9050919050565b7f4e487b7100000000000000000000000000000000000000000000000000000000600052601160045260246000fd5b6000612d98826116f4565b9150612da3836116f4565b9250828201905063ffffffff811115612dbf57612dbe612d5e565b5b92915050565b6000612dd082611aab565b9150612ddb83611aab565b9250828203905081811115612df357612df2612d5e565b5b92915050565b7f4e487b7100000000000000000000000000000000000000000000000000000000600052603260045260246000fd5b6000612e33826116f4565b915063ffffffff8203612e4957612e48612d5e565b5b600182019050919050565b7f4f776e61626c653a2063616c6c6572206973206e6f7420746865206f776e6572600082015250565b6000612e8a6020836125e8565b9150612e9582612e54565b602082019050919050565b60006020820190508181036000830152612eb981612e7d565b905091905056fea26469706673582212202c2636688fb259c87446a4b4d2f60e7b4eb5619ee0cf09c04c768d11b878646264736f6c63430008110033",
  "linkReferences": {},
  "deployedLinkReferences": {}
}