{
  "_format": "hh-sol-artifact-1",
  "contractName": "Verifier",
  "sourceName": "contracts/src/Verifier.sol",
  "abi": [
    {
      "inputs": [
        {
          "internalType": "uint8",
          "name": "_challengeLength",
          "type": "uint8"
        }
      ],
      "stateMutability": "nonpayable",
      "type": "constructor"
    },
    {
      "anonymous": false,
      "inputs": [
        {
          "indexed": true,
          "internalType": "IVerifier.Hash",
          "name": "commitId",
          "type": "bytes32"
        },
        {
          "indexed": true,
          "internalType": "address",
          "name": "proverAddress",
          "type": "address"
        }
      ],
      "name": "ChallengeUpdated",
      "type": "event"
    },
    {
      "anonymous": false,
      "inputs": [
        {
          "indexed": true,
          "internalType": "IVerifier.Hash",
          "name": "commitId",
          "type": "bytes32"
        },
        {
          "indexed": true,
          "internalType": "address",
          "name": "proverAddress",
          "type": "address"
        }
      ],
      "name": "CommitAdded",
      "type": "event"
    },
    {
      "anonymous": false,
      "inputs": [
        {
          "indexed": true,
          "internalType": "IVerifier.Hash",
          "name": "commitId",
          "type": "bytes32"
        },
        {
          "indexed": true,
          "internalType": "address",
          "name": "proverAddress",
          "type": "address"
        }
      ],
      "name": "CommitRevealed",
      "type": "event"
    },
    {
      "anonymous": false,
      "inputs": [
        {
          "indexed": true,
          "internalType": "IVerifier.Hash",
          "name": "contentId",
          "type": "bytes32"
        },
        {
          "indexed": true,
          "internalType": "address",
          "name": "ownerAddress",
          "type": "address"
        }
      ],
      "name": "ModelDisabled",
      "type": "event"
    },
    {
      "anonymous": false,
      "inputs": [
        {
          "indexed": true,
          "internalType": "IVerifier.Hash",
          "name": "contentId",
          "type": "bytes32"
        },
        {
          "indexed": true,
          "internalType": "address",
          "name": "ownerAddress",
          "type": "address"
        }
      ],
      "name": "ModelRegistered",
      "type": "event"
    },
    {
      "anonymous": false,
      "inputs": [
        {
          "indexed": true,
          "internalType": "IVerifier.Hash",
          "name": "contentId",
          "type": "bytes32"
        },
        {
          "indexed": true,
          "internalType": "address",
          "name": "ownerAddress",
          "type": "address"
        },
        {
          "indexed": false,
          "internalType": "string",
          "name": "name",
          "type": "string"
        },
        {
          "indexed": false,
          "internalType": "string",
          "name": "description",
          "type": "string"
        }
      ],
      "name": "ModelUpdated",
      "type": "event"
    },
    {
      "anonymous": false,
      "inputs": [
        {
          "indexed": true,
          "internalType": "address",
          "name": "previousOwner",
          "type": "address"
        },
        {
          "indexed": true,
          "internalType": "address",
          "name": "newOwner",
          "type": "address"
        }
      ],
      "name": "OwnershipTransferred",
      "type": "event"
    },
    {
      "inputs": [
        {
          "internalType": "IVerifier.Hash",
          "name": "_modelContentId",
          "type": "bytes32"
        },
        {
          "internalType": "IVerifier.Hash",
          "name": "_merkleRoot",
          "type": "bytes32"
        }
      ],
      "name": "commit",
      "outputs": [
        {
          "internalType": "IVerifier.Hash",
          "name": "commitId",
          "type": "bytes32"
        },
        {
          "internalType": "bytes",
          "name": "challenge",
          "type": "bytes"
        }
      ],
      "stateMutability": "nonpayable",
      "type": "function"
    },
    {
      "inputs": [
        {
          "internalType": "IVerifier.Hash",
          "name": "modelContentId",
          "type": "bytes32"
        }
      ],
      "name": "disableModel",
      "outputs": [],
      "stateMutability": "nonpayable",
      "type": "function"
    },
    {
      "inputs": [],
      "name": "getChallengeLength",
      "outputs": [
        {
          "internalType": "uint8",
          "name": "",
          "type": "uint8"
        }
      ],
      "stateMutability": "view",
      "type": "function"
    },
    {
      "inputs": [
        {
          "internalType": "IVerifier.Hash",
          "name": "_commitId",
          "type": "bytes32"
        }
      ],
      "name": "getCommit",
      "outputs": [
        {
          "components": [
            {
              "internalType": "IVerifier.Hash",
              "name": "id",
              "type": "bytes32"
            },
            {
              "internalType": "IVerifier.Hash",
              "name": "modelContentId",
              "type": "bytes32"
            },
            {
              "internalType": "IVerifier.Hash",
              "name": "merkleRoot",
              "type": "bytes32"
            },
            {
              "internalType": "bytes",
              "name": "challenge",
              "type": "bytes"
            },
            {
              "internalType": "address",
              "name": "proverAddress",
              "type": "address"
            },
            {
              "internalType": "bool",
              "name": "isRevealed",
              "type": "bool"
            }
          ],
          "internalType": "struct IVerifier.Commit",
          "name": "",
          "type": "tuple"
        }
      ],
      "stateMutability": "view",
      "type": "function"
    },
    {
      "inputs": [
        {
          "internalType": "IVerifier.Hash",
          "name": "_modelContentId",
          "type": "bytes32"
        },
        {
          "internalType": "uint32",
          "name": "_offset",
          "type": "uint32"
        },
        {
          "internalType": "uint32",
          "name": "_limit",
          "type": "uint32"
        }
      ],
      "name": "getCommitsOfModel",
      "outputs": [
        {
          "internalType": "IVerifier.Hash[]",
          "name": "",
          "type": "bytes32[]"
        }
      ],
      "stateMutability": "view",
      "type": "function"
    },
    {
      "inputs": [
        {
          "internalType": "address",
          "name": "_proverAddress",
          "type": "address"
        },
        {
          "internalType": "uint32",
          "name": "_offset",
          "type": "uint32"
        },
        {
          "internalType": "uint32",
          "name": "_limit",
          "type": "uint32"
        }
      ],
      "name": "getCommitsOfProver",
      "outputs": [
        {
          "internalType": "IVerifier.Hash[]",
          "name": "",
          "type": "bytes32[]"
        }
      ],
      "stateMutability": "view",
      "type": "function"
    },
    {
      "inputs": [
        {
          "internalType": "IVerifier.Hash",
          "name": "modelContentId",
          "type": "bytes32"
        }
      ],
      "name": "getModel",
      "outputs": [
        {
          "components": [
            {
              "internalType": "IVerifier.Hash",
              "name": "contentId",
              "type": "bytes32"
            },
            {
              "internalType": "string",
              "name": "name",
              "type": "string"
            },
            {
              "internalType": "string",
              "name": "description",
              "type": "string"
            },
            {
              "internalType": "address",
              "name": "ownerAddress",
              "type": "address"
            },
            {
              "internalType": "bool",
              "name": "isDisabled",
              "type": "bool"
            }
          ],
          "internalType": "struct IVerifier.Model",
          "name": "model",
          "type": "tuple"
        }
      ],
      "stateMutability": "view",
      "type": "function"
    },
    {
      "inputs": [
        {
          "internalType": "uint32",
          "name": "offset",
          "type": "uint32"
        },
        {
          "internalType": "uint32",
          "name": "limit",
          "type": "uint32"
        }
      ],
      "name": "getModels",
      "outputs": [
        {
          "components": [
            {
              "internalType": "IVerifier.Hash",
              "name": "contentId",
              "type": "bytes32"
            },
            {
              "internalType": "string",
              "name": "name",
              "type": "string"
            }
          ],
          "internalType": "struct IVerifier.ModelArrayElement[]",
          "name": "paginatedModels",
          "type": "tuple[]"
        }
      ],
      "stateMutability": "view",
      "type": "function"
    },
    {
      "inputs": [
        {
          "internalType": "address",
          "name": "ownerAddress",
          "type": "address"
        },
        {
          "internalType": "uint32",
          "name": "offset",
          "type": "uint32"
        },
        {
          "internalType": "uint32",
          "name": "limit",
          "type": "uint32"
        }
      ],
      "name": "getModelsByOwnerAddress",
      "outputs": [
        {
          "components": [
            {
              "internalType": "IVerifier.Hash",
              "name": "contentId",
              "type": "bytes32"
            },
            {
              "internalType": "string",
              "name": "name",
              "type": "string"
            }
          ],
          "internalType": "struct IVerifier.ModelArrayElement[]",
          "name": "paginatedModels",
          "type": "tuple[]"
        }
      ],
      "stateMutability": "view",
      "type": "function"
    },
    {
      "inputs": [],
      "name": "owner",
      "outputs": [
        {
          "internalType": "address",
          "name": "",
          "type": "address"
        }
      ],
      "stateMutability": "view",
      "type": "function"
    },
    {
      "inputs": [
        {
          "internalType": "IVerifier.Hash",
          "name": "modelContentId",
          "type": "bytes32"
        },
        {
          "internalType": "string",
          "name": "modelName",
          "type": "string"
        },
        {
          "internalType": "string",
          "name": "modelDescription",
          "type": "string"
        }
      ],
      "name": "registerModel",
      "outputs": [
        {
          "components": [
            {
              "internalType": "IVerifier.Hash",
              "name": "contentId",
              "type": "bytes32"
            },
            {
              "internalType": "string",
              "name": "name",
              "type": "string"
            },
            {
              "internalType": "string",
              "name": "description",
              "type": "string"
            },
            {
              "internalType": "address",
              "name": "ownerAddress",
              "type": "address"
            },
            {
              "internalType": "bool",
              "name": "isDisabled",
              "type": "bool"
            }
          ],
          "internalType": "struct IVerifier.Model",
          "name": "model",
          "type": "tuple"
        }
      ],
      "stateMutability": "nonpayable",
      "type": "function"
    },
    {
      "inputs": [],
      "name": "renounceOwnership",
      "outputs": [],
      "stateMutability": "nonpayable",
      "type": "function"
    },
    {
      "inputs": [
        {
          "internalType": "IVerifier.Hash",
          "name": "_commitId",
          "type": "bytes32"
        },
        {
          "internalType": "bytes32[]",
          "name": "_merkleProofs",
          "type": "bytes32[]"
        },
        {
          "internalType": "bool[]",
          "name": "_proofFlags",
          "type": "bool[]"
        },
        {
          "internalType": "bytes32[]",
          "name": "_leaves",
          "type": "bytes32[]"
        }
      ],
      "name": "reveal",
      "outputs": [
        {
          "internalType": "bool",
          "name": "commitRevealed",
          "type": "bool"
        }
      ],
      "stateMutability": "nonpayable",
      "type": "function"
    },
    {
      "inputs": [
        {
          "internalType": "address",
          "name": "newOwner",
          "type": "address"
        }
      ],
      "name": "transferOwnership",
      "outputs": [],
      "stateMutability": "nonpayable",
      "type": "function"
    },
    {
      "inputs": [
        {
          "internalType": "IVerifier.Hash",
          "name": "_commitId",
          "type": "bytes32"
        }
      ],
      "name": "updateChallenge",
      "outputs": [
        {
          "internalType": "bytes",
          "name": "challenge",
          "type": "bytes"
        }
      ],
      "stateMutability": "nonpayable",
      "type": "function"
    },
    {
      "inputs": [
        {
          "internalType": "uint8",
          "name": "_challengeLength",
          "type": "uint8"
        }
      ],
      "name": "updateChallengeLength",
      "outputs": [],
      "stateMutability": "nonpayable",
      "type": "function"
    },
    {
      "inputs": [
        {
          "internalType": "IVerifier.Hash",
          "name": "modelContentId",
          "type": "bytes32"
        },
        {
          "internalType": "string",
          "name": "modelName",
          "type": "string"
        },
        {
          "internalType": "string",
          "name": "modelDescription",
          "type": "string"
        }
      ],
      "name": "updateModel",
      "outputs": [],
      "stateMutability": "nonpayable",
      "type": "function"
    },
    {
      "inputs": [
        {
          "internalType": "uint256",
          "name": "commitmentId",
          "type": "uint256"
        },
        {
          "components": [
            {
              "internalType": "uint256[2]",
              "name": "a",
              "type": "uint256[2]"
            },
            {
              "internalType": "uint256[2][2]",
              "name": "b",
              "type": "uint256[2][2]"
            },
            {
              "internalType": "uint256[2]",
              "name": "c",
              "type": "uint256[2]"
            },
            {
              "internalType": "uint256[16]",
              "name": "input",
              "type": "uint256[16]"
            }
          ],
          "internalType": "struct IVerifier.Zkp[]",
          "name": "zkps",
          "type": "tuple[]"
        }
      ],
      "name": "verify",
      "outputs": [
        {
          "components": [
            {
              "components": [
                {
                  "internalType": "uint256[2]",
                  "name": "a",
                  "type": "uint256[2]"
                },
                {
                  "internalType": "uint256[2][2]",
                  "name": "b",
                  "type": "uint256[2][2]"
                },
                {
                  "internalType": "uint256[2]",
                  "name": "c",
                  "type": "uint256[2]"
                },
                {
                  "internalType": "uint256[16]",
                  "name": "input",
                  "type": "uint256[16]"
                }
              ],
              "internalType": "struct IVerifier.Zkp",
              "name": "zkp",
              "type": "tuple"
            },
            {
              "internalType": "bool",
              "name": "isValid",
              "type": "bool"
            }
          ],
          "internalType": "struct IVerifier.ZkpWithValidity[]",
          "name": "zkpVerifications",
          "type": "tuple[]"
        }
      ],
      "stateMutability": "nonpayable",
      "type": "function"
    }
  ],
  "bytecode": "0x60806040523480156200001157600080fd5b5060405162004f9b38038062004f9b833981810160405281019062000037919062000188565b620000576200004b6200007960201b60201c565b6200008160201b60201c565b80600060146101000a81548160ff021916908360ff16021790555050620001ba565b600033905090565b60008060009054906101000a900473ffffffffffffffffffffffffffffffffffffffff169050816000806101000a81548173ffffffffffffffffffffffffffffffffffffffff021916908373ffffffffffffffffffffffffffffffffffffffff1602179055508173ffffffffffffffffffffffffffffffffffffffff168173ffffffffffffffffffffffffffffffffffffffff167f8be0079c531659141344cd1fd0a4f28419497f9722a3daafe3b4186f6b6457e060405160405180910390a35050565b600080fd5b600060ff82169050919050565b62000162816200014a565b81146200016e57600080fd5b50565b600081519050620001828162000157565b92915050565b600060208284031215620001a157620001a062000145565b5b6000620001b18482850162000171565b91505092915050565b614dd180620001ca6000396000f3fe608060405234801561001057600080fd5b50600436106101165760003560e01c80638e6906f0116100a2578063c46bfb1f11610071578063c46bfb1f14610319578063c6ce1e9514610349578063d7c7e94814610379578063e3ce094d14610395578063f2fde38b146103c657610116565b80638e6906f01461025957806398611507146102895780639cc49954146102b95780639d3a2407146102e957610116565b80636e1d2e2b116100e95780636e1d2e2b146101c757806370bca450146101e5578063715018a6146102015780638784ea961461020b5780638da5cb5b1461023b57610116565b8063109656fb1461011b57806321e7c4981461014b57806354eda9281461017b57806358c90698146101ab575b600080fd5b61013560048036038101906101309190612b24565b6103e2565b6040516101429190612d31565b60405180910390f35b61016560048036038101906101609190612d7f565b610650565b6040516101729190612e53565b60405180910390f35b61019560048036038101906101909190612b24565b610883565b6040516101a29190612f24565b60405180910390f35b6101c560048036038101906101c09190612f7f565b610ada565b005b6101cf610b47565b6040516101dc9190612fbb565b60405180910390f35b6101ff60048036038101906101fa9190612d7f565b610b66565b005b610209610ca5565b005b61022560048036038101906102209190612d7f565b610cb9565b60405161023291906130b4565b60405180910390f35b610243610e6a565b60405161025091906130e5565b60405180910390f35b610273600480360381019061026e9190613512565b610e93565b6040516102809190613871565b60405180910390f35b6102a3600480360381019061029e9190612d7f565b610e9b565b6040516102b091906138dd565b60405180910390f35b6102d360048036038101906102ce9190613a9f565b61102b565b6040516102e09190613b71565b60405180910390f35b61030360048036038101906102fe9190613b8c565b61131d565b6040516103109190612d31565b60405180910390f35b610333600480360381019061032e9190613c22565b611489565b6040516103409190612e53565b60405180910390f35b610363600480360381019061035e9190613cb7565b6117ea565b6040516103709190612f24565b60405180910390f35b610393600480360381019061038e9190613c22565b6119e8565b005b6103af60048036038101906103aa9190613d0a565b611bdc565b6040516103bd929190613d59565b60405180910390f35b6103e060048036038101906103db9190613d89565b611e5b565b005b6060836000600260008373ffffffffffffffffffffffffffffffffffffffff1673ffffffffffffffffffffffffffffffffffffffff168152602001908152602001600020805490500361046a576040517f08c379a000000000000000000000000000000000000000000000000000000000815260040161046190613e13565b60405180910390fd5b83600260008773ffffffffffffffffffffffffffffffffffffffff1673ffffffffffffffffffffffffffffffffffffffff16815260200190815260200160002080549050600081111561050457808263ffffffff16106104ff576040517f08c379a00000000000000000000000000000000000000000000000000000000081526004016104f690613ea5565b60405180910390fd5b61054e565b60008263ffffffff161461054d576040517f08c379a000000000000000000000000000000000000000000000000000000000815260040161054490613f37565b60405180910390fd5b5b8460008163ffffffff1611801561056c5750601e8163ffffffff1611155b6105ab576040517f08c379a00000000000000000000000000000000000000000000000000000000081526004016105a290613fa3565b60405180910390fd5b610643600260008a73ffffffffffffffffffffffffffffffffffffffff1673ffffffffffffffffffffffffffffffffffffffff16815260200190815260200160002080548060200260200160405190810160405280929190818152602001828054801561063757602002820191906000526020600020905b815481526020019060010190808311610623575b50505050508888611ede565b9450505050509392505050565b6106586129b8565b81600060036000838152602001908152602001600020600101805461067c90613ff2565b9050036106be576040517f08c379a00000000000000000000000000000000000000000000000000000000081526004016106b59061406f565b60405180910390fd5b600360008481526020019081526020016000206040518060a0016040529081600082015481526020016001820180546106f690613ff2565b80601f016020809104026020016040519081016040528092919081815260200182805461072290613ff2565b801561076f5780601f106107445761010080835404028352916020019161076f565b820191906000526020600020905b81548152906001019060200180831161075257829003601f168201915b5050505050815260200160028201805461078890613ff2565b80601f01602080910402602001604051908101604052809291908181526020018280546107b490613ff2565b80156108015780601f106107d657610100808354040283529160200191610801565b820191906000526020600020905b8154815290600101906020018083116107e457829003601f168201915b505050505081526020016003820160009054906101000a900473ffffffffffffffffffffffffffffffffffffffff1673ffffffffffffffffffffffffffffffffffffffff1673ffffffffffffffffffffffffffffffffffffffff1681526020016003820160149054906101000a900460ff161515151581525050915050919050565b606082600560008673ffffffffffffffffffffffffffffffffffffffff1673ffffffffffffffffffffffffffffffffffffffff16815260200190815260200160002080549050600081111561091f57808263ffffffff161061091a576040517f08c379a000000000000000000000000000000000000000000000000000000000815260040161091190613ea5565b60405180910390fd5b610969565b60008263ffffffff1614610968576040517f08c379a000000000000000000000000000000000000000000000000000000000815260040161095f90613f37565b60405180910390fd5b5b8360008163ffffffff161180156109875750601e8163ffffffff1611155b6109c6576040517f08c379a00000000000000000000000000000000000000000000000000000000081526004016109bd90613fa3565b60405180910390fd5b863373ffffffffffffffffffffffffffffffffffffffff168173ffffffffffffffffffffffffffffffffffffffff1614610a35576040517f08c379a0000000000000000000000000000000000000000000000000000000008152600401610a2c906140db565b60405180910390fd5b610acd600560008a73ffffffffffffffffffffffffffffffffffffffff1673ffffffffffffffffffffffffffffffffffffffff168152602001908152602001600020805480602002602001604051908101604052809291908181526020018280548015610ac157602002820191906000526020600020905b815481526020019060010190808311610aad575b505050505088886121d2565b9450505050509392505050565b610ae26122de565b60208160ff161115610b29576040517f08c379a0000000000000000000000000000000000000000000000000000000008152600401610b209061416d565b60405180910390fd5b80600060146101000a81548160ff021916908360ff16021790555050565b6000610b516122de565b600060149054906101000a900460ff16905090565b806000600360008381526020019081526020016000206001018054610b8a90613ff2565b905003610bcc576040517f08c379a0000000000000000000000000000000000000000000000000000000008152600401610bc39061406f565b60405180910390fd5b813373ffffffffffffffffffffffffffffffffffffffff166003600083815260200190815260200160002060030160009054906101000a900473ffffffffffffffffffffffffffffffffffffffff1673ffffffffffffffffffffffffffffffffffffffff1614610c71576040517f08c379a0000000000000000000000000000000000000000000000000000000008152600401610c68906141d9565b60405180910390fd5b60016003600085815260200190815260200160002060030160146101000a81548160ff021916908315150217905550505050565b610cad6122de565b610cb7600061235c565b565b610cc1612a02565b816000600660008381526020019081526020016000206000015403610d1b576040517f08c379a0000000000000000000000000000000000000000000000000000000008152600401610d1290614245565b60405180910390fd5b610d236122de565b600660008481526020019081526020016000206040518060c0016040529081600082015481526020016001820154815260200160028201548152602001600382018054610d6f90613ff2565b80601f0160208091040260200160405190810160405280929190818152602001828054610d9b90613ff2565b8015610de85780601f10610dbd57610100808354040283529160200191610de8565b820191906000526020600020905b815481529060010190602001808311610dcb57829003601f168201915b505050505081526020016004820160009054906101000a900473ffffffffffffffffffffffffffffffffffffffff1673ffffffffffffffffffffffffffffffffffffffff1673ffffffffffffffffffffffffffffffffffffffff1681526020016004820160149054906101000a900460ff161515151581525050915050919050565b60008060009054906101000a900473ffffffffffffffffffffffffffffffffffffffff16905090565b606092915050565b6060816000600660008381526020019081526020016000206000015403610ef7576040517f08c379a0000000000000000000000000000000000000000000000000000000008152600401610eee90614245565b60405180910390fd5b6006600084815260200190815260200160002060040160009054906101000a900473ffffffffffffffffffffffffffffffffffffffff163373ffffffffffffffffffffffffffffffffffffffff168173ffffffffffffffffffffffffffffffffffffffff1614610f9c576040517f08c379a0000000000000000000000000000000000000000000000000000000008152600401610f93906140db565b60405180910390fd5b6000610fb6600060149054906101000a900460ff16612420565b905080600660008781526020019081526020016000206003019081610fdb9190614411565b503373ffffffffffffffffffffffffffffffffffffffff16857f563b362092ba503d6039c4132ccf42635c534111aba52317fba78148f17ab89b60405160405180910390a3809350505050919050565b6000866000600660008381526020019081526020016000206000015403611087576040517f08c379a000000000000000000000000000000000000000000000000000000000815260040161107e90614245565b60405180910390fd5b6006600089815260200190815260200160002060040160009054906101000a900473ffffffffffffffffffffffffffffffffffffffff163373ffffffffffffffffffffffffffffffffffffffff168173ffffffffffffffffffffffffffffffffffffffff161461112c576040517f08c379a0000000000000000000000000000000000000000000000000000000008152600401611123906140db565b60405180910390fd5b6000600660008b8152602001908152602001600020600301805461114f90613ff2565b80601f016020809104026020016040519081016040528092919081815260200182805461117b90613ff2565b80156111c85780601f1061119d576101008083540402835291602001916111c8565b820191906000526020600020905b8154815290600101906020018083116111ab57829003601f168201915b5050505050905060006111db828761245e565b90506001151581151514611224576040517f08c379a000000000000000000000000000000000000000000000000000000000815260040161121b9061452f565b60405180910390fd5b6000600660008d8152602001908152602001600020600201549050600061124f8c8c8c8c868d6124d1565b90506001151581151514611298576040517f08c379a000000000000000000000000000000000000000000000000000000000815260040161128f9061459b565b60405180910390fd5b80600660008f815260200190815260200160002060040160146101000a81548160ff0219169083151502179055503373ffffffffffffffffffffffffffffffffffffffff168d7f388a4c5cd95b8c62a844c6893354d7e39e7975a32896327919de0eb3ca5ca18860405160405180910390a38096505050505050509695505050505050565b606082600180549050600081111561137c57808263ffffffff1610611377576040517f08c379a000000000000000000000000000000000000000000000000000000000815260040161136e90613ea5565b60405180910390fd5b6113c6565b60008263ffffffff16146113c5576040517f08c379a00000000000000000000000000000000000000000000000000000000081526004016113bc90613f37565b60405180910390fd5b5b8360008163ffffffff161180156113e45750601e8163ffffffff1611155b611423576040517f08c379a000000000000000000000000000000000000000000000000000000000815260040161141a90613fa3565b60405180910390fd5b61147e600180548060200260200160405190810160405280929190818152602001828054801561147257602002820191906000526020600020905b81548152602001906001019080831161145e575b50505050508787611ede565b935050505092915050565b6114916129b8565b84848484600084849050036114db576040517f08c379a00000000000000000000000000000000000000000000000000000000081526004016114d290614607565b60405180910390fd5b60008282905003611521576040517f08c379a000000000000000000000000000000000000000000000000000000000815260040161151890614673565b60405180910390fd5b6000600360008c8152602001908152602001600020600101805461154490613ff2565b905014611586576040517f08c379a000000000000000000000000000000000000000000000000000000000815260040161157d906146df565b60405180910390fd5b60018a9080600181540180825580915050600190039060005260206000200160009091909190915055600260003373ffffffffffffffffffffffffffffffffffffffff1673ffffffffffffffffffffffffffffffffffffffff1681526020019081526020016000208a908060018154018082558091505060019003906000526020600020016000909190919091505560006040518060a001604052808c81526020018b8b8080601f016020809104026020016040519081016040528093929190818152602001838380828437600081840152601f19601f82011690508083019250505050505050815260200189898080601f016020809104026020016040519081016040528093929190818152602001838380828437600081840152601f19601f8201169050808301925050505050505081526020013373ffffffffffffffffffffffffffffffffffffffff16815260200160001515815250905080600360008d8152602001908152602001600020600082015181600001556020820151816001019081611714919061475a565b50604082015181600201908161172a919061475a565b5060608201518160030160006101000a81548173ffffffffffffffffffffffffffffffffffffffff021916908373ffffffffffffffffffffffffffffffffffffffff16021790555060808201518160030160146101000a81548160ff0219169083151502179055509050503373ffffffffffffffffffffffffffffffffffffffff168b7fc0bb3838ad72991f913b1a5c821da885948755a4ee450ec034e7a256e09aca5a60405160405180910390a3809550505050505095945050505050565b606083600060036000838152602001908152602001600020600101805461181090613ff2565b905003611852576040517f08c379a00000000000000000000000000000000000000000000000000000000081526004016118499061406f565b60405180910390fd5b83600460008781526020019081526020016000208054905060008111156118c057808263ffffffff16106118bb576040517f08c379a00000000000000000000000000000000000000000000000000000000081526004016118b290613ea5565b60405180910390fd5b61190a565b60008263ffffffff1614611909576040517f08c379a000000000000000000000000000000000000000000000000000000000815260040161190090613f37565b60405180910390fd5b5b8460008163ffffffff161180156119285750601e8163ffffffff1611155b611967576040517f08c379a000000000000000000000000000000000000000000000000000000000815260040161195e90613fa3565b60405180910390fd5b61196f6122de565b6119db600460008a81526020019081526020016000208054806020026020016040519081016040528092919081815260200182805480156119cf57602002820191906000526020600020905b8154815260200190600101908083116119bb575b505050505088886121d2565b9450505050509392505050565b846000600360008381526020019081526020016000206001018054611a0c90613ff2565b905003611a4e576040517f08c379a0000000000000000000000000000000000000000000000000000000008152600401611a459061406f565b60405180910390fd5b853373ffffffffffffffffffffffffffffffffffffffff166003600083815260200190815260200160002060030160009054906101000a900473ffffffffffffffffffffffffffffffffffffffff1673ffffffffffffffffffffffffffffffffffffffff1614611af3576040517f08c379a0000000000000000000000000000000000000000000000000000000008152600401611aea906141d9565b60405180910390fd5b8585858560008484905003611b3d576040517f08c379a0000000000000000000000000000000000000000000000000000000008152600401611b3490614607565b60405180910390fd5b60008282905003611b83576040517f08c379a0000000000000000000000000000000000000000000000000000000008152600401611b7a90614673565b60405180910390fd5b8989600360008e81526020019081526020016000206001019182611ba8929190614837565b508787600360008e81526020019081526020016000206002019182611bce929190614837565b505050505050505050505050565b60006060836000600360008381526020019081526020016000206001018054611c0490613ff2565b905003611c46576040517f08c379a0000000000000000000000000000000000000000000000000000000008152600401611c3d9061406f565b60405180910390fd5b6000611c5286866124ed565b90506000611c6e600060149054906101000a900460ff16612420565b905060046000888152602001908152602001600020829080600181540180825580915050600190039060005260206000200160009091909190915055600560003373ffffffffffffffffffffffffffffffffffffffff1673ffffffffffffffffffffffffffffffffffffffff1681526020019081526020016000208290806001815401808255809150506001900390600052602060002001600090919091909150556040518060c001604052808381526020018881526020018781526020018281526020013373ffffffffffffffffffffffffffffffffffffffff16815260200160001515815250600660008481526020019081526020016000206000820151816000015560208201518160010155604082015181600201556060820151816003019081611d9c9190614411565b5060808201518160040160006101000a81548173ffffffffffffffffffffffffffffffffffffffff021916908373ffffffffffffffffffffffffffffffffffffffff16021790555060a08201518160040160146101000a81548160ff0219169083151502179055509050503373ffffffffffffffffffffffffffffffffffffffff16827f7ba2a0235400b9674d63c3872e020fd5b1d85bc4c1a227e1991b0567142376b060405160405180910390a38181945094505050509250929050565b611e636122de565b600073ffffffffffffffffffffffffffffffffffffffff168173ffffffffffffffffffffffffffffffffffffffff1603611ed2576040517f08c379a0000000000000000000000000000000000000000000000000000000008152600401611ec990614979565b60405180910390fd5b611edb8161235c565b50565b606083518284611eee91906149c8565b63ffffffff161115611f10578263ffffffff168451611f0d9190614a00565b91505b60008263ffffffff1667ffffffffffffffff811115611f3257611f3161313b565b5b604051908082528060200260200182016040528015611f6b57816020015b611f58612a59565b815260200190600190039081611f505790505b50905060005b8363ffffffff168163ffffffff1610156121c657600060036000888489611f9891906149c8565b63ffffffff1681518110611faf57611fae614a34565b5b602002602001015181526020019081526020016000206040518060a001604052908160008201548152602001600182018054611fea90613ff2565b80601f016020809104026020016040519081016040528092919081815260200182805461201690613ff2565b80156120635780601f1061203857610100808354040283529160200191612063565b820191906000526020600020905b81548152906001019060200180831161204657829003601f168201915b5050505050815260200160028201805461207c90613ff2565b80601f01602080910402602001604051908101604052809291908181526020018280546120a890613ff2565b80156120f55780601f106120ca576101008083540402835291602001916120f5565b820191906000526020600020905b8154815290600101906020018083116120d857829003601f168201915b505050505081526020016003820160009054906101000a900473ffffffffffffffffffffffffffffffffffffffff1673ffffffffffffffffffffffffffffffffffffffff1673ffffffffffffffffffffffffffffffffffffffff1681526020016003820160149054906101000a900460ff16151515158152505090506040518060400160405280826000015181526020018260200151815250838363ffffffff16815181106121a7576121a6614a34565b5b60200260200101819052505080806121be90614a63565b915050611f71565b50809150509392505050565b6060835182846121e291906149c8565b63ffffffff161115612204578263ffffffff1684516122019190614a00565b91505b60008263ffffffff1667ffffffffffffffff8111156122265761222561313b565b5b6040519080825280602002602001820160405280156122545781602001602082028036833780820191505090505b50905060005b8363ffffffff168163ffffffff1610156122d25785818661227b91906149c8565b63ffffffff168151811061229257612291614a34565b5b6020026020010151828263ffffffff16815181106122b3576122b2614a34565b5b60200260200101818152505080806122ca90614a63565b91505061225a565b50809150509392505050565b6122e6612580565b73ffffffffffffffffffffffffffffffffffffffff16612304610e6a565b73ffffffffffffffffffffffffffffffffffffffff161461235a576040517f08c379a000000000000000000000000000000000000000000000000000000000815260040161235190614adb565b60405180910390fd5b565b60008060009054906101000a900473ffffffffffffffffffffffffffffffffffffffff169050816000806101000a81548173ffffffffffffffffffffffffffffffffffffffff021916908373ffffffffffffffffffffffffffffffffffffffff1602179055508173ffffffffffffffffffffffffffffffffffffffff168173ffffffffffffffffffffffffffffffffffffffff167f8be0079c531659141344cd1fd0a4f28419497f9722a3daafe3b4186f6b6457e060405160405180910390a35050565b60606124574233604051602001612438929190614b64565b604051602081830303815290604052805190602001208360ff16612588565b9050919050565b600080600090505b82518110156124c557600061249684838151811061248757612486614a34565b5b60200260200101518651612588565b90506124a28186612686565b6124b1576000925050506124cb565b5080806124bd90614b90565b915050612466565b50600190505b92915050565b60006124e18787878787876126a1565b90509695505050505050565b60008083833360405160200161250593929190614bf9565b6040516020818303038152906040528051906020012090506000600660008381526020019081526020016000206000015414612576576040517f08c379a000000000000000000000000000000000000000000000000000000000815260040161256d90614c82565b60405180910390fd5b8091505092915050565b600033905090565b606060008267ffffffffffffffff8111156125a6576125a561313b565b5b6040519080825280601f01601f1916602001820160405280156125d85781602001600182028036833780820191505090505b5090506000602060ff169050600084826125f29190614a00565b905060008190505b828110156126795786816020811061261557612614614a34565b5b1a60f81b8483836126269190614a00565b8151811061263757612636614a34565b5b60200101907effffffffffffffffffffffffffffffffffffffffffffffffffffffffffffff1916908160001a905350808061267190614b90565b9150506125fa565b5082935050505092915050565b60008180519060200120838051906020012014905092915050565b6000826126b188888888876126be565b1490509695505050505050565b60008082519050600085859050905080600189899050846126df9190614ca2565b6126e99190614a00565b14612729576040517f08c379a000000000000000000000000000000000000000000000000000000000815260040161272090614d22565b60405180910390fd5b60008167ffffffffffffffff8111156127455761274461313b565b5b6040519080825280602002602001820160405280156127735781602001602082028036833780820191505090505b5090506000806000805b858110156128d95760008785106127ba5785848061279a90614b90565b9550815181106127ad576127ac614a34565b5b60200260200101516127e2565b8985806127c690614b90565b9650815181106127d9576127d8614a34565b5b60200260200101515b905060008c8c848181106127f9576127f8614a34565b5b905060200201602081019061280e9190614d6e565b61283d578e8e858061281f90614b90565b965081811061283157612830614a34565b5b90506020020135612899565b8886106128705786858061285090614b90565b96508151811061286357612862614a34565b5b6020026020010151612898565b8a868061287c90614b90565b97508151811061288f5761288e614a34565b5b60200260200101515b5b90506128a58282612976565b8784815181106128b8576128b7614a34565b5b602002602001018181525050505080806128d190614b90565b91505061277d565b50600085111561291757836001866128f19190614a00565b8151811061290257612901614a34565b5b6020026020010151965050505050505061296d565b6000861115612949578760008151811061293457612933614a34565b5b6020026020010151965050505050505061296d565b8b8b600081811061295d5761295c614a34565b5b9050602002013596505050505050505b95945050505050565b600081831061298e5761298982846129a1565b612999565b61299883836129a1565b5b905092915050565b600082600052816020526040600020905092915050565b6040518060a00160405280600080191681526020016060815260200160608152602001600073ffffffffffffffffffffffffffffffffffffffff1681526020016000151581525090565b6040518060c0016040528060008019168152602001600080191681526020016000801916815260200160608152602001600073ffffffffffffffffffffffffffffffffffffffff1681526020016000151581525090565b604051806040016040528060008019168152602001606081525090565b6000604051905090565b600080fd5b600080fd5b600073ffffffffffffffffffffffffffffffffffffffff82169050919050565b6000612ab582612a8a565b9050919050565b612ac581612aaa565b8114612ad057600080fd5b50565b600081359050612ae281612abc565b92915050565b600063ffffffff82169050919050565b612b0181612ae8565b8114612b0c57600080fd5b50565b600081359050612b1e81612af8565b92915050565b600080600060608486031215612b3d57612b3c612a80565b5b6000612b4b86828701612ad3565b9350506020612b5c86828701612b0f565b9250506040612b6d86828701612b0f565b9150509250925092565b600081519050919050565b600082825260208201905092915050565b6000819050602082019050919050565b6000819050919050565b6000612bb882612ba3565b9050919050565b612bc881612bad565b82525050565b600081519050919050565b600082825260208201905092915050565b60005b83811015612c08578082015181840152602081019050612bed565b60008484015250505050565b6000601f19601f8301169050919050565b6000612c3082612bce565b612c3a8185612bd9565b9350612c4a818560208601612bea565b612c5381612c14565b840191505092915050565b6000604083016000830151612c766000860182612bbf565b5060208301518482036020860152612c8e8282612c25565b9150508091505092915050565b6000612ca78383612c5e565b905092915050565b6000602082019050919050565b6000612cc782612b77565b612cd18185612b82565b935083602082028501612ce385612b93565b8060005b85811015612d1f5784840389528151612d008582612c9b565b9450612d0b83612caf565b925060208a01995050600181019050612ce7565b50829750879550505050505092915050565b60006020820190508181036000830152612d4b8184612cbc565b905092915050565b612d5c81612ba3565b8114612d6757600080fd5b50565b600081359050612d7981612d53565b92915050565b600060208284031215612d9557612d94612a80565b5b6000612da384828501612d6a565b91505092915050565b612db581612aaa565b82525050565b60008115159050919050565b612dd081612dbb565b82525050565b600060a083016000830151612dee6000860182612bbf565b5060208301518482036020860152612e068282612c25565b91505060408301518482036040860152612e208282612c25565b9150506060830151612e356060860182612dac565b506080830151612e486080860182612dc7565b508091505092915050565b60006020820190508181036000830152612e6d8184612dd6565b905092915050565b600081519050919050565b600082825260208201905092915050565b6000819050602082019050919050565b6000612ead8383612bbf565b60208301905092915050565b6000602082019050919050565b6000612ed182612e75565b612edb8185612e80565b9350612ee683612e91565b8060005b83811015612f17578151612efe8882612ea1565b9750612f0983612eb9565b925050600181019050612eea565b5085935050505092915050565b60006020820190508181036000830152612f3e8184612ec6565b905092915050565b600060ff82169050919050565b612f5c81612f46565b8114612f6757600080fd5b50565b600081359050612f7981612f53565b92915050565b600060208284031215612f9557612f94612a80565b5b6000612fa384828501612f6a565b91505092915050565b612fb581612f46565b82525050565b6000602082019050612fd06000830184612fac565b92915050565b600081519050919050565b600082825260208201905092915050565b6000612ffd82612fd6565b6130078185612fe1565b9350613017818560208601612bea565b61302081612c14565b840191505092915050565b600060c0830160008301516130436000860182612bbf565b5060208301516130566020860182612bbf565b5060408301516130696040860182612bbf565b50606083015184820360608601526130818282612ff2565b91505060808301516130966080860182612dac565b5060a08301516130a960a0860182612dc7565b508091505092915050565b600060208201905081810360008301526130ce818461302b565b905092915050565b6130df81612aaa565b82525050565b60006020820190506130fa60008301846130d6565b92915050565b6000819050919050565b61311381613100565b811461311e57600080fd5b50565b6000813590506131308161310a565b92915050565b600080fd5b7f4e487b7100000000000000000000000000000000000000000000000000000000600052604160045260246000fd5b61317382612c14565b810181811067ffffffffffffffff821117156131925761319161313b565b5b80604052505050565b60006131a5612a76565b90506131b1828261316a565b919050565b600067ffffffffffffffff8211156131d1576131d061313b565b5b602082029050602081019050919050565b600080fd5b600080fd5b600067ffffffffffffffff8211156132075761320661313b565b5b602082029050919050565b6000613225613220846131ec565b61319b565b9050806020840283018581111561323f5761323e6131e2565b5b835b8181101561326857806132548882613121565b845260208401935050602081019050613241565b5050509392505050565b600082601f83011261328757613286613136565b5b6002613294848285613212565b91505092915050565b600067ffffffffffffffff8211156132b8576132b761313b565b5b602082029050919050565b60006132d66132d18461329d565b61319b565b905080604084028301858111156132f0576132ef6131e2565b5b835b8181101561331957806133058882613272565b8452602084019350506040810190506132f2565b5050509392505050565b600082601f83011261333857613337613136565b5b60026133458482856132c3565b91505092915050565b600067ffffffffffffffff8211156133695761336861313b565b5b602082029050919050565b60006133876133828461334e565b61319b565b905080602084028301858111156133a1576133a06131e2565b5b835b818110156133ca57806133b68882613121565b8452602084019350506020810190506133a3565b5050509392505050565b600082601f8301126133e9576133e8613136565b5b60106133f6848285613374565b91505092915050565b60006103008284031215613416576134156131e7565b5b613420608061319b565b9050600061343084828501613272565b600083015250604061344484828501613323565b60208301525060c061345884828501613272565b60408301525061010061346d848285016133d4565b60608301525092915050565b600061348c613487846131b6565b61319b565b90508083825260208201905061030084028301858111156134b0576134af6131e2565b5b835b818110156134da57806134c588826133ff565b845260208401935050610300810190506134b2565b5050509392505050565b600082601f8301126134f9576134f8613136565b5b8135613509848260208601613479565b91505092915050565b6000806040838503121561352957613528612a80565b5b600061353785828601613121565b925050602083013567ffffffffffffffff81111561355857613557612a85565b5b613564858286016134e4565b9150509250929050565b600081519050919050565b600082825260208201905092915050565b6000819050602082019050919050565b600060029050919050565b600081905092915050565b6000819050919050565b6135c381613100565b82525050565b60006135d583836135ba565b60208301905092915050565b6000602082019050919050565b6135f78161359a565b61360181846135a5565b925061360c826135b0565b8060005b8381101561363d57815161362487826135c9565b965061362f836135e1565b925050600181019050613610565b505050505050565b600060029050919050565b600081905092915050565b6000819050919050565b600061367183836135ee565b60408301905092915050565b6000602082019050919050565b61369381613645565b61369d8184613650565b92506136a88261365b565b8060005b838110156136d95781516136c08782613665565b96506136cb8361367d565b9250506001810190506136ac565b505050505050565b600060109050919050565b600081905092915050565b6000819050919050565b6000602082019050919050565b613717816136e1565b61372181846136ec565b925061372c826136f7565b8060005b8381101561375d57815161374487826135c9565b965061374f83613701565b925050600181019050613730565b505050505050565b6103008201600082015161377c60008501826135ee565b50602082015161378f604085018261368a565b5060408201516137a260c08501826135ee565b5060608201516137b661010085018261370e565b50505050565b610320820160008201516137d36000850182613765565b5060208201516137e7610300850182612dc7565b50505050565b60006137f983836137bc565b6103208301905092915050565b6000602082019050919050565b600061381e8261356e565b6138288185613579565b93506138338361358a565b8060005b8381101561386457815161384b88826137ed565b975061385683613806565b925050600181019050613837565b5085935050505092915050565b6000602082019050818103600083015261388b8184613813565b905092915050565b600082825260208201905092915050565b60006138af82612fd6565b6138b98185613893565b93506138c9818560208601612bea565b6138d281612c14565b840191505092915050565b600060208201905081810360008301526138f781846138a4565b905092915050565b600080fd5b60008083601f84011261391a57613919613136565b5b8235905067ffffffffffffffff811115613937576139366138ff565b5b602083019150836020820283011115613953576139526131e2565b5b9250929050565b60008083601f8401126139705761396f613136565b5b8235905067ffffffffffffffff81111561398d5761398c6138ff565b5b6020830191508360208202830111156139a9576139a86131e2565b5b9250929050565b600067ffffffffffffffff8211156139cb576139ca61313b565b5b602082029050602081019050919050565b6139e581612ba3565b81146139f057600080fd5b50565b600081359050613a02816139dc565b92915050565b6000613a1b613a16846139b0565b61319b565b90508083825260208201905060208402830185811115613a3e57613a3d6131e2565b5b835b81811015613a675780613a5388826139f3565b845260208401935050602081019050613a40565b5050509392505050565b600082601f830112613a8657613a85613136565b5b8135613a96848260208601613a08565b91505092915050565b60008060008060008060808789031215613abc57613abb612a80565b5b6000613aca89828a01612d6a565b965050602087013567ffffffffffffffff811115613aeb57613aea612a85565b5b613af789828a01613904565b9550955050604087013567ffffffffffffffff811115613b1a57613b19612a85565b5b613b2689828a0161395a565b9350935050606087013567ffffffffffffffff811115613b4957613b48612a85565b5b613b5589828a01613a71565b9150509295509295509295565b613b6b81612dbb565b82525050565b6000602082019050613b866000830184613b62565b92915050565b60008060408385031215613ba357613ba2612a80565b5b6000613bb185828601612b0f565b9250506020613bc285828601612b0f565b9150509250929050565b60008083601f840112613be257613be1613136565b5b8235905067ffffffffffffffff811115613bff57613bfe6138ff565b5b602083019150836001820283011115613c1b57613c1a6131e2565b5b9250929050565b600080600080600060608688031215613c3e57613c3d612a80565b5b6000613c4c88828901612d6a565b955050602086013567ffffffffffffffff811115613c6d57613c6c612a85565b5b613c7988828901613bcc565b9450945050604086013567ffffffffffffffff811115613c9c57613c9b612a85565b5b613ca888828901613bcc565b92509250509295509295909350565b600080600060608486031215613cd057613ccf612a80565b5b6000613cde86828701612d6a565b9350506020613cef86828701612b0f565b9250506040613d0086828701612b0f565b9150509250925092565b60008060408385031215613d2157613d20612a80565b5b6000613d2f85828601612d6a565b9250506020613d4085828601612d6a565b9150509250929050565b613d5381612bad565b82525050565b6000604082019050613d6e6000830185613d4a565b8181036020830152613d8081846138a4565b90509392505050565b600060208284031215613d9f57613d9e612a80565b5b6000613dad84828501612ad3565b91505092915050565b600082825260208201905092915050565b7f6d6f64656c206f776e6572206e6f7420666f756e640000000000000000000000600082015250565b6000613dfd601583613db6565b9150613e0882613dc7565b602082019050919050565b60006020820190508181036000830152613e2c81613df0565b9050919050565b7f6f6666736574206d757374206265203c206c656e677468206f66206c6973742060008201527f6f66206974656d73000000000000000000000000000000000000000000000000602082015250565b6000613e8f602883613db6565b9150613e9a82613e33565b604082019050919050565b60006020820190508181036000830152613ebe81613e82565b9050919050565b7f6f6666736574206d7573742062652030207768656e206e6f206974656d73206560008201527f7869737400000000000000000000000000000000000000000000000000000000602082015250565b6000613f21602483613db6565b9150613f2c82613ec5565b604082019050919050565b60006020820190508181036000830152613f5081613f14565b9050919050565b7f6c696d6974206d757374206265203e203020616e64203c3d2033300000000000600082015250565b6000613f8d601b83613db6565b9150613f9882613f57565b602082019050919050565b60006020820190508181036000830152613fbc81613f80565b9050919050565b7f4e487b7100000000000000000000000000000000000000000000000000000000600052602260045260246000fd5b6000600282049050600182168061400a57607f821691505b60208210810361401d5761401c613fc3565b5b50919050565b7f6d6f64656c206e6f7420666f756e640000000000000000000000000000000000600082015250565b6000614059600f83613db6565b915061406482614023565b602082019050919050565b600060208201905081810360008301526140888161404c565b9050919050565b7f696e76616c69642070726f766572000000000000000000000000000000000000600082015250565b60006140c5600e83613db6565b91506140d08261408f565b602082019050919050565b600060208201905081810360008301526140f4816140b8565b9050919050565b7f6c656e677468206f66206368616c6c656e6765206d757374206265203c3d203360008201527f3200000000000000000000000000000000000000000000000000000000000000602082015250565b6000614157602183613db6565b9150614162826140fb565b604082019050919050565b600060208201905081810360008301526141868161414a565b9050919050565b7f6f6e6c79206d6f64656c206f776e65722063616e206578656375746500000000600082015250565b60006141c3601c83613db6565b91506141ce8261418d565b602082019050919050565b600060208201905081810360008301526141f2816141b6565b9050919050565b7f636f6d6d6974206e6f7420666f756e6400000000000000000000000000000000600082015250565b600061422f601083613db6565b915061423a826141f9565b602082019050919050565b6000602082019050818103600083015261425e81614222565b9050919050565b60008190508160005260206000209050919050565b60006020601f8301049050919050565b600082821b905092915050565b6000600883026142c77fffffffffffffffffffffffffffffffffffffffffffffffffffffffffffffffff8261428a565b6142d1868361428a565b95508019841693508086168417925050509392505050565b6000819050919050565b600061430e61430961430484613100565b6142e9565b613100565b9050919050565b6000819050919050565b614328836142f3565b61433c61433482614315565b848454614297565b825550505050565b600090565b614351614344565b61435c81848461431f565b505050565b5b8181101561438057614375600082614349565b600181019050614362565b5050565b601f8211156143c55761439681614265565b61439f8461427a565b810160208510156143ae578190505b6143c26143ba8561427a565b830182614361565b50505b505050565b600082821c905092915050565b60006143e8600019846008026143ca565b1980831691505092915050565b600061440183836143d7565b9150826002028217905092915050565b61441a82612fd6565b67ffffffffffffffff8111156144335761443261313b565b5b61443d8254613ff2565b614448828285614384565b600060209050601f83116001811461447b5760008415614469578287015190505b61447385826143f5565b8655506144db565b601f19841661448986614265565b60005b828110156144b15784890151825560018201915060208501945060208101905061448c565b868310156144ce57848901516144ca601f8916826143d7565b8355505b6001600288020188555050505b505050505050565b7f696e76616c6964206c6561766573000000000000000000000000000000000000600082015250565b6000614519600e83613db6565b9150614524826144e3565b602082019050919050565b600060208201905081810360008301526145488161450c565b9050919050565b7f696e76616c6964204d65726b6c652070726f6f66730000000000000000000000600082015250565b6000614585601583613db6565b91506145908261454f565b602082019050919050565b600060208201905081810360008301526145b481614578565b9050919050565b7f656d707479206d6f64656c4e616d650000000000000000000000000000000000600082015250565b60006145f1600f83613db6565b91506145fc826145bb565b602082019050919050565b60006020820190508181036000830152614620816145e4565b9050919050565b7f656d707479206d6f64656c4465736372697074696f6e00000000000000000000600082015250565b600061465d601683613db6565b915061466882614627565b602082019050919050565b6000602082019050818103600083015261468c81614650565b9050919050565b7f6d6f64656c20616c726561647920657869737473000000000000000000000000600082015250565b60006146c9601483613db6565b91506146d482614693565b602082019050919050565b600060208201905081810360008301526146f8816146bc565b9050919050565b60008190508160005260206000209050919050565b601f82111561475557614726816146ff565b61472f8461427a565b8101602085101561473e578190505b61475261474a8561427a565b830182614361565b50505b505050565b61476382612bce565b67ffffffffffffffff81111561477c5761477b61313b565b5b6147868254613ff2565b614791828285614714565b600060209050601f8311600181146147c457600084156147b2578287015190505b6147bc85826143f5565b865550614824565b601f1984166147d2866146ff565b60005b828110156147fa578489015182556001820191506020850194506020810190506147d5565b868310156148175784890151614813601f8916826143d7565b8355505b6001600288020188555050505b505050505050565b600082905092915050565b614841838361482c565b67ffffffffffffffff81111561485a5761485961313b565b5b6148648254613ff2565b61486f828285614714565b6000601f83116001811461489e576000841561488c578287013590505b61489685826143f5565b8655506148fe565b601f1984166148ac866146ff565b60005b828110156148d4578489013582556001820191506020850194506020810190506148af565b868310156148f157848901356148ed601f8916826143d7565b8355505b6001600288020188555050505b50505050505050565b7f4f776e61626c653a206e6577206f776e657220697320746865207a65726f206160008201527f6464726573730000000000000000000000000000000000000000000000000000602082015250565b6000614963602683613db6565b915061496e82614907565b604082019050919050565b6000602082019050818103600083015261499281614956565b9050919050565b7f4e487b7100000000000000000000000000000000000000000000000000000000600052601160045260246000fd5b60006149d382612ae8565b91506149de83612ae8565b9250828201905063ffffffff8111156149fa576149f9614999565b5b92915050565b6000614a0b82613100565b9150614a1683613100565b9250828203905081811115614a2e57614a2d614999565b5b92915050565b7f4e487b7100000000000000000000000000000000000000000000000000000000600052603260045260246000fd5b6000614a6e82612ae8565b915063ffffffff8203614a8457614a83614999565b5b600182019050919050565b7f4f776e61626c653a2063616c6c6572206973206e6f7420746865206f776e6572600082015250565b6000614ac5602083613db6565b9150614ad082614a8f565b602082019050919050565b60006020820190508181036000830152614af481614ab8565b9050919050565b6000819050919050565b614b16614b1182613100565b614afb565b82525050565b60008160601b9050919050565b6000614b3482614b1c565b9050919050565b6000614b4682614b29565b9050919050565b614b5e614b5982612aaa565b614b3b565b82525050565b6000614b708285614b05565b602082019150614b808284614b4d565b6014820191508190509392505050565b6000614b9b82613100565b91507fffffffffffffffffffffffffffffffffffffffffffffffffffffffffffffffff8203614bcd57614bcc614999565b5b600182019050919050565b6000819050919050565b614bf3614bee82612bad565b614bd8565b82525050565b6000614c058286614be2565b602082019150614c158285614be2565b602082019150614c258284614b4d565b601482019150819050949350505050565b7f636f6d6d697420616c7265616479206578697374730000000000000000000000600082015250565b6000614c6c601583613db6565b9150614c7782614c36565b602082019050919050565b60006020820190508181036000830152614c9b81614c5f565b9050919050565b6000614cad82613100565b9150614cb883613100565b9250828201905080821115614cd057614ccf614999565b5b92915050565b7f4d65726b6c6550726f6f663a20696e76616c6964206d756c746970726f6f6600600082015250565b6000614d0c601f83613db6565b9150614d1782614cd6565b602082019050919050565b60006020820190508181036000830152614d3b81614cff565b9050919050565b614d4b81612dbb565b8114614d5657600080fd5b50565b600081359050614d6881614d42565b92915050565b600060208284031215614d8457614d83612a80565b5b6000614d9284828501614d59565b9150509291505056fea2646970667358221220a99186e4b4947b87f8a441693e2387acd6b79e71437d64cfb7fbf269162e693764736f6c63430008110033",
  "linkReferences": {},
  "deployedLinkReferences": {}
}