{
  "_format": "hh-sol-artifact-1",
  "contractName": "Verifier",
  "sourceName": "contracts/src/Verifier.sol",
  "abi": [
    {
      "inputs": [],
      "stateMutability": "nonpayable",
      "type": "constructor"
    },
    {
      "anonymous": false,
      "inputs": [
        {
          "indexed": true,
          "internalType": "address",
          "name": "previousOwner",
          "type": "address"
        },
        {
          "indexed": true,
          "internalType": "address",
          "name": "newOwner",
          "type": "address"
        }
      ],
      "name": "OwnershipTransferred",
      "type": "event"
    },
    {
      "inputs": [
        {
          "internalType": "bytes32",
          "name": "commitmentData",
          "type": "bytes32"
        },
        {
          "internalType": "bytes32",
          "name": "commitmentModel",
          "type": "bytes32"
        },
        {
          "internalType": "bytes32",
          "name": "commitmentResults",
          "type": "bytes32"
        }
      ],
      "name": "commit",
      "outputs": [
        {
          "internalType": "bytes32",
          "name": "c",
          "type": "bytes32"
        }
      ],
      "stateMutability": "nonpayable",
      "type": "function"
    },
    {
      "inputs": [],
      "name": "owner",
      "outputs": [
        {
          "internalType": "address",
          "name": "",
          "type": "address"
        }
      ],
      "stateMutability": "view",
      "type": "function"
    },
    {
      "inputs": [],
      "name": "renounceOwnership",
      "outputs": [],
      "stateMutability": "nonpayable",
      "type": "function"
    },
    {
      "inputs": [
        {
          "components": [
            {
              "components": [
                {
                  "internalType": "bytes32",
                  "name": "value",
                  "type": "bytes32"
                }
              ],
              "internalType": "struct IVerifier.Node",
              "name": "node",
              "type": "tuple"
            },
            {
              "components": [
                {
                  "internalType": "bytes32",
                  "name": "value",
                  "type": "bytes32"
                }
              ],
              "internalType": "struct IVerifier.Node[]",
              "name": "merklePath",
              "type": "tuple[]"
            }
          ],
          "internalType": "struct IVerifier.MerkleProof[]",
          "name": "merkleProofs",
          "type": "tuple[]"
        }
      ],
      "name": "reveal",
      "outputs": [
        {
          "components": [
            {
              "internalType": "bytes32",
              "name": "value",
              "type": "bytes32"
            }
          ],
          "internalType": "struct IVerifier.Node[]",
          "name": "verifiedNodes",
          "type": "tuple[]"
        }
      ],
      "stateMutability": "view",
      "type": "function"
    },
    {
      "inputs": [
        {
          "internalType": "address",
          "name": "newOwner",
          "type": "address"
        }
      ],
      "name": "transferOwnership",
      "outputs": [],
      "stateMutability": "nonpayable",
      "type": "function"
    },
    {
      "inputs": [
        {
          "components": [
            {
              "internalType": "uint256[2]",
              "name": "a",
              "type": "uint256[2]"
            },
            {
              "internalType": "uint256[2][2]",
              "name": "b",
              "type": "uint256[2][2]"
            },
            {
              "internalType": "uint256[2]",
              "name": "c",
              "type": "uint256[2]"
            },
            {
              "internalType": "uint256[16]",
              "name": "input",
              "type": "uint256[16]"
            }
          ],
          "internalType": "struct IVerifier.Zkp[]",
          "name": "zkps",
          "type": "tuple[]"
        }
      ],
      "name": "verify",
      "outputs": [
        {
          "components": [
            {
              "components": [
                {
                  "internalType": "uint256[2]",
                  "name": "a",
                  "type": "uint256[2]"
                },
                {
                  "internalType": "uint256[2][2]",
                  "name": "b",
                  "type": "uint256[2][2]"
                },
                {
                  "internalType": "uint256[2]",
                  "name": "c",
                  "type": "uint256[2]"
                },
                {
                  "internalType": "uint256[16]",
                  "name": "input",
                  "type": "uint256[16]"
                }
              ],
              "internalType": "struct IVerifier.Zkp",
              "name": "zkp",
              "type": "tuple"
            },
            {
              "internalType": "bool",
              "name": "isValid",
              "type": "bool"
            }
          ],
          "internalType": "struct IVerifier.ZkpWithValidity[]",
          "name": "results",
          "type": "tuple[]"
        }
      ],
      "stateMutability": "nonpayable",
      "type": "function"
    }
  ],
  "bytecode": "0x608060405234801561001057600080fd5b5061002d61002261003260201b60201c565b61003a60201b60201c565b6100fe565b600033905090565b60008060009054906101000a900473ffffffffffffffffffffffffffffffffffffffff169050816000806101000a81548173ffffffffffffffffffffffffffffffffffffffff021916908373ffffffffffffffffffffffffffffffffffffffff1602179055508173ffffffffffffffffffffffffffffffffffffffff168173ffffffffffffffffffffffffffffffffffffffff167f8be0079c531659141344cd1fd0a4f28419497f9722a3daafe3b4186f6b6457e060405160405180910390a35050565b610f6e8061010d6000396000f3fe608060405234801561001057600080fd5b50600436106100625760003560e01c80635010cc2b14610067578063715018a6146100975780638da5cb5b146100a1578063b71ecdc3146100bf578063e4e5b258146100ef578063f2fde38b1461011f575b600080fd5b610081600480360381019061007c91906103d6565b61013b565b60405161008e9190610507565b60405180910390f35b61009f610143565b005b6100a9610157565b6040516100b6919061056a565b60405180910390f35b6100d960048036038101906100d4919061099e565b610180565b6040516100e69190610d05565b60405180910390f35b61010960048036038101906101049190610d53565b610187565b6040516101169190610db5565b60405180910390f35b61013960048036038101906101349190610dfc565b610190565b005b606092915050565b61014b610213565b6101556000610291565b565b60008060009054906101000a900473ffffffffffffffffffffffffffffffffffffffff16905090565b6060919050565b60009392505050565b610198610213565b600073ffffffffffffffffffffffffffffffffffffffff168173ffffffffffffffffffffffffffffffffffffffff1603610207576040517f08c379a00000000000000000000000000000000000000000000000000000000081526004016101fe90610eac565b60405180910390fd5b61021081610291565b50565b61021b610355565b73ffffffffffffffffffffffffffffffffffffffff16610239610157565b73ffffffffffffffffffffffffffffffffffffffff161461028f576040517f08c379a000000000000000000000000000000000000000000000000000000000815260040161028690610f18565b60405180910390fd5b565b60008060009054906101000a900473ffffffffffffffffffffffffffffffffffffffff169050816000806101000a81548173ffffffffffffffffffffffffffffffffffffffff021916908373ffffffffffffffffffffffffffffffffffffffff1602179055508173ffffffffffffffffffffffffffffffffffffffff168173ffffffffffffffffffffffffffffffffffffffff167f8be0079c531659141344cd1fd0a4f28419497f9722a3daafe3b4186f6b6457e060405160405180910390a35050565b600033905090565b6000604051905090565b600080fd5b600080fd5b600080fd5b600080fd5b600080fd5b60008083601f84011261039657610395610371565b5b8235905067ffffffffffffffff8111156103b3576103b2610376565b5b6020830191508360208202830111156103cf576103ce61037b565b5b9250929050565b600080602083850312156103ed576103ec610367565b5b600083013567ffffffffffffffff81111561040b5761040a61036c565b5b61041785828601610380565b92509250509250929050565b600081519050919050565b600082825260208201905092915050565b6000819050602082019050919050565b6000819050919050565b6104628161044f565b82525050565b60208201600082015161047e6000850182610459565b50505050565b60006104908383610468565b60208301905092915050565b6000602082019050919050565b60006104b482610423565b6104be818561042e565b93506104c98361043f565b8060005b838110156104fa5781516104e18882610484565b97506104ec8361049c565b9250506001810190506104cd565b5085935050505092915050565b6000602082019050818103600083015261052181846104a9565b905092915050565b600073ffffffffffffffffffffffffffffffffffffffff82169050919050565b600061055482610529565b9050919050565b61056481610549565b82525050565b600060208201905061057f600083018461055b565b92915050565b6000601f19601f8301169050919050565b7f4e487b7100000000000000000000000000000000000000000000000000000000600052604160045260246000fd5b6105ce82610585565b810181811067ffffffffffffffff821117156105ed576105ec610596565b5b80604052505050565b600061060061035d565b905061060c82826105c5565b919050565b600067ffffffffffffffff82111561062c5761062b610596565b5b602082029050602081019050919050565b600080fd5b600067ffffffffffffffff82111561065d5761065c610596565b5b602082029050919050565b6000819050919050565b61067b81610668565b811461068657600080fd5b50565b60008135905061069881610672565b92915050565b60006106b16106ac84610642565b6105f6565b905080602084028301858111156106cb576106ca61037b565b5b835b818110156106f457806106e08882610689565b8452602084019350506020810190506106cd565b5050509392505050565b600082601f83011261071357610712610371565b5b600261072084828561069e565b91505092915050565b600067ffffffffffffffff82111561074457610743610596565b5b602082029050919050565b600061076261075d84610729565b6105f6565b9050806040840283018581111561077c5761077b61037b565b5b835b818110156107a5578061079188826106fe565b84526020840193505060408101905061077e565b5050509392505050565b600082601f8301126107c4576107c3610371565b5b60026107d184828561074f565b91505092915050565b600067ffffffffffffffff8211156107f5576107f4610596565b5b602082029050919050565b600061081361080e846107da565b6105f6565b9050806020840283018581111561082d5761082c61037b565b5b835b8181101561085657806108428882610689565b84526020840193505060208101905061082f565b5050509392505050565b600082601f83011261087557610874610371565b5b6010610882848285610800565b91505092915050565b600061030082840312156108a2576108a161063d565b5b6108ac60806105f6565b905060006108bc848285016106fe565b60008301525060406108d0848285016107af565b60208301525060c06108e4848285016106fe565b6040830152506101006108f984828501610860565b60608301525092915050565b600061091861091384610611565b6105f6565b905080838252602082019050610300840283018581111561093c5761093b61037b565b5b835b818110156109665780610951888261088b565b8452602084019350506103008101905061093e565b5050509392505050565b600082601f83011261098557610984610371565b5b8135610995848260208601610905565b91505092915050565b6000602082840312156109b4576109b3610367565b5b600082013567ffffffffffffffff8111156109d2576109d161036c565b5b6109de84828501610970565b91505092915050565b600081519050919050565b600082825260208201905092915050565b6000819050602082019050919050565b600060029050919050565b600081905092915050565b6000819050919050565b610a3c81610668565b82525050565b6000610a4e8383610a33565b60208301905092915050565b6000602082019050919050565b610a7081610a13565b610a7a8184610a1e565b9250610a8582610a29565b8060005b83811015610ab6578151610a9d8782610a42565b9650610aa883610a5a565b925050600181019050610a89565b505050505050565b600060029050919050565b600081905092915050565b6000819050919050565b6000610aea8383610a67565b60408301905092915050565b6000602082019050919050565b610b0c81610abe565b610b168184610ac9565b9250610b2182610ad4565b8060005b83811015610b52578151610b398782610ade565b9650610b4483610af6565b925050600181019050610b25565b505050505050565b600060109050919050565b600081905092915050565b6000819050919050565b6000602082019050919050565b610b9081610b5a565b610b9a8184610b65565b9250610ba582610b70565b8060005b83811015610bd6578151610bbd8782610a42565b9650610bc883610b7a565b925050600181019050610ba9565b505050505050565b61030082016000820151610bf56000850182610a67565b506020820151610c086040850182610b03565b506040820151610c1b60c0850182610a67565b506060820151610c2f610100850182610b87565b50505050565b60008115159050919050565b610c4a81610c35565b82525050565b61032082016000820151610c676000850182610bde565b506020820151610c7b610300850182610c41565b50505050565b6000610c8d8383610c50565b6103208301905092915050565b6000602082019050919050565b6000610cb2826109e7565b610cbc81856109f2565b9350610cc783610a03565b8060005b83811015610cf8578151610cdf8882610c81565b9750610cea83610c9a565b925050600181019050610ccb565b5085935050505092915050565b60006020820190508181036000830152610d1f8184610ca7565b905092915050565b610d308161044f565b8114610d3b57600080fd5b50565b600081359050610d4d81610d27565b92915050565b600080600060608486031215610d6c57610d6b610367565b5b6000610d7a86828701610d3e565b9350506020610d8b86828701610d3e565b9250506040610d9c86828701610d3e565b9150509250925092565b610daf8161044f565b82525050565b6000602082019050610dca6000830184610da6565b92915050565b610dd981610549565b8114610de457600080fd5b50565b600081359050610df681610dd0565b92915050565b600060208284031215610e1257610e11610367565b5b6000610e2084828501610de7565b91505092915050565b600082825260208201905092915050565b7f4f776e61626c653a206e6577206f776e657220697320746865207a65726f206160008201527f6464726573730000000000000000000000000000000000000000000000000000602082015250565b6000610e96602683610e29565b9150610ea182610e3a565b604082019050919050565b60006020820190508181036000830152610ec581610e89565b9050919050565b7f4f776e61626c653a2063616c6c6572206973206e6f7420746865206f776e6572600082015250565b6000610f02602083610e29565b9150610f0d82610ecc565b602082019050919050565b60006020820190508181036000830152610f3181610ef5565b905091905056fea2646970667358221220a96011e1ff8d9cb443fcc757c9127fe5e94e3850cbdadfec39b925bbac45c93c64736f6c63430008110033",
  "linkReferences": {},
  "deployedLinkReferences": {}
}