{
  "_format": "hh-sol-artifact-1",
  "contractName": "Verifier",
  "sourceName": "contracts/src/Verifier.sol",
  "abi": [
    {
      "inputs": [
        {
          "internalType": "uint8",
          "name": "_challengeLength",
          "type": "uint8"
        }
      ],
      "stateMutability": "nonpayable",
      "type": "constructor"
    },
    {
      "anonymous": false,
      "inputs": [
        {
          "indexed": true,
          "internalType": "IVerifier.Hash",
          "name": "commitId",
          "type": "bytes32"
        },
        {
          "indexed": true,
          "internalType": "address",
          "name": "proverAddress",
          "type": "address"
        }
      ],
      "name": "ChallengeUpdated",
      "type": "event"
    },
    {
      "anonymous": false,
      "inputs": [
        {
          "indexed": true,
          "internalType": "IVerifier.Hash",
          "name": "commitId",
          "type": "bytes32"
        },
        {
          "indexed": true,
          "internalType": "address",
          "name": "proverAddress",
          "type": "address"
        }
      ],
      "name": "CommitAdded",
      "type": "event"
    },
    {
      "anonymous": false,
      "inputs": [
        {
          "indexed": true,
          "internalType": "IVerifier.Hash",
          "name": "commitId",
          "type": "bytes32"
        },
        {
          "indexed": true,
          "internalType": "address",
          "name": "proverAddress",
          "type": "address"
        }
      ],
      "name": "CommitRevealed",
      "type": "event"
    },
    {
      "anonymous": false,
      "inputs": [
        {
          "indexed": true,
          "internalType": "IVerifier.Hash",
          "name": "contentId",
          "type": "bytes32"
        },
        {
          "indexed": true,
          "internalType": "address",
          "name": "ownerAddress",
          "type": "address"
        }
      ],
      "name": "ModelDisabled",
      "type": "event"
    },
    {
      "anonymous": false,
      "inputs": [
        {
          "indexed": true,
          "internalType": "IVerifier.Hash",
          "name": "contentId",
          "type": "bytes32"
        },
        {
          "indexed": true,
          "internalType": "address",
          "name": "ownerAddress",
          "type": "address"
        }
      ],
      "name": "ModelRegistered",
      "type": "event"
    },
    {
      "anonymous": false,
      "inputs": [
        {
          "indexed": true,
          "internalType": "IVerifier.Hash",
          "name": "contentId",
          "type": "bytes32"
        },
        {
          "indexed": true,
          "internalType": "address",
          "name": "ownerAddress",
          "type": "address"
        },
        {
          "indexed": false,
          "internalType": "string",
          "name": "name",
          "type": "string"
        },
        {
          "indexed": false,
          "internalType": "string",
          "name": "description",
          "type": "string"
        }
      ],
      "name": "ModelUpdated",
      "type": "event"
    },
    {
      "anonymous": false,
      "inputs": [
        {
          "indexed": true,
          "internalType": "address",
          "name": "previousOwner",
          "type": "address"
        },
        {
          "indexed": true,
          "internalType": "address",
          "name": "newOwner",
          "type": "address"
        }
      ],
      "name": "OwnershipTransferred",
      "type": "event"
    },
    {
      "inputs": [
        {
          "internalType": "IVerifier.Hash",
          "name": "_modelContentId",
          "type": "bytes32"
        },
        {
          "internalType": "IVerifier.Hash",
          "name": "_merkleRoot",
          "type": "bytes32"
        }
      ],
      "name": "commit",
      "outputs": [
        {
          "internalType": "IVerifier.Hash",
          "name": "commitId",
          "type": "bytes32"
        },
        {
          "internalType": "bytes",
          "name": "challenge",
          "type": "bytes"
        }
      ],
      "stateMutability": "nonpayable",
      "type": "function"
    },
    {
      "inputs": [
        {
          "internalType": "IVerifier.Hash",
          "name": "modelContentId",
          "type": "bytes32"
        }
      ],
      "name": "disableModel",
      "outputs": [],
      "stateMutability": "nonpayable",
      "type": "function"
    },
    {
      "inputs": [],
      "name": "getChallengeLength",
      "outputs": [
        {
          "internalType": "uint8",
          "name": "",
          "type": "uint8"
        }
      ],
      "stateMutability": "view",
      "type": "function"
    },
    {
      "inputs": [
        {
          "internalType": "IVerifier.Hash",
          "name": "_commitId",
          "type": "bytes32"
        }
      ],
      "name": "getCommit",
      "outputs": [
        {
          "components": [
            {
              "internalType": "IVerifier.Hash",
              "name": "id",
              "type": "bytes32"
            },
            {
              "internalType": "IVerifier.Hash",
              "name": "modelContentId",
              "type": "bytes32"
            },
            {
              "internalType": "IVerifier.Hash",
              "name": "merkleRoot",
              "type": "bytes32"
            },
            {
              "internalType": "bytes",
              "name": "challenge",
              "type": "bytes"
            },
            {
              "internalType": "address",
              "name": "proverAddress",
              "type": "address"
            },
            {
              "internalType": "bool",
              "name": "isRevealed",
              "type": "bool"
            }
          ],
          "internalType": "struct IVerifier.Commit",
          "name": "",
          "type": "tuple"
        }
      ],
      "stateMutability": "view",
      "type": "function"
    },
    {
      "inputs": [
        {
          "internalType": "IVerifier.Hash",
          "name": "_modelContentId",
          "type": "bytes32"
        },
        {
          "internalType": "uint32",
          "name": "_offset",
          "type": "uint32"
        },
        {
          "internalType": "uint32",
          "name": "_limit",
          "type": "uint32"
        }
      ],
      "name": "getCommitsOfModel",
      "outputs": [
        {
          "internalType": "IVerifier.Hash[]",
          "name": "",
          "type": "bytes32[]"
        }
      ],
      "stateMutability": "view",
      "type": "function"
    },
    {
      "inputs": [
        {
          "internalType": "address",
          "name": "_proverAddress",
          "type": "address"
        },
        {
          "internalType": "uint32",
          "name": "_offset",
          "type": "uint32"
        },
        {
          "internalType": "uint32",
          "name": "_limit",
          "type": "uint32"
        }
      ],
      "name": "getCommitsOfProver",
      "outputs": [
        {
          "internalType": "IVerifier.Hash[]",
          "name": "",
          "type": "bytes32[]"
        }
      ],
      "stateMutability": "view",
      "type": "function"
    },
    {
      "inputs": [
        {
          "internalType": "IVerifier.Hash",
          "name": "modelContentId",
          "type": "bytes32"
        }
      ],
      "name": "getModel",
      "outputs": [
        {
          "components": [
            {
              "internalType": "IVerifier.Hash",
              "name": "contentId",
              "type": "bytes32"
            },
            {
              "internalType": "string",
              "name": "name",
              "type": "string"
            },
            {
              "internalType": "string",
              "name": "description",
              "type": "string"
            },
            {
              "internalType": "address",
              "name": "ownerAddress",
              "type": "address"
            },
            {
              "internalType": "bool",
              "name": "isDisabled",
              "type": "bool"
            }
          ],
          "internalType": "struct IVerifier.Model",
          "name": "model",
          "type": "tuple"
        }
      ],
      "stateMutability": "view",
      "type": "function"
    },
    {
      "inputs": [
        {
          "internalType": "uint32",
          "name": "offset",
          "type": "uint32"
        },
        {
          "internalType": "uint32",
          "name": "limit",
          "type": "uint32"
        }
      ],
      "name": "getModels",
      "outputs": [
        {
          "components": [
            {
              "internalType": "IVerifier.Hash",
              "name": "contentId",
              "type": "bytes32"
            },
            {
              "internalType": "string",
              "name": "name",
              "type": "string"
            }
          ],
          "internalType": "struct IVerifier.ModelArrayElement[]",
          "name": "paginatedModels",
          "type": "tuple[]"
        }
      ],
      "stateMutability": "view",
      "type": "function"
    },
    {
      "inputs": [
        {
          "internalType": "address",
          "name": "ownerAddress",
          "type": "address"
        },
        {
          "internalType": "uint32",
          "name": "offset",
          "type": "uint32"
        },
        {
          "internalType": "uint32",
          "name": "limit",
          "type": "uint32"
        }
      ],
      "name": "getModelsByOwnerAddress",
      "outputs": [
        {
          "components": [
            {
              "internalType": "IVerifier.Hash",
              "name": "contentId",
              "type": "bytes32"
            },
            {
              "internalType": "string",
              "name": "name",
              "type": "string"
            }
          ],
          "internalType": "struct IVerifier.ModelArrayElement[]",
          "name": "paginatedModels",
          "type": "tuple[]"
        }
      ],
      "stateMutability": "view",
      "type": "function"
    },
    {
      "inputs": [],
      "name": "owner",
      "outputs": [
        {
          "internalType": "address",
          "name": "",
          "type": "address"
        }
      ],
      "stateMutability": "view",
      "type": "function"
    },
    {
      "inputs": [
        {
          "internalType": "IVerifier.Hash",
          "name": "modelContentId",
          "type": "bytes32"
        },
        {
          "internalType": "string",
          "name": "modelName",
          "type": "string"
        },
        {
          "internalType": "string",
          "name": "modelDescription",
          "type": "string"
        }
      ],
      "name": "registerModel",
      "outputs": [
        {
          "components": [
            {
              "internalType": "IVerifier.Hash",
              "name": "contentId",
              "type": "bytes32"
            },
            {
              "internalType": "string",
              "name": "name",
              "type": "string"
            },
            {
              "internalType": "string",
              "name": "description",
              "type": "string"
            },
            {
              "internalType": "address",
              "name": "ownerAddress",
              "type": "address"
            },
            {
              "internalType": "bool",
              "name": "isDisabled",
              "type": "bool"
            }
          ],
          "internalType": "struct IVerifier.Model",
          "name": "model",
          "type": "tuple"
        }
      ],
      "stateMutability": "nonpayable",
      "type": "function"
    },
    {
      "inputs": [],
      "name": "renounceOwnership",
      "outputs": [],
      "stateMutability": "nonpayable",
      "type": "function"
    },
    {
      "inputs": [
        {
          "internalType": "IVerifier.Hash",
          "name": "_commitId",
          "type": "bytes32"
        },
        {
          "internalType": "bytes32[]",
          "name": "_merkleProofs",
          "type": "bytes32[]"
        },
        {
          "internalType": "bool[]",
          "name": "_proofFlags",
          "type": "bool[]"
        },
        {
          "internalType": "bytes32[]",
          "name": "_leaves",
          "type": "bytes32[]"
        }
      ],
      "name": "reveal",
      "outputs": [
        {
          "internalType": "bool",
          "name": "commitRevealed",
          "type": "bool"
        }
      ],
      "stateMutability": "nonpayable",
      "type": "function"
    },
    {
      "inputs": [
        {
          "internalType": "address",
          "name": "newOwner",
          "type": "address"
        }
      ],
      "name": "transferOwnership",
      "outputs": [],
      "stateMutability": "nonpayable",
      "type": "function"
    },
    {
      "inputs": [
        {
          "internalType": "IVerifier.Hash",
          "name": "_commitId",
          "type": "bytes32"
        }
      ],
      "name": "updateChallenge",
      "outputs": [
        {
          "internalType": "bytes",
          "name": "challenge",
          "type": "bytes"
        }
      ],
      "stateMutability": "nonpayable",
      "type": "function"
    },
    {
      "inputs": [
        {
          "internalType": "uint8",
          "name": "_challengeLength",
          "type": "uint8"
        }
      ],
      "name": "updateChallengeLength",
      "outputs": [],
      "stateMutability": "nonpayable",
      "type": "function"
    },
    {
      "inputs": [
        {
          "internalType": "IVerifier.Hash",
          "name": "modelContentId",
          "type": "bytes32"
        },
        {
          "internalType": "string",
          "name": "modelName",
          "type": "string"
        },
        {
          "internalType": "string",
          "name": "modelDescription",
          "type": "string"
        }
      ],
      "name": "updateModel",
      "outputs": [],
      "stateMutability": "nonpayable",
      "type": "function"
    },
    {
      "inputs": [
        {
          "internalType": "uint256",
          "name": "commitmentId",
          "type": "uint256"
        },
        {
          "components": [
            {
              "internalType": "uint256[2]",
              "name": "a",
              "type": "uint256[2]"
            },
            {
              "internalType": "uint256[2][2]",
              "name": "b",
              "type": "uint256[2][2]"
            },
            {
              "internalType": "uint256[2]",
              "name": "c",
              "type": "uint256[2]"
            },
            {
              "internalType": "uint256[16]",
              "name": "input",
              "type": "uint256[16]"
            }
          ],
          "internalType": "struct IVerifier.Zkp[]",
          "name": "zkps",
          "type": "tuple[]"
        }
      ],
      "name": "verify",
      "outputs": [
        {
          "components": [
            {
              "components": [
                {
                  "internalType": "uint256[2]",
                  "name": "a",
                  "type": "uint256[2]"
                },
                {
                  "internalType": "uint256[2][2]",
                  "name": "b",
                  "type": "uint256[2][2]"
                },
                {
                  "internalType": "uint256[2]",
                  "name": "c",
                  "type": "uint256[2]"
                },
                {
                  "internalType": "uint256[16]",
                  "name": "input",
                  "type": "uint256[16]"
                }
              ],
              "internalType": "struct IVerifier.Zkp",
              "name": "zkp",
              "type": "tuple"
            },
            {
              "internalType": "bool",
              "name": "isValid",
              "type": "bool"
            }
          ],
          "internalType": "struct IVerifier.ZkpWithValidity[]",
          "name": "zkpVerifications",
          "type": "tuple[]"
        }
      ],
      "stateMutability": "nonpayable",
      "type": "function"
    }
  ],
  "bytecode": "0x60806040523480156200001157600080fd5b5060405162006f7938038062006f798339818101604052810190620000379190620001c3565b620000576200004b620000b160201b60201c565b620000b960201b60201c565b62000073679836f4536d56b40d60c01b6200017d60201b60201c565b6200008f674520273506aa254860c01b6200017d60201b60201c565b80600060146101000a81548160ff021916908360ff16021790555050620001f5565b600033905090565b60008060009054906101000a900473ffffffffffffffffffffffffffffffffffffffff169050816000806101000a81548173ffffffffffffffffffffffffffffffffffffffff021916908373ffffffffffffffffffffffffffffffffffffffff1602179055508173ffffffffffffffffffffffffffffffffffffffff168173ffffffffffffffffffffffffffffffffffffffff167f8be0079c531659141344cd1fd0a4f28419497f9722a3daafe3b4186f6b6457e060405160405180910390a35050565b50565b600080fd5b600060ff82169050919050565b6200019d8162000185565b8114620001a957600080fd5b50565b600081519050620001bd8162000192565b92915050565b600060208284031215620001dc57620001db62000180565b5b6000620001ec84828501620001ac565b91505092915050565b616d7480620002056000396000f3fe608060405234801561001057600080fd5b50600436106101165760003560e01c80638e6906f0116100a2578063c46bfb1f11610071578063c46bfb1f14610319578063c6ce1e9514610349578063d7c7e94814610379578063e3ce094d14610395578063f2fde38b146103c657610116565b80638e6906f01461025957806398611507146102895780639cc49954146102b95780639d3a2407146102e957610116565b80636e1d2e2b116100e95780636e1d2e2b146101c757806370bca450146101e5578063715018a6146102015780638784ea961461020b5780638da5cb5b1461023b57610116565b8063109656fb1461011b57806321e7c4981461014b57806354eda9281461017b57806358c90698146101ab575b600080fd5b61013560048036038101906101309190614ac7565b6103e2565b6040516101429190614cd4565b60405180910390f35b61016560048036038101906101609190614d22565b61090c565b6040516101729190614df6565b60405180910390f35b61019560048036038101906101909190614ac7565b610c1b565b6040516101a29190614ec7565b60405180910390f35b6101c560048036038101906101c09190614f22565b61112e565b005b6101cf61123b565b6040516101dc9190614f5e565b60405180910390f35b6101ff60048036038101906101fa9190614d22565b6112be565b005b610209611565565b005b61022560048036038101906102209190614d22565b611579565b6040516102329190615057565b60405180910390f35b61024361182e565b6040516102509190615088565b60405180910390f35b610273600480360381019061026e91906154b5565b611857565b6040516102809190615814565b60405180910390f35b6102a3600480360381019061029e9190614d22565b611873565b6040516102b09190615880565b60405180910390f35b6102d360048036038101906102ce9190615a42565b611be3565b6040516102e09190615b14565b60405180910390f35b61030360048036038101906102fe9190615b2f565b6121cd565b6040516103109190614cd4565b60405180910390f35b610333600480360381019061032e9190615bc5565b612555565b6040516103409190614df6565b60405180910390f35b610363600480360381019061035e9190615c5a565b612ae6565b6040516103709190614ec7565b60405180910390f35b610393600480360381019061038e9190615bc5565b612fc8565b005b6103af60048036038101906103aa9190615cad565b613427565b6040516103bd929190615cfc565b60405180910390f35b6103e060048036038101906103db9190615d2c565b61385e565b005b60606103f8677cf38d778cfbce8260c01b6138e1565b8361040d6713da2aa12dd51aa660c01b6138e1565b610421676e18e7a4d431dfe560c01b6138e1565b610435678a76349fef93265f60c01b6138e1565b610449672e3cb4ba7f85fe8a60c01b6138e1565b6000600260008373ffffffffffffffffffffffffffffffffffffffff1673ffffffffffffffffffffffffffffffffffffffff16815260200190815260200160002080549050036104ce576040517f08c379a00000000000000000000000000000000000000000000000000000000081526004016104c590615db6565b60405180910390fd5b6104e26796dd9f382e9a4ca860c01b6138e1565b6104f6676e63d096656e3d9260c01b6138e1565b61050a67de1f685072fa682660c01b6138e1565b61051e67299d728fc1e257ca60c01b6138e1565b83600260008773ffffffffffffffffffffffffffffffffffffffff1673ffffffffffffffffffffffffffffffffffffffff16815260200190815260200160002080549050610576672900e8ea984f488d60c01b6138e1565b61058a67f5140dfa28cec81e60c01b6138e1565b61059e67328c191b3dea2bd160c01b6138e1565b6000811115610658576105bb67844d35ce68842adf60c01b6138e1565b6105cf6759fe9202ae18805860c01b6138e1565b6105e367c20be8a1a7dc792f60c01b6138e1565b6105f767f5faa16d7a33c45a60c01b6138e1565b808263ffffffff161061063f576040517f08c379a000000000000000000000000000000000000000000000000000000000815260040161063690615e48565b60405180910390fd5b6106536736d565c7209a3af560c01b6138e1565b610706565b61066c674dc8f825de9aa5b760c01b6138e1565b61068067bd9ff7cc5365914660c01b6138e1565b6106946714e528bcd55ec57c60c01b6138e1565b6106a86756aa281969cea1d360c01b6138e1565b60008263ffffffff16146106f1576040517f08c379a00000000000000000000000000000000000000000000000000000000081526004016106e890615eda565b60405180910390fd5b61070567a669d4e7283d9f9260c01b6138e1565b5b61071a67a8fb3693cad80a0160c01b6138e1565b61072e67b4ddaa283a644dcf60c01b6138e1565b61074267f4f474311e67af3760c01b6138e1565b8461075767ab4f022c95b3d12860c01b6138e1565b61076b677ad603de1907658360c01b6138e1565b61077f67782d0f28bca659cc60c01b6138e1565b61079367dd5c54fd05dc3c1160c01b6138e1565b60008163ffffffff161180156107b05750601e8163ffffffff1611155b6107ef576040517f08c379a00000000000000000000000000000000000000000000000000000000081526004016107e690615f46565b60405180910390fd5b61080367dbe887293b94febd60c01b6138e1565b61081767980af2edaafd35c860c01b6138e1565b61082b678483bf98b7396b9a60c01b6138e1565b61083f679c1604d9ed1d236060c01b6138e1565b610853679b37f206777b348860c01b6138e1565b61086767ce5fa58dcbd62f0260c01b6138e1565b6108ff600260008a73ffffffffffffffffffffffffffffffffffffffff1673ffffffffffffffffffffffffffffffffffffffff1681526020019081526020016000208054806020026020016040519081016040528092919081815260200182805480156108f357602002820191906000526020600020905b8154815260200190600101908083116108df575b505050505088886138e4565b9450505050509392505050565b61091461495b565b61092867f44c36d8bd52a9c260c01b6138e1565b8161093d6779dfad83ed196b3960c01b6138e1565b610951674c75fcd8a804f78460c01b6138e1565b61096567fa86f09466a72db160c01b6138e1565b61097967642d2badd465c33460c01b6138e1565b600060036000838152602001908152602001600020600101805461099c90615f95565b9050036109de576040517f08c379a00000000000000000000000000000000000000000000000000000000081526004016109d590616012565b60405180910390fd5b6109f267a1956c7cbc9e1b3360c01b6138e1565b610a06674f8d11af17e9c98260c01b6138e1565b610a1a67760fed31ec18c70f60c01b6138e1565b610a2e67813ef989ccc6e98460c01b6138e1565b610a4267502b435cbeefb33560c01b6138e1565b610a56678e49449630409cfe60c01b6138e1565b600360008481526020019081526020016000206040518060a001604052908160008201548152602001600182018054610a8e90615f95565b80601f0160208091040260200160405190810160405280929190818152602001828054610aba90615f95565b8015610b075780601f10610adc57610100808354040283529160200191610b07565b820191906000526020600020905b815481529060010190602001808311610aea57829003601f168201915b50505050508152602001600282018054610b2090615f95565b80601f0160208091040260200160405190810160405280929190818152602001828054610b4c90615f95565b8015610b995780601f10610b6e57610100808354040283529160200191610b99565b820191906000526020600020905b815481529060010190602001808311610b7c57829003601f168201915b505050505081526020016003820160009054906101000a900473ffffffffffffffffffffffffffffffffffffffff1673ffffffffffffffffffffffffffffffffffffffff1673ffffffffffffffffffffffffffffffffffffffff1681526020016003820160149054906101000a900460ff161515151581525050915050919050565b6060610c3167f2cce8d590a8074b60c01b6138e1565b82600560008673ffffffffffffffffffffffffffffffffffffffff1673ffffffffffffffffffffffffffffffffffffffff16815260200190815260200160002080549050610c89672900e8ea984f488d60c01b6138e1565b610c9d67f5140dfa28cec81e60c01b6138e1565b610cb167328c191b3dea2bd160c01b6138e1565b6000811115610d6b57610cce67844d35ce68842adf60c01b6138e1565b610ce26759fe9202ae18805860c01b6138e1565b610cf667c20be8a1a7dc792f60c01b6138e1565b610d0a67f5faa16d7a33c45a60c01b6138e1565b808263ffffffff1610610d52576040517f08c379a0000000000000000000000000000000000000000000000000000000008152600401610d4990615e48565b60405180910390fd5b610d666736d565c7209a3af560c01b6138e1565b610e19565b610d7f674dc8f825de9aa5b760c01b6138e1565b610d9367bd9ff7cc5365914660c01b6138e1565b610da76714e528bcd55ec57c60c01b6138e1565b610dbb6756aa281969cea1d360c01b6138e1565b60008263ffffffff1614610e04576040517f08c379a0000000000000000000000000000000000000000000000000000000008152600401610dfb90615eda565b60405180910390fd5b610e1867a669d4e7283d9f9260c01b6138e1565b5b610e2d67a8fb3693cad80a0160c01b6138e1565b610e416756ab23b775f3a0a660c01b6138e1565b610e55675dcbdaf64f9cf7b560c01b6138e1565b83610e6a67ab4f022c95b3d12860c01b6138e1565b610e7e677ad603de1907658360c01b6138e1565b610e9267782d0f28bca659cc60c01b6138e1565b610ea667dd5c54fd05dc3c1160c01b6138e1565b60008163ffffffff16118015610ec35750601e8163ffffffff1611155b610f02576040517f08c379a0000000000000000000000000000000000000000000000000000000008152600401610ef990615f46565b60405180910390fd5b610f1667dbe887293b94febd60c01b6138e1565b610f2a67980af2edaafd35c860c01b6138e1565b610f3e674c5c9e008734baba60c01b6138e1565b610f5267945dad79a5921a0060c01b6138e1565b86610f676786663f83d8cd303b60c01b6138e1565b610f7b67435e90c2f7cd023460c01b6138e1565b610f8f67faa2e0f7c08af17960c01b6138e1565b610fa3670cb44e31176c98df60c01b6138e1565b3373ffffffffffffffffffffffffffffffffffffffff168173ffffffffffffffffffffffffffffffffffffffff1614611011576040517f08c379a00000000000000000000000000000000000000000000000000000000081526004016110089061607e565b60405180910390fd5b61102567b3781fb04ec6635960c01b6138e1565b61103967424bc669f1b2873260c01b6138e1565b61104d67958d5ce02bf26be560c01b6138e1565b6110616771e987fcfc33b3ac60c01b6138e1565b6110756712d65b228aa228fb60c01b6138e1565b61108967a30f25bb6342241260c01b6138e1565b611121600560008a73ffffffffffffffffffffffffffffffffffffffff1673ffffffffffffffffffffffffffffffffffffffff16815260200190815260200160002080548060200260200160405190810160405280929190818152602001828054801561111557602002820191906000526020600020905b815481526020019060010190808311611101575b50505050508888613d09565b9450505050509392505050565b61114267cd82772353adbe1860c01b6138e1565b61114a613f1e565b61115e671c7a04c6f6945ce360c01b6138e1565b61117267d3d44fa96ab9fc2860c01b6138e1565b61118667797142c1d9b0b76560c01b6138e1565b61119a6737222be42b690fb660c01b6138e1565b6111ae67875b1591d5cfca3c60c01b6138e1565b60208160ff1611156111f5576040517f08c379a00000000000000000000000000000000000000000000000000000000081526004016111ec90616110565b60405180910390fd5b611209679ab22863ddecb40c60c01b6138e1565b61121d67dfb8e4adeb59c18360c01b6138e1565b80600060146101000a81548160ff021916908360ff16021790555050565b6000611251672322c898d6bdd3b560c01b6138e1565b611259613f1e565b61126d6721059e7bb3fa2dab60c01b6138e1565b611281678041caa837676eda60c01b6138e1565b611295679ff8efb53d16a52260c01b6138e1565b6112a96726bfc9e996fcd49560c01b6138e1565b600060149054906101000a900460ff16905090565b6112d26749e6e01e4073940560c01b6138e1565b806112e76779dfad83ed196b3960c01b6138e1565b6112fb674c75fcd8a804f78460c01b6138e1565b61130f67fa86f09466a72db160c01b6138e1565b61132367642d2badd465c33460c01b6138e1565b600060036000838152602001908152602001600020600101805461134690615f95565b905003611388576040517f08c379a000000000000000000000000000000000000000000000000000000000815260040161137f90616012565b60405180910390fd5b61139c67a1956c7cbc9e1b3360c01b6138e1565b6113b0674f8d11af17e9c98260c01b6138e1565b6113c467f88444990be6cca760c01b6138e1565b6113d867c2759ef9eff5202460c01b6138e1565b816113ed67412210cff75ce39960c01b6138e1565b61140167d546c8d31725b1d360c01b6138e1565b61141567b1b4e0c6ccd0a53960c01b6138e1565b6114296755b1ea45044a51b160c01b6138e1565b3373ffffffffffffffffffffffffffffffffffffffff166003600083815260200190815260200160002060030160009054906101000a900473ffffffffffffffffffffffffffffffffffffffff1673ffffffffffffffffffffffffffffffffffffffff16146114cd576040517f08c379a00000000000000000000000000000000000000000000000000000000081526004016114c49061617c565b60405180910390fd5b6114e167a8292313c73c276b60c01b6138e1565b6114f5675d41a04fb456158c60c01b6138e1565b61150967d3cf8c04c3cd37d060c01b6138e1565b61151d67b209bbcc90da722e60c01b6138e1565b6115316716ff10568b73b1b460c01b6138e1565b60016003600085815260200190815260200160002060030160146101000a81548160ff021916908315150217905550505050565b61156d613f1e565b6115776000613f9c565b565b6115816149a5565b611595676b47cc5e9695215760c01b6138e1565b816115aa6798a2b33a23d9011960c01b6138e1565b6115be6717f95ada2d807d3660c01b6138e1565b6115d2671ff2b13334df882860c01b6138e1565b6115e66748da1d52ff6ecda660c01b6138e1565b600060066000838152602001908152602001600020600001540361163f576040517f08c379a0000000000000000000000000000000000000000000000000000000008152600401611636906161e8565b60405180910390fd5b611653673ffd3635aee77ae660c01b6138e1565b61166767015d564d21bdab8160c01b6138e1565b61167b677c65eeb5c0b2248d60c01b6138e1565b61168f675eae7316e157dd5a60c01b6138e1565b611697613f1e565b6116ab671c00242c95c9c51360c01b6138e1565b6116bf67994695579ef8f47a60c01b6138e1565b6116d367d985a30b49c5368a60c01b6138e1565b6116e767235825c3078686ba60c01b6138e1565b600660008481526020019081526020016000206040518060c001604052908160008201548152602001600182015481526020016002820154815260200160038201805461173390615f95565b80601f016020809104026020016040519081016040528092919081815260200182805461175f90615f95565b80156117ac5780601f10611781576101008083540402835291602001916117ac565b820191906000526020600020905b81548152906001019060200180831161178f57829003601f168201915b505050505081526020016004820160009054906101000a900473ffffffffffffffffffffffffffffffffffffffff1673ffffffffffffffffffffffffffffffffffffffff1673ffffffffffffffffffffffffffffffffffffffff1681526020016004820160149054906101000a900460ff161515151581525050915050919050565b60008060009054906101000a900473ffffffffffffffffffffffffffffffffffffffff16905090565b606061186d67e07d0ac9ffab469560c01b6138e1565b92915050565b6060611889679b548929f2497e5a60c01b6138e1565b8161189e6798a2b33a23d9011960c01b6138e1565b6118b26717f95ada2d807d3660c01b6138e1565b6118c6671ff2b13334df882860c01b6138e1565b6118da6748da1d52ff6ecda660c01b6138e1565b6000600660008381526020019081526020016000206000015403611933576040517f08c379a000000000000000000000000000000000000000000000000000000000815260040161192a906161e8565b60405180910390fd5b611947673ffd3635aee77ae660c01b6138e1565b61195b67015d564d21bdab8160c01b6138e1565b61196f6756e11c42d018889c60c01b6138e1565b61198367d802a50874c6ffd260c01b6138e1565b6006600084815260200190815260200160002060040160009054906101000a900473ffffffffffffffffffffffffffffffffffffffff166119ce6786663f83d8cd303b60c01b6138e1565b6119e267435e90c2f7cd023460c01b6138e1565b6119f667faa2e0f7c08af17960c01b6138e1565b611a0a670cb44e31176c98df60c01b6138e1565b3373ffffffffffffffffffffffffffffffffffffffff168173ffffffffffffffffffffffffffffffffffffffff1614611a78576040517f08c379a0000000000000000000000000000000000000000000000000000000008152600401611a6f9061607e565b60405180910390fd5b611a8c67b3781fb04ec6635960c01b6138e1565b611aa067424bc669f1b2873260c01b6138e1565b611ab467077304960477a8be60c01b6138e1565b611ac8671c1a3c45057d1b6260c01b6138e1565b611adc678afddb1661eea9be60c01b6138e1565b611af06734041666c4bc52d360c01b6138e1565b6000611b0a600060149054906101000a900460ff16614060565b9050611b2067ed45ea82d0a3729060c01b6138e1565b80600660008781526020019081526020016000206003019081611b4391906163b4565b50611b586774870c0a1a88668e60c01b6138e1565b611b6c67cb9ee717681e8eca60c01b6138e1565b3373ffffffffffffffffffffffffffffffffffffffff16857f563b362092ba503d6039c4132ccf42635c534111aba52317fba78148f17ab89b60405160405180910390a3611bc467d012f38510c356ec60c01b6138e1565b611bd8676859b31917f2eece60c01b6138e1565b809350505050919050565b6000611bf967a893b56af86bfe6260c01b6138e1565b86611c0e6798a2b33a23d9011960c01b6138e1565b611c226717f95ada2d807d3660c01b6138e1565b611c36671ff2b13334df882860c01b6138e1565b611c4a6748da1d52ff6ecda660c01b6138e1565b6000600660008381526020019081526020016000206000015403611ca3576040517f08c379a0000000000000000000000000000000000000000000000000000000008152600401611c9a906161e8565b60405180910390fd5b611cb7673ffd3635aee77ae660c01b6138e1565b611ccb67015d564d21bdab8160c01b6138e1565b611cdf67997caa3a125472e560c01b6138e1565b611cf3677b8e6ef32d15c74160c01b6138e1565b6006600089815260200190815260200160002060040160009054906101000a900473ffffffffffffffffffffffffffffffffffffffff16611d3e6786663f83d8cd303b60c01b6138e1565b611d5267435e90c2f7cd023460c01b6138e1565b611d6667faa2e0f7c08af17960c01b6138e1565b611d7a670cb44e31176c98df60c01b6138e1565b3373ffffffffffffffffffffffffffffffffffffffff168173ffffffffffffffffffffffffffffffffffffffff1614611de8576040517f08c379a0000000000000000000000000000000000000000000000000000000008152600401611ddf9061607e565b60405180910390fd5b611dfc67b3781fb04ec6635960c01b6138e1565b611e1067424bc669f1b2873260c01b6138e1565b611e2467101343cf9c04c83c60c01b6138e1565b611e386723175ecd9a462e3f60c01b6138e1565b611e4c6789903143f278e9dc60c01b6138e1565b611e6067b96a5a2f404a258b60c01b6138e1565b6000600660008b81526020019081526020016000206003018054611e8390615f95565b80601f0160208091040260200160405190810160405280929190818152602001828054611eaf90615f95565b8015611efc5780601f10611ed157610100808354040283529160200191611efc565b820191906000526020600020905b815481529060010190602001808311611edf57829003601f168201915b50505050509050611f17677c1241df6e8faa0960c01b6138e1565b611f2b679b6a91cf05136dae60c01b6138e1565b6000611f3782876140da565b9050611f4d67ebd31ef87f81ffbd60c01b6138e1565b611f6167cbd56520fe6326be60c01b6138e1565b611f7567ede08c3e8ca3d35a60c01b6138e1565b6001151581151514611fbc576040517f08c379a0000000000000000000000000000000000000000000000000000000008152600401611fb3906164d2565b60405180910390fd5b611fd0677f519b266da3798860c01b6138e1565b611fe467196e1011d5f6977260c01b6138e1565b611ff867b2d6108c9b03d68260c01b6138e1565b6000600660008d815260200190815260200160002060020154905061202767776f0afca438777e60c01b6138e1565b61203b6718e210ee9c9034c460c01b6138e1565b600061204b8c8c8c8c868d61424e565b905061206167e94613e5f4072b7d60c01b6138e1565b6120756701646e99a660a95060c01b6138e1565b6120896715cc249af2075fbc60c01b6138e1565b60011515811515146120d0576040517f08c379a00000000000000000000000000000000000000000000000000000000081526004016120c79061653e565b60405180910390fd5b6120e467786fa7330411835060c01b6138e1565b6120f8676b31f9f8f7b19a4360c01b6138e1565b80600660008f815260200190815260200160002060040160146101000a81548160ff02191690831515021790555061213a67c716c4bd3051176860c01b6138e1565b61214e674d99f69dac7fa87260c01b6138e1565b3373ffffffffffffffffffffffffffffffffffffffff168d7f388a4c5cd95b8c62a844c6893354d7e39e7975a32896327919de0eb3ca5ca18860405160405180910390a36121a667ab384b26bc1ec85760c01b6138e1565b6121ba67b1f28b70255346d060c01b6138e1565b8096505050505050509695505050505050565b60606121e367332c012fa57de65d60c01b6138e1565b826001805490506121fe672900e8ea984f488d60c01b6138e1565b61221267f5140dfa28cec81e60c01b6138e1565b61222667328c191b3dea2bd160c01b6138e1565b60008111156122e05761224367844d35ce68842adf60c01b6138e1565b6122576759fe9202ae18805860c01b6138e1565b61226b67c20be8a1a7dc792f60c01b6138e1565b61227f67f5faa16d7a33c45a60c01b6138e1565b808263ffffffff16106122c7576040517f08c379a00000000000000000000000000000000000000000000000000000000081526004016122be90615e48565b60405180910390fd5b6122db6736d565c7209a3af560c01b6138e1565b61238e565b6122f4674dc8f825de9aa5b760c01b6138e1565b61230867bd9ff7cc5365914660c01b6138e1565b61231c6714e528bcd55ec57c60c01b6138e1565b6123306756aa281969cea1d360c01b6138e1565b60008263ffffffff1614612379576040517f08c379a000000000000000000000000000000000000000000000000000000000815260040161237090615eda565b60405180910390fd5b61238d67a669d4e7283d9f9260c01b6138e1565b5b6123a267a8fb3693cad80a0160c01b6138e1565b6123b667e10a5824412a212c60c01b6138e1565b6123ca679a906f90b2b61b4660c01b6138e1565b836123df67ab4f022c95b3d12860c01b6138e1565b6123f3677ad603de1907658360c01b6138e1565b61240767782d0f28bca659cc60c01b6138e1565b61241b67dd5c54fd05dc3c1160c01b6138e1565b60008163ffffffff161180156124385750601e8163ffffffff1611155b612477576040517f08c379a000000000000000000000000000000000000000000000000000000000815260040161246e90615f46565b60405180910390fd5b61248b67dbe887293b94febd60c01b6138e1565b61249f67980af2edaafd35c860c01b6138e1565b6124b36743d1af372122f42d60c01b6138e1565b6124c7671ea410942b07391d60c01b6138e1565b6124db67181c5da0db1d380960c01b6138e1565b6124ef67a639d49237838a0060c01b6138e1565b61254a600180548060200260200160405190810160405280929190818152602001828054801561253e57602002820191906000526020600020905b81548152602001906001019080831161252a575b505050505087876138e4565b935050505092915050565b61255d61495b565b61257167cbe9a9d08c611ec360c01b6138e1565b8484848461258967160c689d856721d460c01b6138e1565b61259d67cff34e0e0e158bfa60c01b6138e1565b6125b167f8b6277c1074a5cb60c01b6138e1565b6125c567f22808507a9f64f360c01b6138e1565b6000848490500361260b576040517f08c379a0000000000000000000000000000000000000000000000000000000008152600401612602906165aa565b60405180910390fd5b61261f67dce31babec2d2f4960c01b6138e1565b61263367d370e05ce13cf61c60c01b6138e1565b612647678d565d69d2bc589a60c01b6138e1565b61265b67a231d723634d16f760c01b6138e1565b600082829050036126a1576040517f08c379a000000000000000000000000000000000000000000000000000000000815260040161269890616616565b60405180910390fd5b6126b56710b13c9e7ddfd9e060c01b6138e1565b6126c967cd34a544afd07bba60c01b6138e1565b6126dd67bd3c0672616882a760c01b6138e1565b6126f167e206d8e3c4860c9260c01b6138e1565b61270567c1bbbc0fae020def60c01b6138e1565b612719679276890d6183183060c01b6138e1565b61272d675b9d2d845fe37c9060c01b6138e1565b6000600360008c8152602001908152602001600020600101805461275090615f95565b905014612792576040517f08c379a000000000000000000000000000000000000000000000000000000000815260040161278990616682565b60405180910390fd5b6127a667066f7a5948bef34d60c01b6138e1565b6127ba67c99363c8858f85f260c01b6138e1565b6127ce67045a366d08375be560c01b6138e1565b60018a908060018154018082558091505060019003906000526020600020016000909190919091505561280b67c4b58ad9f78f854d60c01b6138e1565b61281f67e26eee57cbba926e60c01b6138e1565b600260003373ffffffffffffffffffffffffffffffffffffffff1673ffffffffffffffffffffffffffffffffffffffff1681526020019081526020016000208a90806001815401808255809150506001900390600052602060002001600090919091909150556128996714628f153ee0c63360c01b6138e1565b6128ad6796b58980c6a254e060c01b6138e1565b60006040518060a001604052808c81526020018b8b8080601f016020809104026020016040519081016040528093929190818152602001838380828437600081840152601f19601f82011690508083019250505050505050815260200189898080601f016020809104026020016040519081016040528093929190818152602001838380828437600081840152601f19601f8201169050808301925050505050505081526020013373ffffffffffffffffffffffffffffffffffffffff16815260200160001515815250905061298d6714e3683b6416b75160c01b6138e1565b80600360008d81526020019081526020016000206000820151816000015560208201518160010190816129c091906166fd565b5060408201518160020190816129d691906166fd565b5060608201518160030160006101000a81548173ffffffffffffffffffffffffffffffffffffffff021916908373ffffffffffffffffffffffffffffffffffffffff16021790555060808201518160030160146101000a81548160ff021916908315150217905550905050612a5567669f1dc7c62c309760c01b6138e1565b612a6967fa3813c0d853c6a860c01b6138e1565b3373ffffffffffffffffffffffffffffffffffffffff168b7fc0bb3838ad72991f913b1a5c821da885948755a4ee450ec034e7a256e09aca5a60405160405180910390a3612ac167e0b49ac211aa84fa60c01b6138e1565b612ad5673007f616c1a3180560c01b6138e1565b809550505050505095945050505050565b6060612afc67598203a12fed7f4960c01b6138e1565b83612b116779dfad83ed196b3960c01b6138e1565b612b25674c75fcd8a804f78460c01b6138e1565b612b3967fa86f09466a72db160c01b6138e1565b612b4d67642d2badd465c33460c01b6138e1565b6000600360008381526020019081526020016000206001018054612b7090615f95565b905003612bb2576040517f08c379a0000000000000000000000000000000000000000000000000000000008152600401612ba990616012565b60405180910390fd5b612bc667a1956c7cbc9e1b3360c01b6138e1565b612bda674f8d11af17e9c98260c01b6138e1565b612bee676b7c6eba4949c41c60c01b6138e1565b612c02679cd4eaaf6f3a0e6660c01b6138e1565b836004600087815260200190815260200160002080549050612c2e672900e8ea984f488d60c01b6138e1565b612c4267f5140dfa28cec81e60c01b6138e1565b612c5667328c191b3dea2bd160c01b6138e1565b6000811115612d1057612c7367844d35ce68842adf60c01b6138e1565b612c876759fe9202ae18805860c01b6138e1565b612c9b67c20be8a1a7dc792f60c01b6138e1565b612caf67f5faa16d7a33c45a60c01b6138e1565b808263ffffffff1610612cf7576040517f08c379a0000000000000000000000000000000000000000000000000000000008152600401612cee90615e48565b60405180910390fd5b612d0b6736d565c7209a3af560c01b6138e1565b612dbe565b612d24674dc8f825de9aa5b760c01b6138e1565b612d3867bd9ff7cc5365914660c01b6138e1565b612d4c6714e528bcd55ec57c60c01b6138e1565b612d606756aa281969cea1d360c01b6138e1565b60008263ffffffff1614612da9576040517f08c379a0000000000000000000000000000000000000000000000000000000008152600401612da090615eda565b60405180910390fd5b612dbd67a669d4e7283d9f9260c01b6138e1565b5b612dd267a8fb3693cad80a0160c01b6138e1565b612de6674f8b0698c688366660c01b6138e1565b612dfa67dc6a93464c8cc3e860c01b6138e1565b84612e0f67ab4f022c95b3d12860c01b6138e1565b612e23677ad603de1907658360c01b6138e1565b612e3767782d0f28bca659cc60c01b6138e1565b612e4b67dd5c54fd05dc3c1160c01b6138e1565b60008163ffffffff16118015612e685750601e8163ffffffff1611155b612ea7576040517f08c379a0000000000000000000000000000000000000000000000000000000008152600401612e9e90615f46565b60405180910390fd5b612ebb67dbe887293b94febd60c01b6138e1565b612ecf67980af2edaafd35c860c01b6138e1565b612ee3676491b274d620953e60c01b6138e1565b612ef7670ee2b4727c73d09060c01b6138e1565b612eff613f1e565b612f1367cab55f1b645fcf3c60c01b6138e1565b612f2767e4765562e5f05e3060c01b6138e1565b612f3b6704ca2f44bdfb916560c01b6138e1565b612f4f6733257f75cdb0531060c01b6138e1565b612fbb600460008a8152602001908152602001600020805480602002602001604051908101604052809291908181526020018280548015612faf57602002820191906000526020600020905b815481526020019060010190808311612f9b575b50505050508888613d09565b9450505050509392505050565b612fdc6713c52db010ea644d60c01b6138e1565b84612ff16779dfad83ed196b3960c01b6138e1565b613005674c75fcd8a804f78460c01b6138e1565b61301967fa86f09466a72db160c01b6138e1565b61302d67642d2badd465c33460c01b6138e1565b600060036000838152602001908152602001600020600101805461305090615f95565b905003613092576040517f08c379a000000000000000000000000000000000000000000000000000000000815260040161308990616012565b60405180910390fd5b6130a667a1956c7cbc9e1b3360c01b6138e1565b6130ba674f8d11af17e9c98260c01b6138e1565b6130cd66ec20bd8c835d4060c01b6138e1565b6130e1673020021e96a0958360c01b6138e1565b856130f667412210cff75ce39960c01b6138e1565b61310a67d546c8d31725b1d360c01b6138e1565b61311e67b1b4e0c6ccd0a53960c01b6138e1565b6131326755b1ea45044a51b160c01b6138e1565b3373ffffffffffffffffffffffffffffffffffffffff166003600083815260200190815260200160002060030160009054906101000a900473ffffffffffffffffffffffffffffffffffffffff1673ffffffffffffffffffffffffffffffffffffffff16146131d6576040517f08c379a00000000000000000000000000000000000000000000000000000000081526004016131cd9061617c565b60405180910390fd5b6131ea67a8292313c73c276b60c01b6138e1565b6131fe675d41a04fb456158c60c01b6138e1565b613212679b11094fc97a186360c01b6138e1565b613226677eb4cf0026116f2560c01b6138e1565b8585858561323e67160c689d856721d460c01b6138e1565b61325267cff34e0e0e158bfa60c01b6138e1565b61326667f8b6277c1074a5cb60c01b6138e1565b61327a67f22808507a9f64f360c01b6138e1565b600084849050036132c0576040517f08c379a00000000000000000000000000000000000000000000000000000000081526004016132b7906165aa565b60405180910390fd5b6132d467dce31babec2d2f4960c01b6138e1565b6132e867d370e05ce13cf61c60c01b6138e1565b6132fc678d565d69d2bc589a60c01b6138e1565b61331067a231d723634d16f760c01b6138e1565b60008282905003613356576040517f08c379a000000000000000000000000000000000000000000000000000000000815260040161334d90616616565b60405180910390fd5b61336a6710b13c9e7ddfd9e060c01b6138e1565b61337e67cd34a544afd07bba60c01b6138e1565b613392677c855a89b4fe67bb60c01b6138e1565b6133a6674b4ee9d8a8b9e9e660c01b6138e1565b6133ba676b5d6bdb63a7502760c01b6138e1565b8989600360008e815260200190815260200160002060010191826133df9291906167da565b506133f467b90f8191f1a78a2c60c01b6138e1565b8787600360008e815260200190815260200160002060020191826134199291906167da565b505050505050505050505050565b6000606061343f672c4da2ac2255e74860c01b6138e1565b836134546779dfad83ed196b3960c01b6138e1565b613468674c75fcd8a804f78460c01b6138e1565b61347c67fa86f09466a72db160c01b6138e1565b61349067642d2badd465c33460c01b6138e1565b60006003600083815260200190815260200160002060010180546134b390615f95565b9050036134f5576040517f08c379a00000000000000000000000000000000000000000000000000000000081526004016134ec90616012565b60405180910390fd5b61350967a1956c7cbc9e1b3360c01b6138e1565b61351d674f8d11af17e9c98260c01b6138e1565b61353167ba8232d08fdce51460c01b6138e1565b613545679047047dfa43014860c01b6138e1565b613559677dd68d041c0e6c2860c01b6138e1565b61356d673db9620f2aaef21660c01b6138e1565b600061357986866142a6565b905061358f67ae225f25b9d0377a60c01b6138e1565b6135a36768f065f08604b21f60c01b6138e1565b60006135bd600060149054906101000a900460ff16614060565b90506135d3675d53ae4159b5355a60c01b6138e1565b6135e7679978c0348005d7ba60c01b6138e1565b6004600088815260200190815260200160002082908060018154018082558091505060019003906000526020600020016000909190919091505561363567b2fc67fe7b6fe4af60c01b6138e1565b613649677f5bcfd5ded2da1a60c01b6138e1565b600560003373ffffffffffffffffffffffffffffffffffffffff1673ffffffffffffffffffffffffffffffffffffffff1681526020019081526020016000208290806001815401808255809150506001900390600052602060002001600090919091909150556136c367bc10ece92c33e0de60c01b6138e1565b6040518060c001604052808381526020018881526020018781526020018281526020013373ffffffffffffffffffffffffffffffffffffffff1681526020016000151581525060066000848152602001908152602001600020600082015181600001556020820151816001015560408201518160020155606082015181600301908161374f91906163b4565b5060808201518160040160006101000a81548173ffffffffffffffffffffffffffffffffffffffff021916908373ffffffffffffffffffffffffffffffffffffffff16021790555060a08201518160040160146101000a81548160ff0219169083151502179055509050506137ce670fc25a04eccdaea460c01b6138e1565b6137e267d314ba7042fe2b7960c01b6138e1565b3373ffffffffffffffffffffffffffffffffffffffff16827f7ba2a0235400b9674d63c3872e020fd5b1d85bc4c1a227e1991b0567142376b060405160405180910390a361383a67c68b67de2a9da52c60c01b6138e1565b61384e676058358b803c025760c01b6138e1565b8181945094505050509250929050565b613866613f1e565b600073ffffffffffffffffffffffffffffffffffffffff168173ffffffffffffffffffffffffffffffffffffffff16036138d5576040517f08c379a00000000000000000000000000000000000000000000000000000000081526004016138cc9061691c565b60405180910390fd5b6138de81613f9c565b50565b50565b60606138fa675b2d4b79f33c23d860c01b6138e1565b61390e671632b438ed7ab1bc60c01b6138e1565b6139226755da604cd385b5a460c01b6138e1565b83518284613930919061696b565b63ffffffff16111561397e57613950677656ff3ea27c2e0c60c01b6138e1565b6139646775ac62bd35c0604c60c01b6138e1565b8263ffffffff16845161397791906169a3565b9150613993565b6139926711c2feef34c4641160c01b6138e1565b5b6139a7671a534af9c52d4b9660c01b6138e1565b6139bb67214eb92551f1f3e660c01b6138e1565b60008263ffffffff1667ffffffffffffffff8111156139dd576139dc6150de565b5b604051908082528060200260200182016040528015613a1657816020015b613a036149fc565b8152602001906001900390816139fb5790505b509050613a2d675546feaf47bea31660c01b6138e1565b613a4167ac6a73705f8f36a760c01b6138e1565b60005b8363ffffffff168163ffffffff161015613cd557613a6c67aea41251d21d84d060c01b6138e1565b613a80678d7dfdd3ecd2637f60c01b6138e1565b600060036000888489613a93919061696b565b63ffffffff1681518110613aaa57613aa96169d7565b5b602002602001015181526020019081526020016000206040518060a001604052908160008201548152602001600182018054613ae590615f95565b80601f0160208091040260200160405190810160405280929190818152602001828054613b1190615f95565b8015613b5e5780601f10613b3357610100808354040283529160200191613b5e565b820191906000526020600020905b815481529060010190602001808311613b4157829003601f168201915b50505050508152602001600282018054613b7790615f95565b80601f0160208091040260200160405190810160405280929190818152602001828054613ba390615f95565b8015613bf05780601f10613bc557610100808354040283529160200191613bf0565b820191906000526020600020905b815481529060010190602001808311613bd357829003601f168201915b505050505081526020016003820160009054906101000a900473ffffffffffffffffffffffffffffffffffffffff1673ffffffffffffffffffffffffffffffffffffffff1673ffffffffffffffffffffffffffffffffffffffff1681526020016003820160149054906101000a900460ff1615151515815250509050613c806745df7662c33a0ac460c01b6138e1565b6040518060400160405280826000015181526020018260200151815250838363ffffffff1681518110613cb657613cb56169d7565b5b6020026020010181905250508080613ccd90616a06565b915050613a44565b50613cea6740bede14d00a850360c01b6138e1565b613cfe6751fddf7230f48ab460c01b6138e1565b809150509392505050565b6060613d1f67d2b44be28edf383460c01b6138e1565b613d3367f0603f189f16e0c260c01b6138e1565b613d4767d393d903c6df282760c01b6138e1565b83518284613d55919061696b565b63ffffffff161115613da357613d7567fa1045629bc59f5c60c01b6138e1565b613d89678f1dc7fe035ac83b60c01b6138e1565b8263ffffffff168451613d9c91906169a3565b9150613db8565b613db767d03213065a66b9b360c01b6138e1565b5b613dcc67d86df1eaf32a0f5860c01b6138e1565b613de0673ce025238c94f93860c01b6138e1565b60008263ffffffff1667ffffffffffffffff811115613e0257613e016150de565b5b604051908082528060200260200182016040528015613e305781602001602082028036833780820191505090505b509050613e47675371370687d068c160c01b6138e1565b613e5b6730c8f1994810d0ac60c01b6138e1565b60005b8363ffffffff168163ffffffff161015613eea57613e866775bec26337cd3c2460c01b6138e1565b858186613e93919061696b565b63ffffffff1681518110613eaa57613ea96169d7565b5b6020026020010151828263ffffffff1681518110613ecb57613eca6169d7565b5b6020026020010181815250508080613ee290616a06565b915050613e5e565b50613eff6751a44ecdcf5cd2da60c01b6138e1565b613f13679c0f84e4daa3ceac60c01b6138e1565b809150509392505050565b613f266143ee565b73ffffffffffffffffffffffffffffffffffffffff16613f4461182e565b73ffffffffffffffffffffffffffffffffffffffff1614613f9a576040517f08c379a0000000000000000000000000000000000000000000000000000000008152600401613f9190616a7e565b60405180910390fd5b565b60008060009054906101000a900473ffffffffffffffffffffffffffffffffffffffff169050816000806101000a81548173ffffffffffffffffffffffffffffffffffffffff021916908373ffffffffffffffffffffffffffffffffffffffff1602179055508173ffffffffffffffffffffffffffffffffffffffff168173ffffffffffffffffffffffffffffffffffffffff167f8be0079c531659141344cd1fd0a4f28419497f9722a3daafe3b4186f6b6457e060405160405180910390a35050565b606061407667b736be5fe66268a460c01b6143f6565b61408a673c395e356fe23b7c60c01b6143f6565b61409e676b06b6c1928456d360c01b6143f6565b6140d342336040516020016140b4929190616b07565b604051602081830303815290604052805190602001208360ff166143f9565b9050919050565b60006140f067915bee5c14cb025460c01b6145e7565b61410467b5eea4464a718bca60c01b6145e7565b6141186748a7bc346516f94060c01b6145e7565b60005b825181101561421a5761413867a5b2c57202063d1960c01b6145e7565b61414c6756f148e364a49b0660c01b6145e7565b6000614173848381518110614164576141636169d7565b5b602002602001015186516143f9565b9050614189674cc7e0fd30f4fd5460c01b6145e7565b61419d671dbb206e52b506e460c01b6145e7565b6141a781866145ea565b6141f2576141bf675a229bc50781283c60c01b6145e7565b6141d36772018d0ba7be5fd860c01b6145e7565b6141e767bbfd6a6f42a7732b60c01b6145e7565b600092505050614248565b61420667c7bca796eca4c03060c01b6145e7565b50808061421290616b33565b91505061411b565b5061422f67892560bcd6e456d860c01b6145e7565b6142436757d48fbc23b0b39b60c01b6145e7565b600190505b92915050565b600061426467f8fa7a93db3597bc60c01b6145e7565b61427867dc9702fc811c509460c01b6145e7565b61428c671f1b078968c1f79860c01b6145e7565b61429a878787878787614641565b90509695505050505050565b60006142bc674428b0f92bd06e5860c01b6138e1565b6142d067ede7c756ed8a94f360c01b6138e1565b6142e4670bde41ca6337299c60c01b6138e1565b60008383336040516020016142fb93929190616b9c565b60405160208183030381529060405280519060200120905061432767211c65bd6f2cfbee60c01b6138e1565b61433b67a5de26c3a30d677c60c01b6138e1565b61434f670d19d184c782aaf760c01b6138e1565b60006006600083815260200190815260200160002060000154146143a8576040517f08c379a000000000000000000000000000000000000000000000000000000000815260040161439f90616c25565b60405180910390fd5b6143bc67cfb99e81efccbaf460c01b6138e1565b6143d067e6e7c020b2abcc8160c01b6138e1565b6143e467f6f37a88adc8798560c01b6138e1565b8091505092915050565b600033905090565b50565b606061440f6787635ebee6d8362160c01b61465e565b61442367eb29bdf68163c1c460c01b61465e565b61443767e1111b8c4abfa3e860c01b61465e565b60008267ffffffffffffffff811115614453576144526150de565b5b6040519080825280601f01601f1916602001820160405280156144855781602001600182028036833780820191505090505b50905061449c67efcb407e52deda9360c01b61465e565b6144b067839c3d32d6ed5d0560c01b61465e565b6000602060ff1690506144cd67a4db86b7aed1418160c01b61465e565b6144e167495c3a7dcf3c7edf60c01b61465e565b600084826144ef91906169a3565b90506145056730c066bca16c23e460c01b61465e565b614519672711a262e5f11e7160c01b61465e565b60008190505b828110156145b25761453b67a4ac09fe9aa34e7f60c01b61465e565b86816020811061454e5761454d6169d7565b5b1a60f81b84838361455f91906169a3565b815181106145705761456f6169d7565b5b60200101907effffffffffffffffffffffffffffffffffffffffffffffffffffffffffffff1916908160001a90535080806145aa90616b33565b91505061451f565b506145c767458e66a311fd2ca360c01b61465e565b6145db67e343b36f4738d97960c01b61465e565b82935050505092915050565b50565b600061460067cd03de4472684adf60c01b61465e565b61461467bb28563ca4349da260c01b61465e565b61462867a5466c9f81587cc060c01b61465e565b8180519060200120838051906020012014905092915050565b6000826146518888888887614661565b1490509695505050505050565b50565b60008082519050600085859050905080600189899050846146829190616c45565b61468c91906169a3565b146146cc576040517f08c379a00000000000000000000000000000000000000000000000000000000081526004016146c390616cc5565b60405180910390fd5b60008167ffffffffffffffff8111156146e8576146e76150de565b5b6040519080825280602002602001820160405280156147165781602001602082028036833780820191505090505b5090506000806000805b8581101561487c57600087851061475d5785848061473d90616b33565b9550815181106147505761474f6169d7565b5b6020026020010151614785565b89858061476990616b33565b96508151811061477c5761477b6169d7565b5b60200260200101515b905060008c8c8481811061479c5761479b6169d7565b5b90506020020160208101906147b19190616d11565b6147e0578e8e85806147c290616b33565b96508181106147d4576147d36169d7565b5b9050602002013561483c565b888610614813578685806147f390616b33565b965081518110614806576148056169d7565b5b602002602001015161483b565b8a868061481f90616b33565b975081518110614832576148316169d7565b5b60200260200101515b5b90506148488282614919565b87848151811061485b5761485a6169d7565b5b6020026020010181815250505050808061487490616b33565b915050614720565b5060008511156148ba578360018661489491906169a3565b815181106148a5576148a46169d7565b5b60200260200101519650505050505050614910565b60008611156148ec57876000815181106148d7576148d66169d7565b5b60200260200101519650505050505050614910565b8b8b6000818110614900576148ff6169d7565b5b9050602002013596505050505050505b95945050505050565b60008183106149315761492c8284614944565b61493c565b61493b8383614944565b5b905092915050565b600082600052816020526040600020905092915050565b6040518060a00160405280600080191681526020016060815260200160608152602001600073ffffffffffffffffffffffffffffffffffffffff1681526020016000151581525090565b6040518060c0016040528060008019168152602001600080191681526020016000801916815260200160608152602001600073ffffffffffffffffffffffffffffffffffffffff1681526020016000151581525090565b604051806040016040528060008019168152602001606081525090565b6000604051905090565b600080fd5b600080fd5b600073ffffffffffffffffffffffffffffffffffffffff82169050919050565b6000614a5882614a2d565b9050919050565b614a6881614a4d565b8114614a7357600080fd5b50565b600081359050614a8581614a5f565b92915050565b600063ffffffff82169050919050565b614aa481614a8b565b8114614aaf57600080fd5b50565b600081359050614ac181614a9b565b92915050565b600080600060608486031215614ae057614adf614a23565b5b6000614aee86828701614a76565b9350506020614aff86828701614ab2565b9250506040614b1086828701614ab2565b9150509250925092565b600081519050919050565b600082825260208201905092915050565b6000819050602082019050919050565b6000819050919050565b6000614b5b82614b46565b9050919050565b614b6b81614b50565b82525050565b600081519050919050565b600082825260208201905092915050565b60005b83811015614bab578082015181840152602081019050614b90565b60008484015250505050565b6000601f19601f8301169050919050565b6000614bd382614b71565b614bdd8185614b7c565b9350614bed818560208601614b8d565b614bf681614bb7565b840191505092915050565b6000604083016000830151614c196000860182614b62565b5060208301518482036020860152614c318282614bc8565b9150508091505092915050565b6000614c4a8383614c01565b905092915050565b6000602082019050919050565b6000614c6a82614b1a565b614c748185614b25565b935083602082028501614c8685614b36565b8060005b85811015614cc25784840389528151614ca38582614c3e565b9450614cae83614c52565b925060208a01995050600181019050614c8a565b50829750879550505050505092915050565b60006020820190508181036000830152614cee8184614c5f565b905092915050565b614cff81614b46565b8114614d0a57600080fd5b50565b600081359050614d1c81614cf6565b92915050565b600060208284031215614d3857614d37614a23565b5b6000614d4684828501614d0d565b91505092915050565b614d5881614a4d565b82525050565b60008115159050919050565b614d7381614d5e565b82525050565b600060a083016000830151614d916000860182614b62565b5060208301518482036020860152614da98282614bc8565b91505060408301518482036040860152614dc38282614bc8565b9150506060830151614dd86060860182614d4f565b506080830151614deb6080860182614d6a565b508091505092915050565b60006020820190508181036000830152614e108184614d79565b905092915050565b600081519050919050565b600082825260208201905092915050565b6000819050602082019050919050565b6000614e508383614b62565b60208301905092915050565b6000602082019050919050565b6000614e7482614e18565b614e7e8185614e23565b9350614e8983614e34565b8060005b83811015614eba578151614ea18882614e44565b9750614eac83614e5c565b925050600181019050614e8d565b5085935050505092915050565b60006020820190508181036000830152614ee18184614e69565b905092915050565b600060ff82169050919050565b614eff81614ee9565b8114614f0a57600080fd5b50565b600081359050614f1c81614ef6565b92915050565b600060208284031215614f3857614f37614a23565b5b6000614f4684828501614f0d565b91505092915050565b614f5881614ee9565b82525050565b6000602082019050614f736000830184614f4f565b92915050565b600081519050919050565b600082825260208201905092915050565b6000614fa082614f79565b614faa8185614f84565b9350614fba818560208601614b8d565b614fc381614bb7565b840191505092915050565b600060c083016000830151614fe66000860182614b62565b506020830151614ff96020860182614b62565b50604083015161500c6040860182614b62565b50606083015184820360608601526150248282614f95565b91505060808301516150396080860182614d4f565b5060a083015161504c60a0860182614d6a565b508091505092915050565b600060208201905081810360008301526150718184614fce565b905092915050565b61508281614a4d565b82525050565b600060208201905061509d6000830184615079565b92915050565b6000819050919050565b6150b6816150a3565b81146150c157600080fd5b50565b6000813590506150d3816150ad565b92915050565b600080fd5b7f4e487b7100000000000000000000000000000000000000000000000000000000600052604160045260246000fd5b61511682614bb7565b810181811067ffffffffffffffff82111715615135576151346150de565b5b80604052505050565b6000615148614a19565b9050615154828261510d565b919050565b600067ffffffffffffffff821115615174576151736150de565b5b602082029050602081019050919050565b600080fd5b600080fd5b600067ffffffffffffffff8211156151aa576151a96150de565b5b602082029050919050565b60006151c86151c38461518f565b61513e565b905080602084028301858111156151e2576151e1615185565b5b835b8181101561520b57806151f788826150c4565b8452602084019350506020810190506151e4565b5050509392505050565b600082601f83011261522a576152296150d9565b5b60026152378482856151b5565b91505092915050565b600067ffffffffffffffff82111561525b5761525a6150de565b5b602082029050919050565b600061527961527484615240565b61513e565b9050806040840283018581111561529357615292615185565b5b835b818110156152bc57806152a88882615215565b845260208401935050604081019050615295565b5050509392505050565b600082601f8301126152db576152da6150d9565b5b60026152e8848285615266565b91505092915050565b600067ffffffffffffffff82111561530c5761530b6150de565b5b602082029050919050565b600061532a615325846152f1565b61513e565b9050806020840283018581111561534457615343615185565b5b835b8181101561536d578061535988826150c4565b845260208401935050602081019050615346565b5050509392505050565b600082601f83011261538c5761538b6150d9565b5b6010615399848285615317565b91505092915050565b600061030082840312156153b9576153b861518a565b5b6153c3608061513e565b905060006153d384828501615215565b60008301525060406153e7848285016152c6565b60208301525060c06153fb84828501615215565b60408301525061010061541084828501615377565b60608301525092915050565b600061542f61542a84615159565b61513e565b905080838252602082019050610300840283018581111561545357615452615185565b5b835b8181101561547d578061546888826153a2565b84526020840193505061030081019050615455565b5050509392505050565b600082601f83011261549c5761549b6150d9565b5b81356154ac84826020860161541c565b91505092915050565b600080604083850312156154cc576154cb614a23565b5b60006154da858286016150c4565b925050602083013567ffffffffffffffff8111156154fb576154fa614a28565b5b61550785828601615487565b9150509250929050565b600081519050919050565b600082825260208201905092915050565b6000819050602082019050919050565b600060029050919050565b600081905092915050565b6000819050919050565b615566816150a3565b82525050565b6000615578838361555d565b60208301905092915050565b6000602082019050919050565b61559a8161553d565b6155a48184615548565b92506155af82615553565b8060005b838110156155e05781516155c7878261556c565b96506155d283615584565b9250506001810190506155b3565b505050505050565b600060029050919050565b600081905092915050565b6000819050919050565b60006156148383615591565b60408301905092915050565b6000602082019050919050565b615636816155e8565b61564081846155f3565b925061564b826155fe565b8060005b8381101561567c5781516156638782615608565b965061566e83615620565b92505060018101905061564f565b505050505050565b600060109050919050565b600081905092915050565b6000819050919050565b6000602082019050919050565b6156ba81615684565b6156c4818461568f565b92506156cf8261569a565b8060005b838110156157005781516156e7878261556c565b96506156f2836156a4565b9250506001810190506156d3565b505050505050565b6103008201600082015161571f6000850182615591565b506020820151615732604085018261562d565b50604082015161574560c0850182615591565b5060608201516157596101008501826156b1565b50505050565b610320820160008201516157766000850182615708565b50602082015161578a610300850182614d6a565b50505050565b600061579c838361575f565b6103208301905092915050565b6000602082019050919050565b60006157c182615511565b6157cb818561551c565b93506157d68361552d565b8060005b838110156158075781516157ee8882615790565b97506157f9836157a9565b9250506001810190506157da565b5085935050505092915050565b6000602082019050818103600083015261582e81846157b6565b905092915050565b600082825260208201905092915050565b600061585282614f79565b61585c8185615836565b935061586c818560208601614b8d565b61587581614bb7565b840191505092915050565b6000602082019050818103600083015261589a8184615847565b905092915050565b600080fd5b60008083601f8401126158bd576158bc6150d9565b5b8235905067ffffffffffffffff8111156158da576158d96158a2565b5b6020830191508360208202830111156158f6576158f5615185565b5b9250929050565b60008083601f840112615913576159126150d9565b5b8235905067ffffffffffffffff8111156159305761592f6158a2565b5b60208301915083602082028301111561594c5761594b615185565b5b9250929050565b600067ffffffffffffffff82111561596e5761596d6150de565b5b602082029050602081019050919050565b61598881614b46565b811461599357600080fd5b50565b6000813590506159a58161597f565b92915050565b60006159be6159b984615953565b61513e565b905080838252602082019050602084028301858111156159e1576159e0615185565b5b835b81811015615a0a57806159f68882615996565b8452602084019350506020810190506159e3565b5050509392505050565b600082601f830112615a2957615a286150d9565b5b8135615a398482602086016159ab565b91505092915050565b60008060008060008060808789031215615a5f57615a5e614a23565b5b6000615a6d89828a01614d0d565b965050602087013567ffffffffffffffff811115615a8e57615a8d614a28565b5b615a9a89828a016158a7565b9550955050604087013567ffffffffffffffff811115615abd57615abc614a28565b5b615ac989828a016158fd565b9350935050606087013567ffffffffffffffff811115615aec57615aeb614a28565b5b615af889828a01615a14565b9150509295509295509295565b615b0e81614d5e565b82525050565b6000602082019050615b296000830184615b05565b92915050565b60008060408385031215615b4657615b45614a23565b5b6000615b5485828601614ab2565b9250506020615b6585828601614ab2565b9150509250929050565b60008083601f840112615b8557615b846150d9565b5b8235905067ffffffffffffffff811115615ba257615ba16158a2565b5b602083019150836001820283011115615bbe57615bbd615185565b5b9250929050565b600080600080600060608688031215615be157615be0614a23565b5b6000615bef88828901614d0d565b955050602086013567ffffffffffffffff811115615c1057615c0f614a28565b5b615c1c88828901615b6f565b9450945050604086013567ffffffffffffffff811115615c3f57615c3e614a28565b5b615c4b88828901615b6f565b92509250509295509295909350565b600080600060608486031215615c7357615c72614a23565b5b6000615c8186828701614d0d565b9350506020615c9286828701614ab2565b9250506040615ca386828701614ab2565b9150509250925092565b60008060408385031215615cc457615cc3614a23565b5b6000615cd285828601614d0d565b9250506020615ce385828601614d0d565b9150509250929050565b615cf681614b50565b82525050565b6000604082019050615d116000830185615ced565b8181036020830152615d238184615847565b90509392505050565b600060208284031215615d4257615d41614a23565b5b6000615d5084828501614a76565b91505092915050565b600082825260208201905092915050565b7f6d6f64656c206f776e6572206e6f7420666f756e640000000000000000000000600082015250565b6000615da0601583615d59565b9150615dab82615d6a565b602082019050919050565b60006020820190508181036000830152615dcf81615d93565b9050919050565b7f6f6666736574206d757374206265203c206c656e677468206f66206c6973742060008201527f6f66206974656d73000000000000000000000000000000000000000000000000602082015250565b6000615e32602883615d59565b9150615e3d82615dd6565b604082019050919050565b60006020820190508181036000830152615e6181615e25565b9050919050565b7f6f6666736574206d7573742062652030207768656e206e6f206974656d73206560008201527f7869737400000000000000000000000000000000000000000000000000000000602082015250565b6000615ec4602483615d59565b9150615ecf82615e68565b604082019050919050565b60006020820190508181036000830152615ef381615eb7565b9050919050565b7f6c696d6974206d757374206265203e203020616e64203c3d2033300000000000600082015250565b6000615f30601b83615d59565b9150615f3b82615efa565b602082019050919050565b60006020820190508181036000830152615f5f81615f23565b9050919050565b7f4e487b7100000000000000000000000000000000000000000000000000000000600052602260045260246000fd5b60006002820490506001821680615fad57607f821691505b602082108103615fc057615fbf615f66565b5b50919050565b7f6d6f64656c206e6f7420666f756e640000000000000000000000000000000000600082015250565b6000615ffc600f83615d59565b915061600782615fc6565b602082019050919050565b6000602082019050818103600083015261602b81615fef565b9050919050565b7f696e76616c69642070726f766572000000000000000000000000000000000000600082015250565b6000616068600e83615d59565b915061607382616032565b602082019050919050565b600060208201905081810360008301526160978161605b565b9050919050565b7f6c656e677468206f66206368616c6c656e6765206d757374206265203c3d203360008201527f3200000000000000000000000000000000000000000000000000000000000000602082015250565b60006160fa602183615d59565b91506161058261609e565b604082019050919050565b60006020820190508181036000830152616129816160ed565b9050919050565b7f6f6e6c79206d6f64656c206f776e65722063616e206578656375746500000000600082015250565b6000616166601c83615d59565b915061617182616130565b602082019050919050565b6000602082019050818103600083015261619581616159565b9050919050565b7f636f6d6d6974206e6f7420666f756e6400000000000000000000000000000000600082015250565b60006161d2601083615d59565b91506161dd8261619c565b602082019050919050565b60006020820190508181036000830152616201816161c5565b9050919050565b60008190508160005260206000209050919050565b60006020601f8301049050919050565b600082821b905092915050565b60006008830261626a7fffffffffffffffffffffffffffffffffffffffffffffffffffffffffffffffff8261622d565b616274868361622d565b95508019841693508086168417925050509392505050565b6000819050919050565b60006162b16162ac6162a7846150a3565b61628c565b6150a3565b9050919050565b6000819050919050565b6162cb83616296565b6162df6162d7826162b8565b84845461623a565b825550505050565b600090565b6162f46162e7565b6162ff8184846162c2565b505050565b5b81811015616323576163186000826162ec565b600181019050616305565b5050565b601f8211156163685761633981616208565b6163428461621d565b81016020851015616351578190505b61636561635d8561621d565b830182616304565b50505b505050565b600082821c905092915050565b600061638b6000198460080261636d565b1980831691505092915050565b60006163a4838361637a565b9150826002028217905092915050565b6163bd82614f79565b67ffffffffffffffff8111156163d6576163d56150de565b5b6163e08254615f95565b6163eb828285616327565b600060209050601f83116001811461641e576000841561640c578287015190505b6164168582616398565b86555061647e565b601f19841661642c86616208565b60005b828110156164545784890151825560018201915060208501945060208101905061642f565b86831015616471578489015161646d601f89168261637a565b8355505b6001600288020188555050505b505050505050565b7f696e76616c6964206c6561766573000000000000000000000000000000000000600082015250565b60006164bc600e83615d59565b91506164c782616486565b602082019050919050565b600060208201905081810360008301526164eb816164af565b9050919050565b7f696e76616c6964204d65726b6c652070726f6f66730000000000000000000000600082015250565b6000616528601583615d59565b9150616533826164f2565b602082019050919050565b600060208201905081810360008301526165578161651b565b9050919050565b7f656d707479206d6f64656c4e616d650000000000000000000000000000000000600082015250565b6000616594600f83615d59565b915061659f8261655e565b602082019050919050565b600060208201905081810360008301526165c381616587565b9050919050565b7f656d707479206d6f64656c4465736372697074696f6e00000000000000000000600082015250565b6000616600601683615d59565b915061660b826165ca565b602082019050919050565b6000602082019050818103600083015261662f816165f3565b9050919050565b7f6d6f64656c20616c726561647920657869737473000000000000000000000000600082015250565b600061666c601483615d59565b915061667782616636565b602082019050919050565b6000602082019050818103600083015261669b8161665f565b9050919050565b60008190508160005260206000209050919050565b601f8211156166f8576166c9816166a2565b6166d28461621d565b810160208510156166e1578190505b6166f56166ed8561621d565b830182616304565b50505b505050565b61670682614b71565b67ffffffffffffffff81111561671f5761671e6150de565b5b6167298254615f95565b6167348282856166b7565b600060209050601f8311600181146167675760008415616755578287015190505b61675f8582616398565b8655506167c7565b601f198416616775866166a2565b60005b8281101561679d57848901518255600182019150602085019450602081019050616778565b868310156167ba57848901516167b6601f89168261637a565b8355505b6001600288020188555050505b505050505050565b600082905092915050565b6167e483836167cf565b67ffffffffffffffff8111156167fd576167fc6150de565b5b6168078254615f95565b6168128282856166b7565b6000601f831160018114616841576000841561682f578287013590505b6168398582616398565b8655506168a1565b601f19841661684f866166a2565b60005b8281101561687757848901358255600182019150602085019450602081019050616852565b868310156168945784890135616890601f89168261637a565b8355505b6001600288020188555050505b50505050505050565b7f4f776e61626c653a206e6577206f776e657220697320746865207a65726f206160008201527f6464726573730000000000000000000000000000000000000000000000000000602082015250565b6000616906602683615d59565b9150616911826168aa565b604082019050919050565b60006020820190508181036000830152616935816168f9565b9050919050565b7f4e487b7100000000000000000000000000000000000000000000000000000000600052601160045260246000fd5b600061697682614a8b565b915061698183614a8b565b9250828201905063ffffffff81111561699d5761699c61693c565b5b92915050565b60006169ae826150a3565b91506169b9836150a3565b92508282039050818111156169d1576169d061693c565b5b92915050565b7f4e487b7100000000000000000000000000000000000000000000000000000000600052603260045260246000fd5b6000616a1182614a8b565b915063ffffffff8203616a2757616a2661693c565b5b600182019050919050565b7f4f776e61626c653a2063616c6c6572206973206e6f7420746865206f776e6572600082015250565b6000616a68602083615d59565b9150616a7382616a32565b602082019050919050565b60006020820190508181036000830152616a9781616a5b565b9050919050565b6000819050919050565b616ab9616ab4826150a3565b616a9e565b82525050565b60008160601b9050919050565b6000616ad782616abf565b9050919050565b6000616ae982616acc565b9050919050565b616b01616afc82614a4d565b616ade565b82525050565b6000616b138285616aa8565b602082019150616b238284616af0565b6014820191508190509392505050565b6000616b3e826150a3565b91507fffffffffffffffffffffffffffffffffffffffffffffffffffffffffffffffff8203616b7057616b6f61693c565b5b600182019050919050565b6000819050919050565b616b96616b9182614b50565b616b7b565b82525050565b6000616ba88286616b85565b602082019150616bb88285616b85565b602082019150616bc88284616af0565b601482019150819050949350505050565b7f636f6d6d697420616c7265616479206578697374730000000000000000000000600082015250565b6000616c0f601583615d59565b9150616c1a82616bd9565b602082019050919050565b60006020820190508181036000830152616c3e81616c02565b9050919050565b6000616c50826150a3565b9150616c5b836150a3565b9250828201905080821115616c7357616c7261693c565b5b92915050565b7f4d65726b6c6550726f6f663a20696e76616c6964206d756c746970726f6f6600600082015250565b6000616caf601f83615d59565b9150616cba82616c79565b602082019050919050565b60006020820190508181036000830152616cde81616ca2565b9050919050565b616cee81614d5e565b8114616cf957600080fd5b50565b600081359050616d0b81616ce5565b92915050565b600060208284031215616d2757616d26614a23565b5b6000616d3584828501616cfc565b9150509291505056fea2646970667358221220d9db34b3a5d2db3744a61cf1117488748f52f081db3ec2b2a5e58a9af5925b4864736f6c63430008110033",
  "linkReferences": {},
  "deployedLinkReferences": {}
}