{
  "_format": "hh-sol-artifact-1",
  "contractName": "Verifier",
  "sourceName": "contracts/src/Verifier.sol",
  "abi": [
    {
      "inputs": [
        {
          "internalType": "uint8",
          "name": "_difficulty",
          "type": "uint8"
        }
      ],
      "stateMutability": "nonpayable",
      "type": "constructor"
    },
    {
      "anonymous": false,
      "inputs": [
        {
          "indexed": true,
          "internalType": "IVerifier.Hash",
          "name": "commitId",
          "type": "bytes32"
        },
        {
          "indexed": true,
          "internalType": "address",
          "name": "proverAddress",
          "type": "address"
        }
      ],
      "name": "ChallengeUpdated",
      "type": "event"
    },
    {
      "anonymous": false,
      "inputs": [
        {
          "indexed": true,
          "internalType": "IVerifier.Hash",
          "name": "commitId",
          "type": "bytes32"
        },
        {
          "indexed": true,
          "internalType": "address",
          "name": "proverAddress",
          "type": "address"
        }
      ],
      "name": "CommitAdded",
      "type": "event"
    },
    {
      "anonymous": false,
      "inputs": [
        {
          "indexed": true,
          "internalType": "IVerifier.Hash",
          "name": "commitId",
          "type": "bytes32"
        },
        {
          "indexed": true,
          "internalType": "address",
          "name": "proverAddress",
          "type": "address"
        }
      ],
      "name": "CommitRevealed",
      "type": "event"
    },
    {
      "anonymous": false,
      "inputs": [
        {
          "indexed": true,
          "internalType": "IVerifier.Hash",
          "name": "contentId",
          "type": "bytes32"
        },
        {
          "indexed": true,
          "internalType": "address",
          "name": "ownerAddress",
          "type": "address"
        }
      ],
      "name": "ModelDisabled",
      "type": "event"
    },
    {
      "anonymous": false,
      "inputs": [
        {
          "indexed": true,
          "internalType": "IVerifier.Hash",
          "name": "contentId",
          "type": "bytes32"
        },
        {
          "indexed": true,
          "internalType": "address",
          "name": "ownerAddress",
          "type": "address"
        }
      ],
      "name": "ModelRegistered",
      "type": "event"
    },
    {
      "anonymous": false,
      "inputs": [
        {
          "indexed": true,
          "internalType": "IVerifier.Hash",
          "name": "contentId",
          "type": "bytes32"
        },
        {
          "indexed": true,
          "internalType": "address",
          "name": "ownerAddress",
          "type": "address"
        },
        {
          "indexed": false,
          "internalType": "string",
          "name": "name",
          "type": "string"
        },
        {
          "indexed": false,
          "internalType": "string",
          "name": "description",
          "type": "string"
        }
      ],
      "name": "ModelUpdated",
      "type": "event"
    },
    {
      "anonymous": false,
      "inputs": [
        {
          "indexed": true,
          "internalType": "address",
          "name": "previousOwner",
          "type": "address"
        },
        {
          "indexed": true,
          "internalType": "address",
          "name": "newOwner",
          "type": "address"
        }
      ],
      "name": "OwnershipTransferred",
      "type": "event"
    },
    {
      "inputs": [
        {
          "internalType": "IVerifier.Hash",
          "name": "_modelContentId",
          "type": "bytes32"
        },
        {
          "internalType": "IVerifier.Hash",
          "name": "_merkleRoot",
          "type": "bytes32"
        }
      ],
      "name": "commit",
      "outputs": [
        {
          "internalType": "IVerifier.Hash",
          "name": "",
          "type": "bytes32"
        },
        {
          "internalType": "IVerifier.Hash",
          "name": "",
          "type": "bytes32"
        },
        {
          "internalType": "uint256",
          "name": "",
          "type": "uint256"
        }
      ],
      "stateMutability": "nonpayable",
      "type": "function"
    },
    {
      "inputs": [
        {
          "internalType": "IVerifier.Hash",
          "name": "_modelContentId",
          "type": "bytes32"
        }
      ],
      "name": "disableModel",
      "outputs": [],
      "stateMutability": "nonpayable",
      "type": "function"
    },
    {
      "inputs": [
        {
          "internalType": "IVerifier.Hash",
          "name": "_commitId",
          "type": "bytes32"
        }
      ],
      "name": "getCommit",
      "outputs": [
        {
          "components": [
            {
              "internalType": "IVerifier.Hash",
              "name": "id",
              "type": "bytes32"
            },
            {
              "internalType": "IVerifier.Hash",
              "name": "modelContentId",
              "type": "bytes32"
            },
            {
              "internalType": "IVerifier.Hash",
              "name": "merkleRoot",
              "type": "bytes32"
            },
            {
              "internalType": "IVerifier.Hash",
              "name": "challenge",
              "type": "bytes32"
            },
            {
              "internalType": "uint256",
              "name": "difficulty",
              "type": "uint256"
            },
            {
              "internalType": "address",
              "name": "proverAddress",
              "type": "address"
            },
            {
              "internalType": "bool",
              "name": "isRevealed",
              "type": "bool"
            }
          ],
          "internalType": "struct IVerifier.Commit",
          "name": "",
          "type": "tuple"
        }
      ],
      "stateMutability": "view",
      "type": "function"
    },
    {
      "inputs": [
        {
          "internalType": "IVerifier.Hash",
          "name": "_modelContentId",
          "type": "bytes32"
        },
        {
          "internalType": "uint32",
          "name": "_offset",
          "type": "uint32"
        },
        {
          "internalType": "uint32",
          "name": "_limit",
          "type": "uint32"
        }
      ],
      "name": "getCommitsOfModel",
      "outputs": [
        {
          "internalType": "IVerifier.Hash[]",
          "name": "",
          "type": "bytes32[]"
        }
      ],
      "stateMutability": "view",
      "type": "function"
    },
    {
      "inputs": [
        {
          "internalType": "address",
          "name": "_proverAddress",
          "type": "address"
        },
        {
          "internalType": "uint32",
          "name": "_offset",
          "type": "uint32"
        },
        {
          "internalType": "uint32",
          "name": "_limit",
          "type": "uint32"
        }
      ],
      "name": "getCommitsOfProver",
      "outputs": [
        {
          "internalType": "IVerifier.Hash[]",
          "name": "",
          "type": "bytes32[]"
        }
      ],
      "stateMutability": "view",
      "type": "function"
    },
    {
      "inputs": [],
      "name": "getDifficulty",
      "outputs": [
        {
          "internalType": "uint256",
          "name": "",
          "type": "uint256"
        }
      ],
      "stateMutability": "view",
      "type": "function"
    },
    {
      "inputs": [
        {
          "internalType": "IVerifier.Hash",
          "name": "_modelContentId",
          "type": "bytes32"
        }
      ],
      "name": "getModel",
      "outputs": [
        {
          "components": [
            {
              "internalType": "IVerifier.Hash",
              "name": "contentId",
              "type": "bytes32"
            },
            {
              "internalType": "string",
              "name": "name",
              "type": "string"
            },
            {
              "internalType": "string",
              "name": "description",
              "type": "string"
            },
            {
              "internalType": "address",
              "name": "ownerAddress",
              "type": "address"
            },
            {
              "internalType": "bool",
              "name": "isDisabled",
              "type": "bool"
            }
          ],
          "internalType": "struct IVerifier.Model",
          "name": "",
          "type": "tuple"
        }
      ],
      "stateMutability": "view",
      "type": "function"
    },
    {
      "inputs": [
        {
          "internalType": "uint32",
          "name": "_offset",
          "type": "uint32"
        },
        {
          "internalType": "uint32",
          "name": "_limit",
          "type": "uint32"
        }
      ],
      "name": "getModels",
      "outputs": [
        {
          "components": [
            {
              "internalType": "IVerifier.Hash",
              "name": "contentId",
              "type": "bytes32"
            },
            {
              "internalType": "string",
              "name": "name",
              "type": "string"
            }
          ],
          "internalType": "struct IVerifier.ModelArrayElement[]",
          "name": "",
          "type": "tuple[]"
        }
      ],
      "stateMutability": "view",
      "type": "function"
    },
    {
      "inputs": [
        {
          "internalType": "address",
          "name": "_ownerAddress",
          "type": "address"
        },
        {
          "internalType": "uint32",
          "name": "_offset",
          "type": "uint32"
        },
        {
          "internalType": "uint32",
          "name": "_limit",
          "type": "uint32"
        }
      ],
      "name": "getModelsByOwnerAddress",
      "outputs": [
        {
          "components": [
            {
              "internalType": "IVerifier.Hash",
              "name": "contentId",
              "type": "bytes32"
            },
            {
              "internalType": "string",
              "name": "name",
              "type": "string"
            }
          ],
          "internalType": "struct IVerifier.ModelArrayElement[]",
          "name": "",
          "type": "tuple[]"
        }
      ],
      "stateMutability": "view",
      "type": "function"
    },
    {
      "inputs": [],
      "name": "owner",
      "outputs": [
        {
          "internalType": "address",
          "name": "",
          "type": "address"
        }
      ],
      "stateMutability": "view",
      "type": "function"
    },
    {
      "inputs": [
        {
          "internalType": "IVerifier.Hash",
          "name": "_modelContentId",
          "type": "bytes32"
        },
        {
          "internalType": "string",
          "name": "_modelName",
          "type": "string"
        },
        {
          "internalType": "string",
          "name": "_modelDescription",
          "type": "string"
        }
      ],
      "name": "registerModel",
      "outputs": [
        {
          "components": [
            {
              "internalType": "IVerifier.Hash",
              "name": "contentId",
              "type": "bytes32"
            },
            {
              "internalType": "string",
              "name": "name",
              "type": "string"
            },
            {
              "internalType": "string",
              "name": "description",
              "type": "string"
            },
            {
              "internalType": "address",
              "name": "ownerAddress",
              "type": "address"
            },
            {
              "internalType": "bool",
              "name": "isDisabled",
              "type": "bool"
            }
          ],
          "internalType": "struct IVerifier.Model",
          "name": "",
          "type": "tuple"
        }
      ],
      "stateMutability": "nonpayable",
      "type": "function"
    },
    {
      "inputs": [],
      "name": "renounceOwnership",
      "outputs": [],
      "stateMutability": "nonpayable",
      "type": "function"
    },
    {
      "inputs": [
        {
          "internalType": "IVerifier.Hash",
          "name": "_commitId",
          "type": "bytes32"
        },
        {
          "internalType": "bytes32[]",
          "name": "_merkleProofs",
          "type": "bytes32[]"
        },
        {
          "internalType": "bool[]",
          "name": "_proofFlags",
          "type": "bool[]"
        },
        {
          "internalType": "bytes32[]",
          "name": "_leaves",
          "type": "bytes32[]"
        }
      ],
      "name": "reveal",
      "outputs": [],
      "stateMutability": "nonpayable",
      "type": "function"
    },
    {
      "inputs": [
        {
          "internalType": "address",
          "name": "newOwner",
          "type": "address"
        }
      ],
      "name": "transferOwnership",
      "outputs": [],
      "stateMutability": "nonpayable",
      "type": "function"
    },
    {
      "inputs": [
        {
          "internalType": "IVerifier.Hash",
          "name": "_commitId",
          "type": "bytes32"
        }
      ],
      "name": "updateChallenge",
      "outputs": [
        {
          "internalType": "IVerifier.Hash",
          "name": "",
          "type": "bytes32"
        }
      ],
      "stateMutability": "nonpayable",
      "type": "function"
    },
    {
      "inputs": [
        {
          "internalType": "uint256",
          "name": "_difficulty",
          "type": "uint256"
        }
      ],
      "name": "updateDifficulty",
      "outputs": [],
      "stateMutability": "nonpayable",
      "type": "function"
    },
    {
      "inputs": [
        {
          "internalType": "IVerifier.Hash",
          "name": "_modelContentId",
          "type": "bytes32"
        },
        {
          "internalType": "string",
          "name": "_modelName",
          "type": "string"
        },
        {
          "internalType": "string",
          "name": "_modelDescription",
          "type": "string"
        }
      ],
      "name": "updateModel",
      "outputs": [],
      "stateMutability": "nonpayable",
      "type": "function"
    },
    {
      "inputs": [
        {
          "internalType": "uint256",
          "name": "commitmentId",
          "type": "uint256"
        },
        {
          "components": [
            {
              "internalType": "uint256[2]",
              "name": "a",
              "type": "uint256[2]"
            },
            {
              "internalType": "uint256[2][2]",
              "name": "b",
              "type": "uint256[2][2]"
            },
            {
              "internalType": "uint256[2]",
              "name": "c",
              "type": "uint256[2]"
            },
            {
              "internalType": "uint256[16]",
              "name": "input",
              "type": "uint256[16]"
            }
          ],
          "internalType": "struct IVerifier.Zkp[]",
          "name": "zkps",
          "type": "tuple[]"
        }
      ],
      "name": "verify",
      "outputs": [
        {
          "components": [
            {
              "components": [
                {
                  "internalType": "uint256[2]",
                  "name": "a",
                  "type": "uint256[2]"
                },
                {
                  "internalType": "uint256[2][2]",
                  "name": "b",
                  "type": "uint256[2][2]"
                },
                {
                  "internalType": "uint256[2]",
                  "name": "c",
                  "type": "uint256[2]"
                },
                {
                  "internalType": "uint256[16]",
                  "name": "input",
                  "type": "uint256[16]"
                }
              ],
              "internalType": "struct IVerifier.Zkp",
              "name": "zkp",
              "type": "tuple"
            },
            {
              "internalType": "bool",
              "name": "isValid",
              "type": "bool"
            }
          ],
          "internalType": "struct IVerifier.ZkpWithValidity[]",
          "name": "zkpVerifications",
          "type": "tuple[]"
        }
      ],
      "stateMutability": "nonpayable",
      "type": "function"
    }
  ],
  "bytecode": "0x60806040523480156200001157600080fd5b5060405162004dd338038062004dd3833981810160405281019062000037919062000177565b620000576200004b6200006860201b60201c565b6200007060201b60201c565b8060ff1660018190555050620001a9565b600033905090565b60008060009054906101000a900473ffffffffffffffffffffffffffffffffffffffff169050816000806101000a81548173ffffffffffffffffffffffffffffffffffffffff021916908373ffffffffffffffffffffffffffffffffffffffff1602179055508173ffffffffffffffffffffffffffffffffffffffff168173ffffffffffffffffffffffffffffffffffffffff167f8be0079c531659141344cd1fd0a4f28419497f9722a3daafe3b4186f6b6457e060405160405180910390a35050565b600080fd5b600060ff82169050919050565b620001518162000139565b81146200015d57600080fd5b50565b600081519050620001718162000146565b92915050565b60006020828403121562000190576200018f62000134565b5b6000620001a08482850162000160565b91505092915050565b614c1a80620001b96000396000f3fe608060405234801561001057600080fd5b50600436106101165760003560e01c806398611507116100a2578063c46bfb1f11610071578063c46bfb1f14610305578063c6ce1e9514610335578063d7c7e94814610365578063e3ce094d14610381578063f2fde38b146103b357610116565b8063986115071461026b5780639cc499541461029b5780639d3a2407146102b7578063b6baffe3146102e757610116565b806370bca450116100e957806370bca450146101c7578063715018a6146101e35780638784ea96146101ed5780638da5cb5b1461021d5780638e6906f01461023b57610116565b8063109656fb1461011b5780631ae19f111461014b57806321e7c4981461016757806354eda92814610197575b600080fd5b6101356004803603810190610130919061297a565b6103cf565b6040516101429190612b87565b60405180910390f35b61016560048036038101906101609190612bdf565b61063d565b005b610181600480360381019061017c9190612c38565b610694565b60405161018e9190612d0c565b60405180910390f35b6101b160048036038101906101ac919061297a565b6108c7565b6040516101be9190612ddd565b60405180910390f35b6101e160048036038101906101dc9190612c38565b610b1e565b005b6101eb610c5d565b005b61020760048036038101906102029190612c38565b610c71565b6040516102149190612e9c565b60405180910390f35b610225610da4565b6040516102329190612ec6565b60405180910390f35b610255600480360381019061025091906132bd565b610dcd565b604051610262919061360d565b60405180910390f35b61028560048036038101906102809190612c38565b610dd5565b604051610292919061363e565b60405180910390f35b6102b560048036038101906102b091906137f9565b610f70565b005b6102d160048036038101906102cc91906138bc565b61124f565b6040516102de9190612b87565b60405180910390f35b6102ef6113bb565b6040516102fc919061390b565b60405180910390f35b61031f600480360381019061031a919061397c565b6113cd565b60405161032c9190612d0c565b60405180910390f35b61034f600480360381019061034a9190613a11565b61172e565b60405161035c9190612ddd565b60405180910390f35b61037f600480360381019061037a919061397c565b61192c565b005b61039b60048036038101906103969190613a64565b611b20565b6040516103aa93929190613aa4565b60405180910390f35b6103cd60048036038101906103c89190613adb565b611da2565b005b6060836000600360008373ffffffffffffffffffffffffffffffffffffffff1673ffffffffffffffffffffffffffffffffffffffff1681526020019081526020016000208054905003610457576040517f08c379a000000000000000000000000000000000000000000000000000000000815260040161044e90613b65565b60405180910390fd5b83600360008773ffffffffffffffffffffffffffffffffffffffff1673ffffffffffffffffffffffffffffffffffffffff1681526020019081526020016000208054905060008111156104f157808263ffffffff16106104ec576040517f08c379a00000000000000000000000000000000000000000000000000000000081526004016104e390613bf7565b60405180910390fd5b61053b565b60008263ffffffff161461053a576040517f08c379a000000000000000000000000000000000000000000000000000000000815260040161053190613c89565b60405180910390fd5b5b8460008163ffffffff161180156105595750601e8163ffffffff1611155b610598576040517f08c379a000000000000000000000000000000000000000000000000000000000815260040161058f90613cf5565b60405180910390fd5b610630600360008a73ffffffffffffffffffffffffffffffffffffffff1673ffffffffffffffffffffffffffffffffffffffff16815260200190815260200160002080548060200260200160405190810160405280929190818152602001828054801561062457602002820191906000526020600020905b815481526020019060010190808311610610575b50505050508888611e25565b9450505050509392505050565b610645612119565b61010081111561068a576040517f08c379a000000000000000000000000000000000000000000000000000000000815260040161068190613d61565b60405180910390fd5b8060018190555050565b61069c612804565b8160006004600083815260200190815260200160002060010180546106c090613db0565b905003610702576040517f08c379a00000000000000000000000000000000000000000000000000000000081526004016106f990613e2d565b60405180910390fd5b600460008481526020019081526020016000206040518060a00160405290816000820154815260200160018201805461073a90613db0565b80601f016020809104026020016040519081016040528092919081815260200182805461076690613db0565b80156107b35780601f10610788576101008083540402835291602001916107b3565b820191906000526020600020905b81548152906001019060200180831161079657829003601f168201915b505050505081526020016002820180546107cc90613db0565b80601f01602080910402602001604051908101604052809291908181526020018280546107f890613db0565b80156108455780601f1061081a57610100808354040283529160200191610845565b820191906000526020600020905b81548152906001019060200180831161082857829003601f168201915b505050505081526020016003820160009054906101000a900473ffffffffffffffffffffffffffffffffffffffff1673ffffffffffffffffffffffffffffffffffffffff1673ffffffffffffffffffffffffffffffffffffffff1681526020016003820160149054906101000a900460ff161515151581525050915050919050565b606082600660008673ffffffffffffffffffffffffffffffffffffffff1673ffffffffffffffffffffffffffffffffffffffff16815260200190815260200160002080549050600081111561096357808263ffffffff161061095e576040517f08c379a000000000000000000000000000000000000000000000000000000000815260040161095590613bf7565b60405180910390fd5b6109ad565b60008263ffffffff16146109ac576040517f08c379a00000000000000000000000000000000000000000000000000000000081526004016109a390613c89565b60405180910390fd5b5b8360008163ffffffff161180156109cb5750601e8163ffffffff1611155b610a0a576040517f08c379a0000000000000000000000000000000000000000000000000000000008152600401610a0190613cf5565b60405180910390fd5b863373ffffffffffffffffffffffffffffffffffffffff168173ffffffffffffffffffffffffffffffffffffffff1614610a79576040517f08c379a0000000000000000000000000000000000000000000000000000000008152600401610a7090613e99565b60405180910390fd5b610b11600660008a73ffffffffffffffffffffffffffffffffffffffff1673ffffffffffffffffffffffffffffffffffffffff168152602001908152602001600020805480602002602001604051908101604052809291908181526020018280548015610b0557602002820191906000526020600020905b815481526020019060010190808311610af1575b50505050508888612197565b9450505050509392505050565b806000600460008381526020019081526020016000206001018054610b4290613db0565b905003610b84576040517f08c379a0000000000000000000000000000000000000000000000000000000008152600401610b7b90613e2d565b60405180910390fd5b813373ffffffffffffffffffffffffffffffffffffffff166004600083815260200190815260200160002060030160009054906101000a900473ffffffffffffffffffffffffffffffffffffffff1673ffffffffffffffffffffffffffffffffffffffff1614610c29576040517f08c379a0000000000000000000000000000000000000000000000000000000008152600401610c2090613f05565b60405180910390fd5b60016004600085815260200190815260200160002060030160146101000a81548160ff021916908315150217905550505050565b610c65612119565b610c6f60006122a3565b565b610c7961284e565b816000600760008381526020019081526020016000206000015403610cd3576040517f08c379a0000000000000000000000000000000000000000000000000000000008152600401610cca90613f71565b60405180910390fd5b610cdb612119565b600760008481526020019081526020016000206040518060e001604052908160008201548152602001600182015481526020016002820154815260200160038201548152602001600482015481526020016005820160009054906101000a900473ffffffffffffffffffffffffffffffffffffffff1673ffffffffffffffffffffffffffffffffffffffff1673ffffffffffffffffffffffffffffffffffffffff1681526020016005820160149054906101000a900460ff161515151581525050915050919050565b60008060009054906101000a900473ffffffffffffffffffffffffffffffffffffffff16905090565b606092915050565b6000816000600760008381526020019081526020016000206000015403610e31576040517f08c379a0000000000000000000000000000000000000000000000000000000008152600401610e2890613f71565b60405180910390fd5b6007600084815260200190815260200160002060050160009054906101000a900473ffffffffffffffffffffffffffffffffffffffff163373ffffffffffffffffffffffffffffffffffffffff168173ffffffffffffffffffffffffffffffffffffffff1614610ed6576040517f08c379a0000000000000000000000000000000000000000000000000000000008152600401610ecd90613e99565b60405180910390fd5b600060015490506000610ee882612367565b90508060076000888152602001908152602001600020600301819055508160076000888152602001908152602001600020600401819055503373ffffffffffffffffffffffffffffffffffffffff16867f563b362092ba503d6039c4132ccf42635c534111aba52317fba78148f17ab89b60405160405180910390a380945050505050919050565b856000600760008381526020019081526020016000206000015403610fca576040517f08c379a0000000000000000000000000000000000000000000000000000000008152600401610fc190613f71565b60405180910390fd5b6007600088815260200190815260200160002060050160009054906101000a900473ffffffffffffffffffffffffffffffffffffffff163373ffffffffffffffffffffffffffffffffffffffff168173ffffffffffffffffffffffffffffffffffffffff161461106f576040517f08c379a000000000000000000000000000000000000000000000000000000000815260040161106690613e99565b60405180910390fd5b60001515600760008a815260200190815260200160002060050160149054906101000a900460ff161515146110d9576040517f08c379a00000000000000000000000000000000000000000000000000000000081526004016110d090613fdd565b60405180910390fd5b6000600760008a81526020019081526020016000206003015490506000600760008b81526020019081526020016000206004015490506001151561111e8383886123a2565b151514611160576040517f08c379a000000000000000000000000000000000000000000000000000000000815260040161115790614049565b60405180910390fd5b6000600760008c81526020019081526020016000206002015490506001151561118d8b8b8b8b868c61240e565b1515146111cf576040517f08c379a00000000000000000000000000000000000000000000000000000000081526004016111c6906140b5565b60405180910390fd5b6001600760008d815260200190815260200160002060050160146101000a81548160ff0219169083151502179055503373ffffffffffffffffffffffffffffffffffffffff168b7f388a4c5cd95b8c62a844c6893354d7e39e7975a32896327919de0eb3ca5ca18860405160405180910390a35050505050505050505050565b60608260028054905060008111156112ae57808263ffffffff16106112a9576040517f08c379a00000000000000000000000000000000000000000000000000000000081526004016112a090613bf7565b60405180910390fd5b6112f8565b60008263ffffffff16146112f7576040517f08c379a00000000000000000000000000000000000000000000000000000000081526004016112ee90613c89565b60405180910390fd5b5b8360008163ffffffff161180156113165750601e8163ffffffff1611155b611355576040517f08c379a000000000000000000000000000000000000000000000000000000000815260040161134c90613cf5565b60405180910390fd5b6113b060028054806020026020016040519081016040528092919081815260200182805480156113a457602002820191906000526020600020905b815481526020019060010190808311611390575b50505050508787611e25565b935050505092915050565b60006113c5612119565b600154905090565b6113d5612804565b848484846000848490500361141f576040517f08c379a000000000000000000000000000000000000000000000000000000000815260040161141690614121565b60405180910390fd5b60008282905003611465576040517f08c379a000000000000000000000000000000000000000000000000000000000815260040161145c9061418d565b60405180910390fd5b6000600460008c8152602001908152602001600020600101805461148890613db0565b9050146114ca576040517f08c379a00000000000000000000000000000000000000000000000000000000081526004016114c1906141f9565b60405180910390fd5b60028a9080600181540180825580915050600190039060005260206000200160009091909190915055600360003373ffffffffffffffffffffffffffffffffffffffff1673ffffffffffffffffffffffffffffffffffffffff1681526020019081526020016000208a908060018154018082558091505060019003906000526020600020016000909190919091505560006040518060a001604052808c81526020018b8b8080601f016020809104026020016040519081016040528093929190818152602001838380828437600081840152601f19601f82011690508083019250505050505050815260200189898080601f016020809104026020016040519081016040528093929190818152602001838380828437600081840152601f19601f8201169050808301925050505050505081526020013373ffffffffffffffffffffffffffffffffffffffff16815260200160001515815250905080600460008d815260200190815260200160002060008201518160000155602082015181600101908161165891906143c5565b50604082015181600201908161166e91906143c5565b5060608201518160030160006101000a81548173ffffffffffffffffffffffffffffffffffffffff021916908373ffffffffffffffffffffffffffffffffffffffff16021790555060808201518160030160146101000a81548160ff0219169083151502179055509050503373ffffffffffffffffffffffffffffffffffffffff168b7fc0bb3838ad72991f913b1a5c821da885948755a4ee450ec034e7a256e09aca5a60405160405180910390a3809550505050505095945050505050565b606083600060046000838152602001908152602001600020600101805461175490613db0565b905003611796576040517f08c379a000000000000000000000000000000000000000000000000000000000815260040161178d90613e2d565b60405180910390fd5b836005600087815260200190815260200160002080549050600081111561180457808263ffffffff16106117ff576040517f08c379a00000000000000000000000000000000000000000000000000000000081526004016117f690613bf7565b60405180910390fd5b61184e565b60008263ffffffff161461184d576040517f08c379a000000000000000000000000000000000000000000000000000000000815260040161184490613c89565b60405180910390fd5b5b8460008163ffffffff1611801561186c5750601e8163ffffffff1611155b6118ab576040517f08c379a00000000000000000000000000000000000000000000000000000000081526004016118a290613cf5565b60405180910390fd5b6118b3612119565b61191f600560008a815260200190815260200160002080548060200260200160405190810160405280929190818152602001828054801561191357602002820191906000526020600020905b8154815260200190600101908083116118ff575b50505050508888612197565b9450505050509392505050565b84600060046000838152602001908152602001600020600101805461195090613db0565b905003611992576040517f08c379a000000000000000000000000000000000000000000000000000000000815260040161198990613e2d565b60405180910390fd5b853373ffffffffffffffffffffffffffffffffffffffff166004600083815260200190815260200160002060030160009054906101000a900473ffffffffffffffffffffffffffffffffffffffff1673ffffffffffffffffffffffffffffffffffffffff1614611a37576040517f08c379a0000000000000000000000000000000000000000000000000000000008152600401611a2e90613f05565b60405180910390fd5b8585858560008484905003611a81576040517f08c379a0000000000000000000000000000000000000000000000000000000008152600401611a7890614121565b60405180910390fd5b60008282905003611ac7576040517f08c379a0000000000000000000000000000000000000000000000000000000008152600401611abe9061418d565b60405180910390fd5b8989600460008e81526020019081526020016000206001019182611aec9291906144a2565b508787600460008e81526020019081526020016000206002019182611b129291906144a2565b505050505050505050505050565b6000806000846000600460008381526020019081526020016000206001018054611b4990613db0565b905003611b8b576040517f08c379a0000000000000000000000000000000000000000000000000000000008152600401611b8290613e2d565b60405180910390fd5b6000611b97878761242a565b90506000611ba6600154612367565b905060006001549050600560008a8152602001908152602001600020839080600181540180825580915050600190039060005260206000200160009091909190915055600660003373ffffffffffffffffffffffffffffffffffffffff1673ffffffffffffffffffffffffffffffffffffffff1681526020019081526020016000208390806001815401808255809150506001900390600052602060002001600090919091909150556040518060e001604052808481526020018a81526020018981526020018381526020018281526020013373ffffffffffffffffffffffffffffffffffffffff1681526020016000151581525060076000858152602001908152602001600020600082015181600001556020820151816001015560408201518160020155606082015181600301556080820151816004015560a08201518160050160006101000a81548173ffffffffffffffffffffffffffffffffffffffff021916908373ffffffffffffffffffffffffffffffffffffffff16021790555060c08201518160050160146101000a81548160ff0219169083151502179055509050503373ffffffffffffffffffffffffffffffffffffffff16837f7ba2a0235400b9674d63c3872e020fd5b1d85bc4c1a227e1991b0567142376b060405160405180910390a3828282965096509650505050509250925092565b611daa612119565b600073ffffffffffffffffffffffffffffffffffffffff168173ffffffffffffffffffffffffffffffffffffffff1603611e19576040517f08c379a0000000000000000000000000000000000000000000000000000000008152600401611e10906145e4565b60405180910390fd5b611e22816122a3565b50565b606083518284611e359190614633565b63ffffffff161115611e57578263ffffffff168451611e54919061466b565b91505b60008263ffffffff1667ffffffffffffffff811115611e7957611e78612ee6565b5b604051908082528060200260200182016040528015611eb257816020015b611e9f6128af565b815260200190600190039081611e975790505b50905060005b8363ffffffff168163ffffffff16101561210d57600060046000888489611edf9190614633565b63ffffffff1681518110611ef657611ef561469f565b5b602002602001015181526020019081526020016000206040518060a001604052908160008201548152602001600182018054611f3190613db0565b80601f0160208091040260200160405190810160405280929190818152602001828054611f5d90613db0565b8015611faa5780601f10611f7f57610100808354040283529160200191611faa565b820191906000526020600020905b815481529060010190602001808311611f8d57829003601f168201915b50505050508152602001600282018054611fc390613db0565b80601f0160208091040260200160405190810160405280929190818152602001828054611fef90613db0565b801561203c5780601f106120115761010080835404028352916020019161203c565b820191906000526020600020905b81548152906001019060200180831161201f57829003601f168201915b505050505081526020016003820160009054906101000a900473ffffffffffffffffffffffffffffffffffffffff1673ffffffffffffffffffffffffffffffffffffffff1673ffffffffffffffffffffffffffffffffffffffff1681526020016003820160149054906101000a900460ff16151515158152505090506040518060400160405280826000015181526020018260200151815250838363ffffffff16815181106120ee576120ed61469f565b5b6020026020010181905250508080612105906146ce565b915050611eb8565b50809150509392505050565b6121216124bd565b73ffffffffffffffffffffffffffffffffffffffff1661213f610da4565b73ffffffffffffffffffffffffffffffffffffffff1614612195576040517f08c379a000000000000000000000000000000000000000000000000000000000815260040161218c90614746565b60405180910390fd5b565b6060835182846121a79190614633565b63ffffffff1611156121c9578263ffffffff1684516121c6919061466b565b91505b60008263ffffffff1667ffffffffffffffff8111156121eb576121ea612ee6565b5b6040519080825280602002602001820160405280156122195781602001602082028036833780820191505090505b50905060005b8363ffffffff168163ffffffff161015612297578581866122409190614633565b63ffffffff16815181106122575761225661469f565b5b6020026020010151828263ffffffff16815181106122785761227761469f565b5b602002602001018181525050808061228f906146ce565b91505061221f565b50809150509392505050565b60008060009054906101000a900473ffffffffffffffffffffffffffffffffffffffff169050816000806101000a81548173ffffffffffffffffffffffffffffffffffffffff021916908373ffffffffffffffffffffffffffffffffffffffff1602179055508173ffffffffffffffffffffffffffffffffffffffff168173ffffffffffffffffffffffffffffffffffffffff167f8be0079c531659141344cd1fd0a4f28419497f9722a3daafe3b4186f6b6457e060405160405180910390a35050565b600061239b423360405160200161237f9291906147cf565b60405160208183030381529060405280519060200120836124c5565b9050919050565b600080600090505b82518110156124015760006123d98483815181106123cb576123ca61469f565b5b6020026020010151866124c5565b90508581146123ed57600092505050612407565b5080806123f9906147fb565b9150506123aa565b50600190505b9392505050565b600061241e8787878787876124ed565b90509695505050505050565b60008083833360405160200161244293929190614864565b60405160208183030381529060405280519060200120905060006007600083815260200190815260200160002060000154146124b3576040517f08c379a00000000000000000000000000000000000000000000000000000000081526004016124aa906148ed565b60405180910390fd5b8091505092915050565b600033905090565b60008160026124d49190614a40565b8360001c6124e29190614aba565b60001b905092915050565b6000826124fd888888888761250a565b1490509695505050505050565b600080825190506000858590509050806001898990508461252b9190614aeb565b612535919061466b565b14612575576040517f08c379a000000000000000000000000000000000000000000000000000000000815260040161256c90614b6b565b60405180910390fd5b60008167ffffffffffffffff81111561259157612590612ee6565b5b6040519080825280602002602001820160405280156125bf5781602001602082028036833780820191505090505b5090506000806000805b85811015612725576000878510612606578584806125e6906147fb565b9550815181106125f9576125f861469f565b5b602002602001015161262e565b898580612612906147fb565b9650815181106126255761262461469f565b5b60200260200101515b905060008c8c848181106126455761264461469f565b5b905060200201602081019061265a9190614bb7565b612689578e8e858061266b906147fb565b965081811061267d5761267c61469f565b5b905060200201356126e5565b8886106126bc5786858061269c906147fb565b9650815181106126af576126ae61469f565b5b60200260200101516126e4565b8a86806126c8906147fb565b9750815181106126db576126da61469f565b5b60200260200101515b5b90506126f182826127c2565b8784815181106127045761270361469f565b5b6020026020010181815250505050808061271d906147fb565b9150506125c9565b506000851115612763578360018661273d919061466b565b8151811061274e5761274d61469f565b5b602002602001015196505050505050506127b9565b600086111561279557876000815181106127805761277f61469f565b5b602002602001015196505050505050506127b9565b8b8b60008181106127a9576127a861469f565b5b9050602002013596505050505050505b95945050505050565b60008183106127da576127d582846127ed565b6127e5565b6127e483836127ed565b5b905092915050565b600082600052816020526040600020905092915050565b6040518060a00160405280600080191681526020016060815260200160608152602001600073ffffffffffffffffffffffffffffffffffffffff1681526020016000151581525090565b6040518060e001604052806000801916815260200160008019168152602001600080191681526020016000801916815260200160008152602001600073ffffffffffffffffffffffffffffffffffffffff1681526020016000151581525090565b604051806040016040528060008019168152602001606081525090565b6000604051905090565b600080fd5b600080fd5b600073ffffffffffffffffffffffffffffffffffffffff82169050919050565b600061290b826128e0565b9050919050565b61291b81612900565b811461292657600080fd5b50565b60008135905061293881612912565b92915050565b600063ffffffff82169050919050565b6129578161293e565b811461296257600080fd5b50565b6000813590506129748161294e565b92915050565b600080600060608486031215612993576129926128d6565b5b60006129a186828701612929565b93505060206129b286828701612965565b92505060406129c386828701612965565b9150509250925092565b600081519050919050565b600082825260208201905092915050565b6000819050602082019050919050565b6000819050919050565b6000612a0e826129f9565b9050919050565b612a1e81612a03565b82525050565b600081519050919050565b600082825260208201905092915050565b60005b83811015612a5e578082015181840152602081019050612a43565b60008484015250505050565b6000601f19601f8301169050919050565b6000612a8682612a24565b612a908185612a2f565b9350612aa0818560208601612a40565b612aa981612a6a565b840191505092915050565b6000604083016000830151612acc6000860182612a15565b5060208301518482036020860152612ae48282612a7b565b9150508091505092915050565b6000612afd8383612ab4565b905092915050565b6000602082019050919050565b6000612b1d826129cd565b612b2781856129d8565b935083602082028501612b39856129e9565b8060005b85811015612b755784840389528151612b568582612af1565b9450612b6183612b05565b925060208a01995050600181019050612b3d565b50829750879550505050505092915050565b60006020820190508181036000830152612ba18184612b12565b905092915050565b6000819050919050565b612bbc81612ba9565b8114612bc757600080fd5b50565b600081359050612bd981612bb3565b92915050565b600060208284031215612bf557612bf46128d6565b5b6000612c0384828501612bca565b91505092915050565b612c15816129f9565b8114612c2057600080fd5b50565b600081359050612c3281612c0c565b92915050565b600060208284031215612c4e57612c4d6128d6565b5b6000612c5c84828501612c23565b91505092915050565b612c6e81612900565b82525050565b60008115159050919050565b612c8981612c74565b82525050565b600060a083016000830151612ca76000860182612a15565b5060208301518482036020860152612cbf8282612a7b565b91505060408301518482036040860152612cd98282612a7b565b9150506060830151612cee6060860182612c65565b506080830151612d016080860182612c80565b508091505092915050565b60006020820190508181036000830152612d268184612c8f565b905092915050565b600081519050919050565b600082825260208201905092915050565b6000819050602082019050919050565b6000612d668383612a15565b60208301905092915050565b6000602082019050919050565b6000612d8a82612d2e565b612d948185612d39565b9350612d9f83612d4a565b8060005b83811015612dd0578151612db78882612d5a565b9750612dc283612d72565b925050600181019050612da3565b5085935050505092915050565b60006020820190508181036000830152612df78184612d7f565b905092915050565b612e0881612ba9565b82525050565b60e082016000820151612e246000850182612a15565b506020820151612e376020850182612a15565b506040820151612e4a6040850182612a15565b506060820151612e5d6060850182612a15565b506080820151612e706080850182612dff565b5060a0820151612e8360a0850182612c65565b5060c0820151612e9660c0850182612c80565b50505050565b600060e082019050612eb16000830184612e0e565b92915050565b612ec081612900565b82525050565b6000602082019050612edb6000830184612eb7565b92915050565b600080fd5b7f4e487b7100000000000000000000000000000000000000000000000000000000600052604160045260246000fd5b612f1e82612a6a565b810181811067ffffffffffffffff82111715612f3d57612f3c612ee6565b5b80604052505050565b6000612f506128cc565b9050612f5c8282612f15565b919050565b600067ffffffffffffffff821115612f7c57612f7b612ee6565b5b602082029050602081019050919050565b600080fd5b600080fd5b600067ffffffffffffffff821115612fb257612fb1612ee6565b5b602082029050919050565b6000612fd0612fcb84612f97565b612f46565b90508060208402830185811115612fea57612fe9612f8d565b5b835b818110156130135780612fff8882612bca565b845260208401935050602081019050612fec565b5050509392505050565b600082601f83011261303257613031612ee1565b5b600261303f848285612fbd565b91505092915050565b600067ffffffffffffffff82111561306357613062612ee6565b5b602082029050919050565b600061308161307c84613048565b612f46565b9050806040840283018581111561309b5761309a612f8d565b5b835b818110156130c457806130b0888261301d565b84526020840193505060408101905061309d565b5050509392505050565b600082601f8301126130e3576130e2612ee1565b5b60026130f084828561306e565b91505092915050565b600067ffffffffffffffff82111561311457613113612ee6565b5b602082029050919050565b600061313261312d846130f9565b612f46565b9050806020840283018581111561314c5761314b612f8d565b5b835b8181101561317557806131618882612bca565b84526020840193505060208101905061314e565b5050509392505050565b600082601f83011261319457613193612ee1565b5b60106131a184828561311f565b91505092915050565b600061030082840312156131c1576131c0612f92565b5b6131cb6080612f46565b905060006131db8482850161301d565b60008301525060406131ef848285016130ce565b60208301525060c06132038482850161301d565b6040830152506101006132188482850161317f565b60608301525092915050565b600061323761323284612f61565b612f46565b905080838252602082019050610300840283018581111561325b5761325a612f8d565b5b835b81811015613285578061327088826131aa565b8452602084019350506103008101905061325d565b5050509392505050565b600082601f8301126132a4576132a3612ee1565b5b81356132b4848260208601613224565b91505092915050565b600080604083850312156132d4576132d36128d6565b5b60006132e285828601612bca565b925050602083013567ffffffffffffffff811115613303576133026128db565b5b61330f8582860161328f565b9150509250929050565b600081519050919050565b600082825260208201905092915050565b6000819050602082019050919050565b600060029050919050565b600081905092915050565b6000819050919050565b60006133718383612dff565b60208301905092915050565b6000602082019050919050565b61339381613345565b61339d8184613350565b92506133a88261335b565b8060005b838110156133d95781516133c08782613365565b96506133cb8361337d565b9250506001810190506133ac565b505050505050565b600060029050919050565b600081905092915050565b6000819050919050565b600061340d838361338a565b60408301905092915050565b6000602082019050919050565b61342f816133e1565b61343981846133ec565b9250613444826133f7565b8060005b8381101561347557815161345c8782613401565b965061346783613419565b925050600181019050613448565b505050505050565b600060109050919050565b600081905092915050565b6000819050919050565b6000602082019050919050565b6134b38161347d565b6134bd8184613488565b92506134c882613493565b8060005b838110156134f95781516134e08782613365565b96506134eb8361349d565b9250506001810190506134cc565b505050505050565b61030082016000820151613518600085018261338a565b50602082015161352b6040850182613426565b50604082015161353e60c085018261338a565b5060608201516135526101008501826134aa565b50505050565b6103208201600082015161356f6000850182613501565b506020820151613583610300850182612c80565b50505050565b60006135958383613558565b6103208301905092915050565b6000602082019050919050565b60006135ba82613319565b6135c48185613324565b93506135cf83613335565b8060005b838110156136005781516135e78882613589565b97506135f2836135a2565b9250506001810190506135d3565b5085935050505092915050565b6000602082019050818103600083015261362781846135af565b905092915050565b61363881612a03565b82525050565b6000602082019050613653600083018461362f565b92915050565b600080fd5b60008083601f84011261367457613673612ee1565b5b8235905067ffffffffffffffff81111561369157613690613659565b5b6020830191508360208202830111156136ad576136ac612f8d565b5b9250929050565b60008083601f8401126136ca576136c9612ee1565b5b8235905067ffffffffffffffff8111156136e7576136e6613659565b5b60208301915083602082028301111561370357613702612f8d565b5b9250929050565b600067ffffffffffffffff82111561372557613724612ee6565b5b602082029050602081019050919050565b61373f816129f9565b811461374a57600080fd5b50565b60008135905061375c81613736565b92915050565b60006137756137708461370a565b612f46565b9050808382526020820190506020840283018581111561379857613797612f8d565b5b835b818110156137c157806137ad888261374d565b84526020840193505060208101905061379a565b5050509392505050565b600082601f8301126137e0576137df612ee1565b5b81356137f0848260208601613762565b91505092915050565b60008060008060008060808789031215613816576138156128d6565b5b600061382489828a01612c23565b965050602087013567ffffffffffffffff811115613845576138446128db565b5b61385189828a0161365e565b9550955050604087013567ffffffffffffffff811115613874576138736128db565b5b61388089828a016136b4565b9350935050606087013567ffffffffffffffff8111156138a3576138a26128db565b5b6138af89828a016137cb565b9150509295509295509295565b600080604083850312156138d3576138d26128d6565b5b60006138e185828601612965565b92505060206138f285828601612965565b9150509250929050565b61390581612ba9565b82525050565b600060208201905061392060008301846138fc565b92915050565b60008083601f84011261393c5761393b612ee1565b5b8235905067ffffffffffffffff81111561395957613958613659565b5b60208301915083600182028301111561397557613974612f8d565b5b9250929050565b600080600080600060608688031215613998576139976128d6565b5b60006139a688828901612c23565b955050602086013567ffffffffffffffff8111156139c7576139c66128db565b5b6139d388828901613926565b9450945050604086013567ffffffffffffffff8111156139f6576139f56128db565b5b613a0288828901613926565b92509250509295509295909350565b600080600060608486031215613a2a57613a296128d6565b5b6000613a3886828701612c23565b9350506020613a4986828701612965565b9250506040613a5a86828701612965565b9150509250925092565b60008060408385031215613a7b57613a7a6128d6565b5b6000613a8985828601612c23565b9250506020613a9a85828601612c23565b9150509250929050565b6000606082019050613ab9600083018661362f565b613ac6602083018561362f565b613ad360408301846138fc565b949350505050565b600060208284031215613af157613af06128d6565b5b6000613aff84828501612929565b91505092915050565b600082825260208201905092915050565b7f6d6f64656c206f776e6572206e6f7420666f756e640000000000000000000000600082015250565b6000613b4f601583613b08565b9150613b5a82613b19565b602082019050919050565b60006020820190508181036000830152613b7e81613b42565b9050919050565b7f6f6666736574206d757374206265203c206c656e677468206f66206c6973742060008201527f6f66206974656d73000000000000000000000000000000000000000000000000602082015250565b6000613be1602883613b08565b9150613bec82613b85565b604082019050919050565b60006020820190508181036000830152613c1081613bd4565b9050919050565b7f6f6666736574206d7573742062652030207768656e206e6f206974656d73206560008201527f7869737400000000000000000000000000000000000000000000000000000000602082015250565b6000613c73602483613b08565b9150613c7e82613c17565b604082019050919050565b60006020820190508181036000830152613ca281613c66565b9050919050565b7f6c696d6974206d757374206265203e203020616e64203c3d2033300000000000600082015250565b6000613cdf601b83613b08565b9150613cea82613ca9565b602082019050919050565b60006020820190508181036000830152613d0e81613cd2565b9050919050565b7f646966666963756c7479206d757374206265203c3d2032353600000000000000600082015250565b6000613d4b601983613b08565b9150613d5682613d15565b602082019050919050565b60006020820190508181036000830152613d7a81613d3e565b9050919050565b7f4e487b7100000000000000000000000000000000000000000000000000000000600052602260045260246000fd5b60006002820490506001821680613dc857607f821691505b602082108103613ddb57613dda613d81565b5b50919050565b7f6d6f64656c206e6f7420666f756e640000000000000000000000000000000000600082015250565b6000613e17600f83613b08565b9150613e2282613de1565b602082019050919050565b60006020820190508181036000830152613e4681613e0a565b9050919050565b7f696e76616c69642070726f766572000000000000000000000000000000000000600082015250565b6000613e83600e83613b08565b9150613e8e82613e4d565b602082019050919050565b60006020820190508181036000830152613eb281613e76565b9050919050565b7f6f6e6c79206d6f64656c206f776e65722063616e206578656375746500000000600082015250565b6000613eef601c83613b08565b9150613efa82613eb9565b602082019050919050565b60006020820190508181036000830152613f1e81613ee2565b9050919050565b7f636f6d6d6974206e6f7420666f756e6400000000000000000000000000000000600082015250565b6000613f5b601083613b08565b9150613f6682613f25565b602082019050919050565b60006020820190508181036000830152613f8a81613f4e565b9050919050565b7f636f6d6d697420616c72656164792072657665616c6564000000000000000000600082015250565b6000613fc7601783613b08565b9150613fd282613f91565b602082019050919050565b60006020820190508181036000830152613ff681613fba565b9050919050565b7f696e76616c6964206c6561766573000000000000000000000000000000000000600082015250565b6000614033600e83613b08565b915061403e82613ffd565b602082019050919050565b6000602082019050818103600083015261406281614026565b9050919050565b7f696e76616c6964204d65726b6c652070726f6f66730000000000000000000000600082015250565b600061409f601583613b08565b91506140aa82614069565b602082019050919050565b600060208201905081810360008301526140ce81614092565b9050919050565b7f656d707479206d6f64656c4e616d650000000000000000000000000000000000600082015250565b600061410b600f83613b08565b9150614116826140d5565b602082019050919050565b6000602082019050818103600083015261413a816140fe565b9050919050565b7f656d707479206d6f64656c4465736372697074696f6e00000000000000000000600082015250565b6000614177601683613b08565b915061418282614141565b602082019050919050565b600060208201905081810360008301526141a68161416a565b9050919050565b7f6d6f64656c20616c726561647920657869737473000000000000000000000000600082015250565b60006141e3601483613b08565b91506141ee826141ad565b602082019050919050565b60006020820190508181036000830152614212816141d6565b9050919050565b60008190508160005260206000209050919050565b60006020601f8301049050919050565b600082821b905092915050565b60006008830261427b7fffffffffffffffffffffffffffffffffffffffffffffffffffffffffffffffff8261423e565b614285868361423e565b95508019841693508086168417925050509392505050565b6000819050919050565b60006142c26142bd6142b884612ba9565b61429d565b612ba9565b9050919050565b6000819050919050565b6142dc836142a7565b6142f06142e8826142c9565b84845461424b565b825550505050565b600090565b6143056142f8565b6143108184846142d3565b505050565b5b81811015614334576143296000826142fd565b600181019050614316565b5050565b601f8211156143795761434a81614219565b6143538461422e565b81016020851015614362578190505b61437661436e8561422e565b830182614315565b50505b505050565b600082821c905092915050565b600061439c6000198460080261437e565b1980831691505092915050565b60006143b5838361438b565b9150826002028217905092915050565b6143ce82612a24565b67ffffffffffffffff8111156143e7576143e6612ee6565b5b6143f18254613db0565b6143fc828285614338565b600060209050601f83116001811461442f576000841561441d578287015190505b61442785826143a9565b86555061448f565b601f19841661443d86614219565b60005b8281101561446557848901518255600182019150602085019450602081019050614440565b86831015614482578489015161447e601f89168261438b565b8355505b6001600288020188555050505b505050505050565b600082905092915050565b6144ac8383614497565b67ffffffffffffffff8111156144c5576144c4612ee6565b5b6144cf8254613db0565b6144da828285614338565b6000601f83116001811461450957600084156144f7578287013590505b61450185826143a9565b865550614569565b601f19841661451786614219565b60005b8281101561453f5784890135825560018201915060208501945060208101905061451a565b8683101561455c5784890135614558601f89168261438b565b8355505b6001600288020188555050505b50505050505050565b7f4f776e61626c653a206e6577206f776e657220697320746865207a65726f206160008201527f6464726573730000000000000000000000000000000000000000000000000000602082015250565b60006145ce602683613b08565b91506145d982614572565b604082019050919050565b600060208201905081810360008301526145fd816145c1565b9050919050565b7f4e487b7100000000000000000000000000000000000000000000000000000000600052601160045260246000fd5b600061463e8261293e565b91506146498361293e565b9250828201905063ffffffff81111561466557614664614604565b5b92915050565b600061467682612ba9565b915061468183612ba9565b925082820390508181111561469957614698614604565b5b92915050565b7f4e487b7100000000000000000000000000000000000000000000000000000000600052603260045260246000fd5b60006146d98261293e565b915063ffffffff82036146ef576146ee614604565b5b600182019050919050565b7f4f776e61626c653a2063616c6c6572206973206e6f7420746865206f776e6572600082015250565b6000614730602083613b08565b915061473b826146fa565b602082019050919050565b6000602082019050818103600083015261475f81614723565b9050919050565b6000819050919050565b61478161477c82612ba9565b614766565b82525050565b60008160601b9050919050565b600061479f82614787565b9050919050565b60006147b182614794565b9050919050565b6147c96147c482612900565b6147a6565b82525050565b60006147db8285614770565b6020820191506147eb82846147b8565b6014820191508190509392505050565b600061480682612ba9565b91507fffffffffffffffffffffffffffffffffffffffffffffffffffffffffffffffff820361483857614837614604565b5b600182019050919050565b6000819050919050565b61485e61485982612a03565b614843565b82525050565b6000614870828661484d565b602082019150614880828561484d565b60208201915061489082846147b8565b601482019150819050949350505050565b7f636f6d6d697420616c7265616479206578697374730000000000000000000000600082015250565b60006148d7601583613b08565b91506148e2826148a1565b602082019050919050565b60006020820190508181036000830152614906816148ca565b9050919050565b60008160011c9050919050565b6000808291508390505b6001851115614964578086048111156149405761493f614604565b5b600185161561494f5780820291505b808102905061495d8561490d565b9450614924565b94509492505050565b60008261497d5760019050614a39565b8161498b5760009050614a39565b81600181146149a157600281146149ab576149da565b6001915050614a39565b60ff8411156149bd576149bc614604565b5b8360020a9150848211156149d4576149d3614604565b5b50614a39565b5060208310610133831016604e8410600b8410161715614a0f5782820a905083811115614a0a57614a09614604565b5b614a39565b614a1c848484600161491a565b92509050818404811115614a3357614a32614604565b5b81810290505b9392505050565b6000614a4b82612ba9565b9150614a5683612ba9565b9250614a837fffffffffffffffffffffffffffffffffffffffffffffffffffffffffffffffff848461496d565b905092915050565b7f4e487b7100000000000000000000000000000000000000000000000000000000600052601260045260246000fd5b6000614ac582612ba9565b9150614ad083612ba9565b925082614ae057614adf614a8b565b5b828206905092915050565b6000614af682612ba9565b9150614b0183612ba9565b9250828201905080821115614b1957614b18614604565b5b92915050565b7f4d65726b6c6550726f6f663a20696e76616c6964206d756c746970726f6f6600600082015250565b6000614b55601f83613b08565b9150614b6082614b1f565b602082019050919050565b60006020820190508181036000830152614b8481614b48565b9050919050565b614b9481612c74565b8114614b9f57600080fd5b50565b600081359050614bb181614b8b565b92915050565b600060208284031215614bcd57614bcc6128d6565b5b6000614bdb84828501614ba2565b9150509291505056fea2646970667358221220e3ffc567eba796001e45a3cda814d099f60ab0e009e28e3728b3833fdd72d8e064736f6c63430008110033",
  "linkReferences": {},
  "deployedLinkReferences": {}
}