{
  "_format": "hh-sol-artifact-1",
  "contractName": "Verifier",
  "sourceName": "contracts/src/Verifier.sol",
  "abi": [
    {
      "inputs": [],
      "stateMutability": "nonpayable",
      "type": "constructor"
    },
    {
      "anonymous": false,
      "inputs": [
        {
          "indexed": true,
          "internalType": "address",
          "name": "previousOwner",
          "type": "address"
        },
        {
          "indexed": true,
          "internalType": "address",
          "name": "newOwner",
          "type": "address"
        }
      ],
      "name": "OwnershipTransferred",
      "type": "event"
    },
    {
      "inputs": [
        {
          "internalType": "bytes32",
          "name": "commitmentModel",
          "type": "bytes32"
        },
        {
          "internalType": "bytes32",
          "name": "commitmentData",
          "type": "bytes32"
        },
        {
          "internalType": "bytes32",
          "name": "commitmentResults",
          "type": "bytes32"
        }
      ],
      "name": "commit",
      "outputs": [
        {
          "internalType": "uint256",
          "name": "commitmentId",
          "type": "uint256"
        },
        {
          "internalType": "bytes32",
          "name": "challenge",
          "type": "bytes32"
        }
      ],
      "stateMutability": "nonpayable",
      "type": "function"
    },
    {
      "inputs": [
        {
          "internalType": "bytes32",
          "name": "modelCommitment",
          "type": "bytes32"
        }
      ],
      "name": "getModelInfo",
      "outputs": [
        {
          "components": [
            {
              "internalType": "string",
              "name": "modelName",
              "type": "string"
            },
            {
              "internalType": "string",
              "name": "modelDescription",
              "type": "string"
            },
            {
              "internalType": "bytes32",
              "name": "modelCommitment",
              "type": "bytes32"
            }
          ],
          "internalType": "struct IVerifier.Model",
          "name": "model",
          "type": "tuple"
        }
      ],
      "stateMutability": "view",
      "type": "function"
    },
    {
      "inputs": [],
      "name": "getModels",
      "outputs": [
        {
          "internalType": "bytes32[]",
          "name": "models",
          "type": "bytes32[]"
        }
      ],
      "stateMutability": "view",
      "type": "function"
    },
    {
      "inputs": [],
      "name": "owner",
      "outputs": [
        {
          "internalType": "address",
          "name": "",
          "type": "address"
        }
      ],
      "stateMutability": "view",
      "type": "function"
    },
    {
      "inputs": [
        {
          "internalType": "string",
          "name": "modelName",
          "type": "string"
        },
        {
          "internalType": "string",
          "name": "modelDescription",
          "type": "string"
        },
        {
          "internalType": "bytes32",
          "name": "modelCommitment",
          "type": "bytes32"
        }
      ],
      "name": "registerModel",
      "outputs": [
        {
          "components": [
            {
              "internalType": "string",
              "name": "modelName",
              "type": "string"
            },
            {
              "internalType": "string",
              "name": "modelDescription",
              "type": "string"
            },
            {
              "internalType": "bytes32",
              "name": "modelCommitment",
              "type": "bytes32"
            }
          ],
          "internalType": "struct IVerifier.Model",
          "name": "model",
          "type": "tuple"
        }
      ],
      "stateMutability": "nonpayable",
      "type": "function"
    },
    {
      "inputs": [],
      "name": "renounceOwnership",
      "outputs": [],
      "stateMutability": "nonpayable",
      "type": "function"
    },
    {
      "inputs": [
        {
          "internalType": "uint256",
          "name": "commitmentId",
          "type": "uint256"
        },
        {
          "components": [
            {
              "components": [
                {
                  "internalType": "bytes32",
                  "name": "value",
                  "type": "bytes32"
                }
              ],
              "internalType": "struct IVerifier.Node",
              "name": "leaf",
              "type": "tuple"
            },
            {
              "components": [
                {
                  "internalType": "bytes32",
                  "name": "value",
                  "type": "bytes32"
                }
              ],
              "internalType": "struct IVerifier.Node[]",
              "name": "proof",
              "type": "tuple[]"
            }
          ],
          "internalType": "struct IVerifier.MerkleProof[]",
          "name": "merkleProofs",
          "type": "tuple[]"
        }
      ],
      "name": "reveal",
      "outputs": [
        {
          "components": [
            {
              "internalType": "bytes32",
              "name": "value",
              "type": "bytes32"
            }
          ],
          "internalType": "struct IVerifier.Node[]",
          "name": "verifiedNodes",
          "type": "tuple[]"
        }
      ],
      "stateMutability": "view",
      "type": "function"
    },
    {
      "inputs": [
        {
          "internalType": "address",
          "name": "newOwner",
          "type": "address"
        }
      ],
      "name": "transferOwnership",
      "outputs": [],
      "stateMutability": "nonpayable",
      "type": "function"
    },
    {
      "inputs": [
        {
          "internalType": "uint256",
          "name": "commitmentId",
          "type": "uint256"
        },
        {
          "components": [
            {
              "internalType": "uint256[2]",
              "name": "a",
              "type": "uint256[2]"
            },
            {
              "internalType": "uint256[2][2]",
              "name": "b",
              "type": "uint256[2][2]"
            },
            {
              "internalType": "uint256[2]",
              "name": "c",
              "type": "uint256[2]"
            },
            {
              "internalType": "uint256[16]",
              "name": "input",
              "type": "uint256[16]"
            }
          ],
          "internalType": "struct IVerifier.Zkp[]",
          "name": "zkps",
          "type": "tuple[]"
        }
      ],
      "name": "verify",
      "outputs": [
        {
          "components": [
            {
              "components": [
                {
                  "internalType": "uint256[2]",
                  "name": "a",
                  "type": "uint256[2]"
                },
                {
                  "internalType": "uint256[2][2]",
                  "name": "b",
                  "type": "uint256[2][2]"
                },
                {
                  "internalType": "uint256[2]",
                  "name": "c",
                  "type": "uint256[2]"
                },
                {
                  "internalType": "uint256[16]",
                  "name": "input",
                  "type": "uint256[16]"
                }
              ],
              "internalType": "struct IVerifier.Zkp",
              "name": "zkp",
              "type": "tuple"
            },
            {
              "internalType": "bool",
              "name": "isValid",
              "type": "bool"
            }
          ],
          "internalType": "struct IVerifier.ZkpWithValidity[]",
          "name": "zkpVerifications",
          "type": "tuple[]"
        }
      ],
      "stateMutability": "nonpayable",
      "type": "function"
    }
  ],
  "bytecode": "0x608060405234801561001057600080fd5b5061002d61002261003260201b60201c565b61003a60201b60201c565b6100fe565b600033905090565b60008060009054906101000a900473ffffffffffffffffffffffffffffffffffffffff169050816000806101000a81548173ffffffffffffffffffffffffffffffffffffffff021916908373ffffffffffffffffffffffffffffffffffffffff1602179055508173ffffffffffffffffffffffffffffffffffffffff168173ffffffffffffffffffffffffffffffffffffffff167f8be0079c531659141344cd1fd0a4f28419497f9722a3daafe3b4186f6b6457e060405160405180910390a35050565b61138d8061010d6000396000f3fe608060405234801561001057600080fd5b50600436106100935760003560e01c8063b005b08b11610066578063b005b08b1461010e578063e4e5b2581461013e578063f1769fe21461016f578063f2fde38b1461019f578063fe032d62146101bb57610093565b806309817d4514610098578063715018a6146100b65780638da5cb5b146100c05780638e6906f0146100de575b600080fd5b6100a06101eb565b6040516100ad9190610520565b60405180910390f35b6100be6101f0565b005b6100c8610204565b6040516100d59190610583565b60405180910390f35b6100f860048036038101906100f391906109d5565b61022d565b6040516101059190610d4f565b60405180910390f35b61012860048036038101906101239190610d9d565b610235565b6040516101359190610ea0565b60405180910390f35b61015860048036038101906101539190610ec2565b610242565b604051610166929190610f33565b60405180910390f35b61018960048036038101906101849190610fb7565b61024d565b60405161019691906110e2565b60405180910390f35b6101b960048036038101906101b49190611130565b610256565b005b6101d560048036038101906101d091906111b3565b6102d9565b6040516101e29190610ea0565b60405180910390f35b606090565b6101f86102ea565b6102026000610368565b565b60008060009054906101000a900473ffffffffffffffffffffffffffffffffffffffff16905090565b606092915050565b61023d610434565b919050565b600080935093915050565b60609392505050565b61025e6102ea565b600073ffffffffffffffffffffffffffffffffffffffff168173ffffffffffffffffffffffffffffffffffffffff16036102cd576040517f08c379a00000000000000000000000000000000000000000000000000000000081526004016102c4906112cb565b60405180910390fd5b6102d681610368565b50565b6102e1610434565b95945050505050565b6102f261042c565b73ffffffffffffffffffffffffffffffffffffffff16610310610204565b73ffffffffffffffffffffffffffffffffffffffff1614610366576040517f08c379a000000000000000000000000000000000000000000000000000000000815260040161035d90611337565b60405180910390fd5b565b60008060009054906101000a900473ffffffffffffffffffffffffffffffffffffffff169050816000806101000a81548173ffffffffffffffffffffffffffffffffffffffff021916908373ffffffffffffffffffffffffffffffffffffffff1602179055508173ffffffffffffffffffffffffffffffffffffffff168173ffffffffffffffffffffffffffffffffffffffff167f8be0079c531659141344cd1fd0a4f28419497f9722a3daafe3b4186f6b6457e060405160405180910390a35050565b600033905090565b60405180606001604052806060815260200160608152602001600080191681525090565b600081519050919050565b600082825260208201905092915050565b6000819050602082019050919050565b6000819050919050565b61049781610484565b82525050565b60006104a9838361048e565b60208301905092915050565b6000602082019050919050565b60006104cd82610458565b6104d78185610463565b93506104e283610474565b8060005b838110156105135781516104fa888261049d565b9750610505836104b5565b9250506001810190506104e6565b5085935050505092915050565b6000602082019050818103600083015261053a81846104c2565b905092915050565b600073ffffffffffffffffffffffffffffffffffffffff82169050919050565b600061056d82610542565b9050919050565b61057d81610562565b82525050565b60006020820190506105986000830184610574565b92915050565b6000604051905090565b600080fd5b600080fd5b6000819050919050565b6105c5816105b2565b81146105d057600080fd5b50565b6000813590506105e2816105bc565b92915050565b600080fd5b6000601f19601f8301169050919050565b7f4e487b7100000000000000000000000000000000000000000000000000000000600052604160045260246000fd5b610636826105ed565b810181811067ffffffffffffffff82111715610655576106546105fe565b5b80604052505050565b600061066861059e565b9050610674828261062d565b919050565b600067ffffffffffffffff821115610694576106936105fe565b5b602082029050602081019050919050565b600080fd5b600080fd5b600067ffffffffffffffff8211156106ca576106c96105fe565b5b602082029050919050565b60006106e86106e3846106af565b61065e565b90508060208402830185811115610702576107016106a5565b5b835b8181101561072b578061071788826105d3565b845260208401935050602081019050610704565b5050509392505050565b600082601f83011261074a576107496105e8565b5b60026107578482856106d5565b91505092915050565b600067ffffffffffffffff82111561077b5761077a6105fe565b5b602082029050919050565b600061079961079484610760565b61065e565b905080604084028301858111156107b3576107b26106a5565b5b835b818110156107dc57806107c88882610735565b8452602084019350506040810190506107b5565b5050509392505050565b600082601f8301126107fb576107fa6105e8565b5b6002610808848285610786565b91505092915050565b600067ffffffffffffffff82111561082c5761082b6105fe565b5b602082029050919050565b600061084a61084584610811565b61065e565b90508060208402830185811115610864576108636106a5565b5b835b8181101561088d578061087988826105d3565b845260208401935050602081019050610866565b5050509392505050565b600082601f8301126108ac576108ab6105e8565b5b60106108b9848285610837565b91505092915050565b600061030082840312156108d9576108d86106aa565b5b6108e3608061065e565b905060006108f384828501610735565b6000830152506040610907848285016107e6565b60208301525060c061091b84828501610735565b60408301525061010061093084828501610897565b60608301525092915050565b600061094f61094a84610679565b61065e565b9050808382526020820190506103008402830185811115610973576109726106a5565b5b835b8181101561099d578061098888826108c2565b84526020840193505061030081019050610975565b5050509392505050565b600082601f8301126109bc576109bb6105e8565b5b81356109cc84826020860161093c565b91505092915050565b600080604083850312156109ec576109eb6105a8565b5b60006109fa858286016105d3565b925050602083013567ffffffffffffffff811115610a1b57610a1a6105ad565b5b610a27858286016109a7565b9150509250929050565b600081519050919050565b600082825260208201905092915050565b6000819050602082019050919050565b600060029050919050565b600081905092915050565b6000819050919050565b610a86816105b2565b82525050565b6000610a988383610a7d565b60208301905092915050565b6000602082019050919050565b610aba81610a5d565b610ac48184610a68565b9250610acf82610a73565b8060005b83811015610b00578151610ae78782610a8c565b9650610af283610aa4565b925050600181019050610ad3565b505050505050565b600060029050919050565b600081905092915050565b6000819050919050565b6000610b348383610ab1565b60408301905092915050565b6000602082019050919050565b610b5681610b08565b610b608184610b13565b9250610b6b82610b1e565b8060005b83811015610b9c578151610b838782610b28565b9650610b8e83610b40565b925050600181019050610b6f565b505050505050565b600060109050919050565b600081905092915050565b6000819050919050565b6000602082019050919050565b610bda81610ba4565b610be48184610baf565b9250610bef82610bba565b8060005b83811015610c20578151610c078782610a8c565b9650610c1283610bc4565b925050600181019050610bf3565b505050505050565b61030082016000820151610c3f6000850182610ab1565b506020820151610c526040850182610b4d565b506040820151610c6560c0850182610ab1565b506060820151610c79610100850182610bd1565b50505050565b60008115159050919050565b610c9481610c7f565b82525050565b61032082016000820151610cb16000850182610c28565b506020820151610cc5610300850182610c8b565b50505050565b6000610cd78383610c9a565b6103208301905092915050565b6000602082019050919050565b6000610cfc82610a31565b610d068185610a3c565b9350610d1183610a4d565b8060005b83811015610d42578151610d298882610ccb565b9750610d3483610ce4565b925050600181019050610d15565b5085935050505092915050565b60006020820190508181036000830152610d698184610cf1565b905092915050565b610d7a81610484565b8114610d8557600080fd5b50565b600081359050610d9781610d71565b92915050565b600060208284031215610db357610db26105a8565b5b6000610dc184828501610d88565b91505092915050565b600081519050919050565b600082825260208201905092915050565b60005b83811015610e04578082015181840152602081019050610de9565b60008484015250505050565b6000610e1b82610dca565b610e258185610dd5565b9350610e35818560208601610de6565b610e3e816105ed565b840191505092915050565b60006060830160008301518482036000860152610e668282610e10565b91505060208301518482036020860152610e808282610e10565b9150506040830151610e95604086018261048e565b508091505092915050565b60006020820190508181036000830152610eba8184610e49565b905092915050565b600080600060608486031215610edb57610eda6105a8565b5b6000610ee986828701610d88565b9350506020610efa86828701610d88565b9250506040610f0b86828701610d88565b9150509250925092565b610f1e816105b2565b82525050565b610f2d81610484565b82525050565b6000604082019050610f486000830185610f15565b610f556020830184610f24565b9392505050565b600080fd5b60008083601f840112610f7757610f766105e8565b5b8235905067ffffffffffffffff811115610f9457610f93610f5c565b5b602083019150836020820283011115610fb057610faf6106a5565b5b9250929050565b600080600060408486031215610fd057610fcf6105a8565b5b6000610fde868287016105d3565b935050602084013567ffffffffffffffff811115610fff57610ffe6105ad565b5b61100b86828701610f61565b92509250509250925092565b600081519050919050565b600082825260208201905092915050565b6000819050602082019050919050565b602082016000820151611059600085018261048e565b50505050565b600061106b8383611043565b60208301905092915050565b6000602082019050919050565b600061108f82611017565b6110998185611022565b93506110a483611033565b8060005b838110156110d55781516110bc888261105f565b97506110c783611077565b9250506001810190506110a8565b5085935050505092915050565b600060208201905081810360008301526110fc8184611084565b905092915050565b61110d81610562565b811461111857600080fd5b50565b60008135905061112a81611104565b92915050565b600060208284031215611146576111456105a8565b5b60006111548482850161111b565b91505092915050565b60008083601f840112611173576111726105e8565b5b8235905067ffffffffffffffff8111156111905761118f610f5c565b5b6020830191508360018202830111156111ac576111ab6106a5565b5b9250929050565b6000806000806000606086880312156111cf576111ce6105a8565b5b600086013567ffffffffffffffff8111156111ed576111ec6105ad565b5b6111f98882890161115d565b9550955050602086013567ffffffffffffffff81111561121c5761121b6105ad565b5b6112288882890161115d565b9350935050604061123b88828901610d88565b9150509295509295909350565b600082825260208201905092915050565b7f4f776e61626c653a206e6577206f776e657220697320746865207a65726f206160008201527f6464726573730000000000000000000000000000000000000000000000000000602082015250565b60006112b5602683611248565b91506112c082611259565b604082019050919050565b600060208201905081810360008301526112e4816112a8565b9050919050565b7f4f776e61626c653a2063616c6c6572206973206e6f7420746865206f776e6572600082015250565b6000611321602083611248565b915061132c826112eb565b602082019050919050565b6000602082019050818103600083015261135081611314565b905091905056fea26469706673582212209d23fea9be6c05db2d1850e24e7a19ae1d409843f82a6f214c7641ed49edd72364736f6c63430008110033",
  "linkReferences": {},
  "deployedLinkReferences": {}
}