{
  "_format": "hh-sol-artifact-1",
  "contractName": "Verifier",
  "sourceName": "contracts/src/Verifier.sol",
  "abi": [
    {
      "inputs": [],
      "stateMutability": "nonpayable",
      "type": "constructor"
    },
    {
      "anonymous": false,
      "inputs": [
        {
          "indexed": true,
          "internalType": "IVerifier.Hash",
          "name": "hash",
          "type": "bytes32"
        },
        {
          "indexed": true,
          "internalType": "address",
          "name": "owner",
          "type": "address"
        },
        {
          "indexed": false,
          "internalType": "string",
          "name": "name",
          "type": "string"
        },
        {
          "indexed": false,
          "internalType": "string",
          "name": "description",
          "type": "string"
        }
      ],
      "name": "ModelRegistration",
      "type": "event"
    },
    {
      "anonymous": false,
      "inputs": [
        {
          "indexed": true,
          "internalType": "address",
          "name": "previousOwner",
          "type": "address"
        },
        {
          "indexed": true,
          "internalType": "address",
          "name": "newOwner",
          "type": "address"
        }
      ],
      "name": "OwnershipTransferred",
      "type": "event"
    },
    {
      "inputs": [
        {
          "internalType": "bytes32",
          "name": "commitmentModel",
          "type": "bytes32"
        },
        {
          "internalType": "bytes32",
          "name": "commitmentData",
          "type": "bytes32"
        },
        {
          "internalType": "bytes32",
          "name": "commitmentResults",
          "type": "bytes32"
        }
      ],
      "name": "commit",
      "outputs": [
        {
          "internalType": "uint256",
          "name": "commitmentId",
          "type": "uint256"
        },
        {
          "internalType": "bytes32",
          "name": "challenge",
          "type": "bytes32"
        }
      ],
      "stateMutability": "nonpayable",
      "type": "function"
    },
    {
      "inputs": [
        {
          "internalType": "IVerifier.Hash",
          "name": "modelCommitment",
          "type": "bytes32"
        }
      ],
      "name": "getModelInfo",
      "outputs": [
        {
          "components": [
            {
              "internalType": "string",
              "name": "name",
              "type": "string"
            },
            {
              "internalType": "string",
              "name": "description",
              "type": "string"
            },
            {
              "internalType": "address",
              "name": "owner",
              "type": "address"
            }
          ],
          "internalType": "struct IVerifier.Model",
          "name": "modelInfo",
          "type": "tuple"
        }
      ],
      "stateMutability": "view",
      "type": "function"
    },
    {
      "inputs": [
        {
          "internalType": "address",
          "name": "ownerAddress",
          "type": "address"
        },
        {
          "internalType": "uint32",
          "name": "offset",
          "type": "uint32"
        },
        {
          "internalType": "uint32",
          "name": "limit",
          "type": "uint32"
        }
      ],
      "name": "getModels",
      "outputs": [
        {
          "components": [
            {
              "internalType": "IVerifier.Hash",
              "name": "commitment",
              "type": "bytes32"
            },
            {
              "internalType": "string",
              "name": "name",
              "type": "string"
            }
          ],
          "internalType": "struct IVerifier.ModelCommitment[]",
          "name": "modelCommitments",
          "type": "tuple[]"
        }
      ],
      "stateMutability": "view",
      "type": "function"
    },
    {
      "inputs": [],
      "name": "owner",
      "outputs": [
        {
          "internalType": "address",
          "name": "",
          "type": "address"
        }
      ],
      "stateMutability": "view",
      "type": "function"
    },
    {
      "inputs": [
        {
          "internalType": "IVerifier.Hash",
          "name": "modelCommitment",
          "type": "bytes32"
        },
        {
          "internalType": "string",
          "name": "modelName",
          "type": "string"
        },
        {
          "internalType": "string",
          "name": "modelDescription",
          "type": "string"
        }
      ],
      "name": "registerModel",
      "outputs": [
        {
          "components": [
            {
              "internalType": "string",
              "name": "name",
              "type": "string"
            },
            {
              "internalType": "string",
              "name": "description",
              "type": "string"
            },
            {
              "internalType": "address",
              "name": "owner",
              "type": "address"
            }
          ],
          "internalType": "struct IVerifier.Model",
          "name": "modelInfo",
          "type": "tuple"
        }
      ],
      "stateMutability": "nonpayable",
      "type": "function"
    },
    {
      "inputs": [],
      "name": "renounceOwnership",
      "outputs": [],
      "stateMutability": "nonpayable",
      "type": "function"
    },
    {
      "inputs": [
        {
          "internalType": "uint256",
          "name": "commitmentId",
          "type": "uint256"
        },
        {
          "components": [
            {
              "internalType": "IVerifier.Hash",
              "name": "leaf",
              "type": "bytes32"
            },
            {
              "internalType": "IVerifier.Hash[]",
              "name": "proof",
              "type": "bytes32[]"
            }
          ],
          "internalType": "struct IVerifier.MerkleProof[]",
          "name": "merkleProofs",
          "type": "tuple[]"
        }
      ],
      "name": "reveal",
      "outputs": [
        {
          "internalType": "IVerifier.Hash[]",
          "name": "verifiedNodes",
          "type": "bytes32[]"
        }
      ],
      "stateMutability": "view",
      "type": "function"
    },
    {
      "inputs": [
        {
          "internalType": "address",
          "name": "newOwner",
          "type": "address"
        }
      ],
      "name": "transferOwnership",
      "outputs": [],
      "stateMutability": "nonpayable",
      "type": "function"
    },
    {
      "inputs": [
        {
          "internalType": "uint256",
          "name": "commitmentId",
          "type": "uint256"
        },
        {
          "components": [
            {
              "internalType": "uint256[2]",
              "name": "a",
              "type": "uint256[2]"
            },
            {
              "internalType": "uint256[2][2]",
              "name": "b",
              "type": "uint256[2][2]"
            },
            {
              "internalType": "uint256[2]",
              "name": "c",
              "type": "uint256[2]"
            },
            {
              "internalType": "uint256[16]",
              "name": "input",
              "type": "uint256[16]"
            }
          ],
          "internalType": "struct IVerifier.Zkp[]",
          "name": "zkps",
          "type": "tuple[]"
        }
      ],
      "name": "verify",
      "outputs": [
        {
          "components": [
            {
              "components": [
                {
                  "internalType": "uint256[2]",
                  "name": "a",
                  "type": "uint256[2]"
                },
                {
                  "internalType": "uint256[2][2]",
                  "name": "b",
                  "type": "uint256[2][2]"
                },
                {
                  "internalType": "uint256[2]",
                  "name": "c",
                  "type": "uint256[2]"
                },
                {
                  "internalType": "uint256[16]",
                  "name": "input",
                  "type": "uint256[16]"
                }
              ],
              "internalType": "struct IVerifier.Zkp",
              "name": "zkp",
              "type": "tuple"
            },
            {
              "internalType": "bool",
              "name": "isValid",
              "type": "bool"
            }
          ],
          "internalType": "struct IVerifier.ZkpWithValidity[]",
          "name": "zkpVerifications",
          "type": "tuple[]"
        }
      ],
      "stateMutability": "nonpayable",
      "type": "function"
    }
  ],
  "bytecode": "0x60806040523480156200001157600080fd5b5062000032620000266200003860201b60201c565b6200004060201b60201c565b62000104565b600033905090565b60008060009054906101000a900473ffffffffffffffffffffffffffffffffffffffff169050816000806101000a81548173ffffffffffffffffffffffffffffffffffffffff021916908373ffffffffffffffffffffffffffffffffffffffff1602179055508173ffffffffffffffffffffffffffffffffffffffff168173ffffffffffffffffffffffffffffffffffffffff167f8be0079c531659141344cd1fd0a4f28419497f9722a3daafe3b4186f6b6457e060405160405180910390a35050565b6126ca80620001146000396000f3fe608060405234801561001057600080fd5b50600436106100935760003560e01c806395ee7a281161006657806395ee7a2814610120578063b005b08b14610150578063c46bfb1f14610180578063e4e5b258146101b0578063f2fde38b146101e157610093565b80632e08318114610098578063715018a6146100c85780638da5cb5b146100d25780638e6906f0146100f0575b600080fd5b6100b260048036038101906100ad9190610fa4565b6101fd565b6040516100bf91906111b1565b60405180910390f35b6100d0610546565b005b6100da61055a565b6040516100e791906111e2565b60405180910390f35b61010a6004803603810190610105919061160f565b610583565b6040516101179190611989565b60405180910390f35b61013a60048036038101906101359190611a06565b61058b565b6040516101479190611b15565b60405180910390f35b61016a60048036038101906101659190611b63565b610594565b6040516101779190611bf6565b60405180910390f35b61019a60048036038101906101959190611c6e565b6107e7565b6040516101a79190611bf6565b60405180910390f35b6101ca60048036038101906101c59190611d2f565b610bc0565b6040516101d8929190611da0565b60405180910390f35b6101fb60048036038101906101f69190611dc9565b610bcb565b005b6060600180805490506102109190611e25565b8363ffffffff161115801561022c575060008363ffffffff1610155b61026b576040517f08c379a000000000000000000000000000000000000000000000000000000000815260040161026290611eb6565b60405180910390fd5b60008263ffffffff1610156102b5576040517f08c379a00000000000000000000000000000000000000000000000000000000081526004016102ac90611f22565b60405180910390fd5b60008263ffffffff16036102c857601491505b600073ffffffffffffffffffffffffffffffffffffffff168473ffffffffffffffffffffffffffffffffffffffff1603610401576103fa6001805480602002602001604051908101604052809291908181526020016000905b828210156103ef57838290600052602060002090600202016040518060400160405290816000820154815260200160018201805461035e90611f71565b80601f016020809104026020016040519081016040528092919081815260200182805461038a90611f71565b80156103d75780601f106103ac576101008083540402835291602001916103d7565b820191906000526020600020905b8154815290600101906020018083116103ba57829003601f168201915b50505050508152505081526020019060010190610321565b505050508484610c4e565b905061053f565b61053c600260008673ffffffffffffffffffffffffffffffffffffffff1673ffffffffffffffffffffffffffffffffffffffff168152602001908152602001600020805480602002602001604051908101604052809291908181526020016000905b828210156105315783829060005260206000209060020201604051806040016040529081600082015481526020016001820180546104a090611f71565b80601f01602080910402602001604051908101604052809291908181526020018280546104cc90611f71565b80156105195780601f106104ee57610100808354040283529160200191610519565b820191906000526020600020905b8154815290600101906020018083116104fc57829003601f168201915b50505050508152505081526020019060010190610463565b505050508484610c4e565b90505b9392505050565b61054e610d58565b6105586000610dd6565b565b60008060009054906101000a900473ffffffffffffffffffffffffffffffffffffffff16905090565b606092915050565b60609392505050565b61059c610ea2565b6000602060ff16036105e3576040517f08c379a00000000000000000000000000000000000000000000000000000000081526004016105da90611fee565b60405180910390fd5b600060036000848152602001908152602001600020600001805461060690611f71565b905003610648576040517f08c379a000000000000000000000000000000000000000000000000000000000815260040161063f9061205a565b60405180910390fd5b6003600083815260200190815260200160002060405180606001604052908160008201805461067690611f71565b80601f01602080910402602001604051908101604052809291908181526020018280546106a290611f71565b80156106ef5780601f106106c4576101008083540402835291602001916106ef565b820191906000526020600020905b8154815290600101906020018083116106d257829003601f168201915b5050505050815260200160018201805461070890611f71565b80601f016020809104026020016040519081016040528092919081815260200182805461073490611f71565b80156107815780601f1061075657610100808354040283529160200191610781565b820191906000526020600020905b81548152906001019060200180831161076457829003601f168201915b505050505081526020016002820160009054906101000a900473ffffffffffffffffffffffffffffffffffffffff1673ffffffffffffffffffffffffffffffffffffffff1673ffffffffffffffffffffffffffffffffffffffff16815250509050919050565b6107ef610ea2565b600060036000888152602001908152602001600020600001805461081290611f71565b905014610854576040517f08c379a000000000000000000000000000000000000000000000000000000000815260040161084b906120c6565b60405180910390fd5b6000858590500361089a576040517f08c379a000000000000000000000000000000000000000000000000000000000815260040161089190612132565b60405180910390fd5b600083839050036108e0576040517f08c379a00000000000000000000000000000000000000000000000000000000081526004016108d79061219e565b60405180910390fd5b6000604051806040016040528088815260200187878080601f016020809104026020016040519081016040528093929190818152602001838380828437600081840152601f19601f8201169050808301925050505050505081525090506001819080600181540180825580915050600190039060005260206000209060020201600090919091909150600082015181600001556020820151816001019081610988919061236a565b505050600260003373ffffffffffffffffffffffffffffffffffffffff1673ffffffffffffffffffffffffffffffffffffffff168152602001908152602001600020819080600181540180825580915050600190039060005260206000209060020201600090919091909150600082015181600001556020820151816001019081610a13919061236a565b5050506000604051806060016040528088888080601f016020809104026020016040519081016040528093929190818152602001838380828437600081840152601f19601f82011690508083019250505050505050815260200186868080601f016020809104026020016040519081016040528093929190818152602001838380828437600081840152601f19601f8201169050808301925050505050505081526020013373ffffffffffffffffffffffffffffffffffffffff16815250905080600360008a81526020019081526020016000206000820151816000019081610afc919061236a565b506020820151816001019081610b12919061236a565b5060408201518160020160006101000a81548173ffffffffffffffffffffffffffffffffffffffff021916908373ffffffffffffffffffffffffffffffffffffffff1602179055509050503373ffffffffffffffffffffffffffffffffffffffff16887f2696159d4be01a3f65ab63966a1eeb8bc9d72476c090db477897d725a4400b1789898989604051610baa9493929190612478565b60405180910390a3809250505095945050505050565b600080935093915050565b610bd3610d58565b600073ffffffffffffffffffffffffffffffffffffffff168173ffffffffffffffffffffffffffffffffffffffff1603610c42576040517f08c379a0000000000000000000000000000000000000000000000000000000008152600401610c3990612525565b60405180910390fd5b610c4b81610dd6565b50565b606083518284610c5e9190612545565b63ffffffff161115610c80578263ffffffff168451610c7d9190611e25565b91505b60008263ffffffff1667ffffffffffffffff811115610ca257610ca1611238565b5b604051908082528060200260200182016040528015610cdb57816020015b610cc8610ed9565b815260200190600190039081610cc05790505b50905060005b8363ffffffff16811015610d4c5785818663ffffffff16610d02919061257d565b81518110610d1357610d126125b1565b5b6020026020010151828281518110610d2e57610d2d6125b1565b5b60200260200101819052508080610d44906125e0565b915050610ce1565b50809150509392505050565b610d60610e9a565b73ffffffffffffffffffffffffffffffffffffffff16610d7e61055a565b73ffffffffffffffffffffffffffffffffffffffff1614610dd4576040517f08c379a0000000000000000000000000000000000000000000000000000000008152600401610dcb90612674565b60405180910390fd5b565b60008060009054906101000a900473ffffffffffffffffffffffffffffffffffffffff169050816000806101000a81548173ffffffffffffffffffffffffffffffffffffffff021916908373ffffffffffffffffffffffffffffffffffffffff1602179055508173ffffffffffffffffffffffffffffffffffffffff168173ffffffffffffffffffffffffffffffffffffffff167f8be0079c531659141344cd1fd0a4f28419497f9722a3daafe3b4186f6b6457e060405160405180910390a35050565b600033905090565b60405180606001604052806060815260200160608152602001600073ffffffffffffffffffffffffffffffffffffffff1681525090565b604051806040016040528060008019168152602001606081525090565b6000604051905090565b600080fd5b600080fd5b600073ffffffffffffffffffffffffffffffffffffffff82169050919050565b6000610f3582610f0a565b9050919050565b610f4581610f2a565b8114610f5057600080fd5b50565b600081359050610f6281610f3c565b92915050565b600063ffffffff82169050919050565b610f8181610f68565b8114610f8c57600080fd5b50565b600081359050610f9e81610f78565b92915050565b600080600060608486031215610fbd57610fbc610f00565b5b6000610fcb86828701610f53565b9350506020610fdc86828701610f8f565b9250506040610fed86828701610f8f565b9150509250925092565b600081519050919050565b600082825260208201905092915050565b6000819050602082019050919050565b6000819050919050565b600061103882611023565b9050919050565b6110488161102d565b82525050565b600081519050919050565b600082825260208201905092915050565b60005b8381101561108857808201518184015260208101905061106d565b60008484015250505050565b6000601f19601f8301169050919050565b60006110b08261104e565b6110ba8185611059565b93506110ca81856020860161106a565b6110d381611094565b840191505092915050565b60006040830160008301516110f6600086018261103f565b506020830151848203602086015261110e82826110a5565b9150508091505092915050565b600061112783836110de565b905092915050565b6000602082019050919050565b600061114782610ff7565b6111518185611002565b93508360208202850161116385611013565b8060005b8581101561119f5784840389528151611180858261111b565b945061118b8361112f565b925060208a01995050600181019050611167565b50829750879550505050505092915050565b600060208201905081810360008301526111cb818461113c565b905092915050565b6111dc81610f2a565b82525050565b60006020820190506111f760008301846111d3565b92915050565b6000819050919050565b611210816111fd565b811461121b57600080fd5b50565b60008135905061122d81611207565b92915050565b600080fd5b7f4e487b7100000000000000000000000000000000000000000000000000000000600052604160045260246000fd5b61127082611094565b810181811067ffffffffffffffff8211171561128f5761128e611238565b5b80604052505050565b60006112a2610ef6565b90506112ae8282611267565b919050565b600067ffffffffffffffff8211156112ce576112cd611238565b5b602082029050602081019050919050565b600080fd5b600080fd5b600067ffffffffffffffff82111561130457611303611238565b5b602082029050919050565b600061132261131d846112e9565b611298565b9050806020840283018581111561133c5761133b6112df565b5b835b818110156113655780611351888261121e565b84526020840193505060208101905061133e565b5050509392505050565b600082601f83011261138457611383611233565b5b600261139184828561130f565b91505092915050565b600067ffffffffffffffff8211156113b5576113b4611238565b5b602082029050919050565b60006113d36113ce8461139a565b611298565b905080604084028301858111156113ed576113ec6112df565b5b835b818110156114165780611402888261136f565b8452602084019350506040810190506113ef565b5050509392505050565b600082601f83011261143557611434611233565b5b60026114428482856113c0565b91505092915050565b600067ffffffffffffffff82111561146657611465611238565b5b602082029050919050565b600061148461147f8461144b565b611298565b9050806020840283018581111561149e5761149d6112df565b5b835b818110156114c757806114b3888261121e565b8452602084019350506020810190506114a0565b5050509392505050565b600082601f8301126114e6576114e5611233565b5b60106114f3848285611471565b91505092915050565b60006103008284031215611513576115126112e4565b5b61151d6080611298565b9050600061152d8482850161136f565b600083015250604061154184828501611420565b60208301525060c06115558482850161136f565b60408301525061010061156a848285016114d1565b60608301525092915050565b6000611589611584846112b3565b611298565b90508083825260208201905061030084028301858111156115ad576115ac6112df565b5b835b818110156115d757806115c288826114fc565b845260208401935050610300810190506115af565b5050509392505050565b600082601f8301126115f6576115f5611233565b5b8135611606848260208601611576565b91505092915050565b6000806040838503121561162657611625610f00565b5b60006116348582860161121e565b925050602083013567ffffffffffffffff81111561165557611654610f05565b5b611661858286016115e1565b9150509250929050565b600081519050919050565b600082825260208201905092915050565b6000819050602082019050919050565b600060029050919050565b600081905092915050565b6000819050919050565b6116c0816111fd565b82525050565b60006116d283836116b7565b60208301905092915050565b6000602082019050919050565b6116f481611697565b6116fe81846116a2565b9250611709826116ad565b8060005b8381101561173a57815161172187826116c6565b965061172c836116de565b92505060018101905061170d565b505050505050565b600060029050919050565b600081905092915050565b6000819050919050565b600061176e83836116eb565b60408301905092915050565b6000602082019050919050565b61179081611742565b61179a818461174d565b92506117a582611758565b8060005b838110156117d65781516117bd8782611762565b96506117c88361177a565b9250506001810190506117a9565b505050505050565b600060109050919050565b600081905092915050565b6000819050919050565b6000602082019050919050565b611814816117de565b61181e81846117e9565b9250611829826117f4565b8060005b8381101561185a57815161184187826116c6565b965061184c836117fe565b92505060018101905061182d565b505050505050565b6103008201600082015161187960008501826116eb565b50602082015161188c6040850182611787565b50604082015161189f60c08501826116eb565b5060608201516118b361010085018261180b565b50505050565b60008115159050919050565b6118ce816118b9565b82525050565b610320820160008201516118eb6000850182611862565b5060208201516118ff6103008501826118c5565b50505050565b600061191183836118d4565b6103208301905092915050565b6000602082019050919050565b60006119368261166b565b6119408185611676565b935061194b83611687565b8060005b8381101561197c5781516119638882611905565b975061196e8361191e565b92505060018101905061194f565b5085935050505092915050565b600060208201905081810360008301526119a3818461192b565b905092915050565b600080fd5b60008083601f8401126119c6576119c5611233565b5b8235905067ffffffffffffffff8111156119e3576119e26119ab565b5b6020830191508360208202830111156119ff576119fe6112df565b5b9250929050565b600080600060408486031215611a1f57611a1e610f00565b5b6000611a2d8682870161121e565b935050602084013567ffffffffffffffff811115611a4e57611a4d610f05565b5b611a5a868287016119b0565b92509250509250925092565b600081519050919050565b600082825260208201905092915050565b6000819050602082019050919050565b6000611a9e838361103f565b60208301905092915050565b6000602082019050919050565b6000611ac282611a66565b611acc8185611a71565b9350611ad783611a82565b8060005b83811015611b08578151611aef8882611a92565b9750611afa83611aaa565b925050600181019050611adb565b5085935050505092915050565b60006020820190508181036000830152611b2f8184611ab7565b905092915050565b611b4081611023565b8114611b4b57600080fd5b50565b600081359050611b5d81611b37565b92915050565b600060208284031215611b7957611b78610f00565b5b6000611b8784828501611b4e565b91505092915050565b611b9981610f2a565b82525050565b60006060830160008301518482036000860152611bbc82826110a5565b91505060208301518482036020860152611bd682826110a5565b9150506040830151611beb6040860182611b90565b508091505092915050565b60006020820190508181036000830152611c108184611b9f565b905092915050565b60008083601f840112611c2e57611c2d611233565b5b8235905067ffffffffffffffff811115611c4b57611c4a6119ab565b5b602083019150836001820283011115611c6757611c666112df565b5b9250929050565b600080600080600060608688031215611c8a57611c89610f00565b5b6000611c9888828901611b4e565b955050602086013567ffffffffffffffff811115611cb957611cb8610f05565b5b611cc588828901611c18565b9450945050604086013567ffffffffffffffff811115611ce857611ce7610f05565b5b611cf488828901611c18565b92509250509295509295909350565b611d0c81611023565b8114611d1757600080fd5b50565b600081359050611d2981611d03565b92915050565b600080600060608486031215611d4857611d47610f00565b5b6000611d5686828701611d1a565b9350506020611d6786828701611d1a565b9250506040611d7886828701611d1a565b9150509250925092565b611d8b816111fd565b82525050565b611d9a81611023565b82525050565b6000604082019050611db56000830185611d82565b611dc26020830184611d91565b9392505050565b600060208284031215611ddf57611dde610f00565b5b6000611ded84828501610f53565b91505092915050565b7f4e487b7100000000000000000000000000000000000000000000000000000000600052601160045260246000fd5b6000611e30826111fd565b9150611e3b836111fd565b9250828203905081811115611e5357611e52611df6565b5b92915050565b600082825260208201905092915050565b7f696e76616c6964206f6666736574000000000000000000000000000000000000600082015250565b6000611ea0600e83611e59565b9150611eab82611e6a565b602082019050919050565b60006020820190508181036000830152611ecf81611e93565b9050919050565b7f696e76616c6964206c696d697400000000000000000000000000000000000000600082015250565b6000611f0c600d83611e59565b9150611f1782611ed6565b602082019050919050565b60006020820190508181036000830152611f3b81611eff565b9050919050565b7f4e487b7100000000000000000000000000000000000000000000000000000000600052602260045260246000fd5b60006002820490506001821680611f8957607f821691505b602082108103611f9c57611f9b611f42565b5b50919050565b7f696e76616c6964206d6f64656c436f6d6d69746d656e74000000000000000000600082015250565b6000611fd8601783611e59565b9150611fe382611fa2565b602082019050919050565b6000602082019050818103600083015261200781611fcb565b9050919050565b7f6d6f64656c206e6f7420666f756e640000000000000000000000000000000000600082015250565b6000612044600f83611e59565b915061204f8261200e565b602082019050919050565b6000602082019050818103600083015261207381612037565b9050919050565b7f6d6f64656c20616c726561647920657869737473000000000000000000000000600082015250565b60006120b0601483611e59565b91506120bb8261207a565b602082019050919050565b600060208201905081810360008301526120df816120a3565b9050919050565b7f696e76616c6964206d6f64656c4e616d65000000000000000000000000000000600082015250565b600061211c601183611e59565b9150612127826120e6565b602082019050919050565b6000602082019050818103600083015261214b8161210f565b9050919050565b7f696e76616c6964206d6f64656c4465736372697074696f6e0000000000000000600082015250565b6000612188601883611e59565b915061219382612152565b602082019050919050565b600060208201905081810360008301526121b78161217b565b9050919050565b60008190508160005260206000209050919050565b60006020601f8301049050919050565b600082821b905092915050565b6000600883026122207fffffffffffffffffffffffffffffffffffffffffffffffffffffffffffffffff826121e3565b61222a86836121e3565b95508019841693508086168417925050509392505050565b6000819050919050565b600061226761226261225d846111fd565b612242565b6111fd565b9050919050565b6000819050919050565b6122818361224c565b61229561228d8261226e565b8484546121f0565b825550505050565b600090565b6122aa61229d565b6122b5818484612278565b505050565b5b818110156122d9576122ce6000826122a2565b6001810190506122bb565b5050565b601f82111561231e576122ef816121be565b6122f8846121d3565b81016020851015612307578190505b61231b612313856121d3565b8301826122ba565b50505b505050565b600082821c905092915050565b600061234160001984600802612323565b1980831691505092915050565b600061235a8383612330565b9150826002028217905092915050565b6123738261104e565b67ffffffffffffffff81111561238c5761238b611238565b5b6123968254611f71565b6123a18282856122dd565b600060209050601f8311600181146123d457600084156123c2578287015190505b6123cc858261234e565b865550612434565b601f1984166123e2866121be565b60005b8281101561240a578489015182556001820191506020850194506020810190506123e5565b868310156124275784890151612423601f891682612330565b8355505b6001600288020188555050505b505050505050565b82818337600083830152505050565b60006124578385611e59565b935061246483858461243c565b61246d83611094565b840190509392505050565b6000604082019050818103600083015261249381868861244b565b905081810360208301526124a881848661244b565b905095945050505050565b7f4f776e61626c653a206e6577206f776e657220697320746865207a65726f206160008201527f6464726573730000000000000000000000000000000000000000000000000000602082015250565b600061250f602683611e59565b915061251a826124b3565b604082019050919050565b6000602082019050818103600083015261253e81612502565b9050919050565b600061255082610f68565b915061255b83610f68565b9250828201905063ffffffff81111561257757612576611df6565b5b92915050565b6000612588826111fd565b9150612593836111fd565b92508282019050808211156125ab576125aa611df6565b5b92915050565b7f4e487b7100000000000000000000000000000000000000000000000000000000600052603260045260246000fd5b60006125eb826111fd565b91507fffffffffffffffffffffffffffffffffffffffffffffffffffffffffffffffff820361261d5761261c611df6565b5b600182019050919050565b7f4f776e61626c653a2063616c6c6572206973206e6f7420746865206f776e6572600082015250565b600061265e602083611e59565b915061266982612628565b602082019050919050565b6000602082019050818103600083015261268d81612651565b905091905056fea2646970667358221220a047aa985c12fc7b6afaf942ae3e96cfc205af69bbb7c90f3f03890080b5e37264736f6c63430008110033",
  "linkReferences": {},
  "deployedLinkReferences": {}
}