{
  "_format": "hh-sol-artifact-1",
  "contractName": "CustomVerifier",
  "sourceName": "contracts/src/CustomVerifier.sol",
  "abi": [
    {
      "inputs": [
        {
          "internalType": "address",
          "name": "_circomVerifier",
          "type": "address"
        },
        {
          "internalType": "uint8",
          "name": "_difficulty",
          "type": "uint8"
        }
      ],
      "stateMutability": "nonpayable",
      "type": "constructor"
    },
    {
      "anonymous": false,
      "inputs": [
        {
          "indexed": true,
          "internalType": "ICustomVerifier.Hash",
          "name": "commitmentId",
          "type": "bytes32"
        },
        {
          "indexed": true,
          "internalType": "address",
          "name": "proverAddress",
          "type": "address"
        },
        {
          "indexed": false,
          "internalType": "ICustomVerifier.Hash",
          "name": "_challenge",
          "type": "bytes32"
        }
      ],
      "name": "ChallengeUpdated",
      "type": "event"
    },
    {
      "anonymous": false,
      "inputs": [
        {
          "indexed": true,
          "internalType": "ICustomVerifier.Hash",
          "name": "commitmentId",
          "type": "bytes32"
        },
        {
          "indexed": true,
          "internalType": "address",
          "name": "proverAddress",
          "type": "address"
        }
      ],
      "name": "CommitmentRevealed",
      "type": "event"
    },
    {
      "anonymous": false,
      "inputs": [
        {
          "indexed": true,
          "internalType": "ICustomVerifier.Hash",
          "name": "commitmentId",
          "type": "bytes32"
        },
        {
          "indexed": true,
          "internalType": "address",
          "name": "proverAddress",
          "type": "address"
        },
        {
          "indexed": false,
          "internalType": "ICustomVerifier.Hash",
          "name": "_challenge",
          "type": "bytes32"
        }
      ],
      "name": "Committed",
      "type": "event"
    },
    {
      "anonymous": false,
      "inputs": [
        {
          "indexed": true,
          "internalType": "ICustomVerifier.Hash",
          "name": "contentId",
          "type": "bytes32"
        },
        {
          "indexed": true,
          "internalType": "address",
          "name": "ownerAddress",
          "type": "address"
        }
      ],
      "name": "ModelDisabled",
      "type": "event"
    },
    {
      "anonymous": false,
      "inputs": [
        {
          "indexed": true,
          "internalType": "ICustomVerifier.Hash",
          "name": "contentId",
          "type": "bytes32"
        },
        {
          "indexed": true,
          "internalType": "address",
          "name": "ownerAddress",
          "type": "address"
        }
      ],
      "name": "ModelRegistered",
      "type": "event"
    },
    {
      "anonymous": false,
      "inputs": [
        {
          "indexed": true,
          "internalType": "ICustomVerifier.Hash",
          "name": "contentId",
          "type": "bytes32"
        },
        {
          "indexed": true,
          "internalType": "address",
          "name": "ownerAddress",
          "type": "address"
        },
        {
          "indexed": false,
          "internalType": "string",
          "name": "name",
          "type": "string"
        },
        {
          "indexed": false,
          "internalType": "string",
          "name": "description",
          "type": "string"
        }
      ],
      "name": "ModelUpdated",
      "type": "event"
    },
    {
      "anonymous": false,
      "inputs": [
        {
          "indexed": true,
          "internalType": "address",
          "name": "previousOwner",
          "type": "address"
        },
        {
          "indexed": true,
          "internalType": "address",
          "name": "newOwner",
          "type": "address"
        }
      ],
      "name": "OwnershipTransferred",
      "type": "event"
    },
    {
      "anonymous": false,
      "inputs": [
        {
          "indexed": true,
          "internalType": "ICustomVerifier.Hash",
          "name": "commitmentId",
          "type": "bytes32"
        },
        {
          "indexed": true,
          "internalType": "address",
          "name": "proverAddress",
          "type": "address"
        }
      ],
      "name": "ZKPsVerified",
      "type": "event"
    },
    {
      "inputs": [
        {
          "internalType": "ICustomVerifier.Hash",
          "name": "_merkleRoot",
          "type": "bytes32"
        }
      ],
      "name": "commit",
      "outputs": [],
      "stateMutability": "nonpayable",
      "type": "function"
    },
    {
      "inputs": [],
      "name": "disableModel",
      "outputs": [],
      "stateMutability": "nonpayable",
      "type": "function"
    },
    {
      "inputs": [
        {
          "internalType": "ICustomVerifier.Hash",
          "name": "_commitmentId",
          "type": "bytes32"
        }
      ],
      "name": "getCommitment",
      "outputs": [
        {
          "components": [
            {
              "internalType": "ICustomVerifier.Hash",
              "name": "id",
              "type": "bytes32"
            },
            {
              "internalType": "ICustomVerifier.Hash",
              "name": "modelContentId",
              "type": "bytes32"
            },
            {
              "internalType": "ICustomVerifier.Hash",
              "name": "merkleRoot",
              "type": "bytes32"
            },
            {
              "internalType": "ICustomVerifier.Hash",
              "name": "challenge",
              "type": "bytes32"
            },
            {
              "internalType": "uint8",
              "name": "difficulty",
              "type": "uint8"
            },
            {
              "internalType": "address",
              "name": "proverAddress",
              "type": "address"
            },
            {
              "internalType": "bool",
              "name": "isRevealed",
              "type": "bool"
            }
          ],
          "internalType": "struct ICustomVerifier.Commitment",
          "name": "",
          "type": "tuple"
        }
      ],
      "stateMutability": "view",
      "type": "function"
    },
    {
      "inputs": [
        {
          "internalType": "uint32",
          "name": "_offset",
          "type": "uint32"
        },
        {
          "internalType": "uint32",
          "name": "_limit",
          "type": "uint32"
        }
      ],
      "name": "getCommitmentsOfModel",
      "outputs": [
        {
          "internalType": "ICustomVerifier.Hash[]",
          "name": "",
          "type": "bytes32[]"
        }
      ],
      "stateMutability": "view",
      "type": "function"
    },
    {
      "inputs": [
        {
          "internalType": "uint32",
          "name": "_offset",
          "type": "uint32"
        },
        {
          "internalType": "uint32",
          "name": "_limit",
          "type": "uint32"
        }
      ],
      "name": "getCommitmentsOfProver",
      "outputs": [
        {
          "internalType": "ICustomVerifier.Hash[]",
          "name": "",
          "type": "bytes32[]"
        }
      ],
      "stateMutability": "view",
      "type": "function"
    },
    {
      "inputs": [],
      "name": "getDifficulty",
      "outputs": [
        {
          "internalType": "uint8",
          "name": "",
          "type": "uint8"
        }
      ],
      "stateMutability": "view",
      "type": "function"
    },
    {
      "inputs": [],
      "name": "getModel",
      "outputs": [
        {
          "components": [
            {
              "internalType": "ICustomVerifier.Hash",
              "name": "contentId",
              "type": "bytes32"
            },
            {
              "internalType": "string",
              "name": "name",
              "type": "string"
            },
            {
              "internalType": "string",
              "name": "description",
              "type": "string"
            },
            {
              "internalType": "address",
              "name": "ownerAddress",
              "type": "address"
            },
            {
              "internalType": "bool",
              "name": "isDisabled",
              "type": "bool"
            }
          ],
          "internalType": "struct ICustomVerifier.Model",
          "name": "",
          "type": "tuple"
        }
      ],
      "stateMutability": "view",
      "type": "function"
    },
    {
      "inputs": [],
      "name": "owner",
      "outputs": [
        {
          "internalType": "address",
          "name": "",
          "type": "address"
        }
      ],
      "stateMutability": "view",
      "type": "function"
    },
    {
      "inputs": [
        {
          "internalType": "ICustomVerifier.Hash",
          "name": "_modelContentId",
          "type": "bytes32"
        },
        {
          "internalType": "string",
          "name": "_modelName",
          "type": "string"
        },
        {
          "internalType": "string",
          "name": "_modelDescription",
          "type": "string"
        },
        {
          "internalType": "address",
          "name": "_modelOwnerAddress",
          "type": "address"
        }
      ],
      "name": "registerModel",
      "outputs": [],
      "stateMutability": "nonpayable",
      "type": "function"
    },
    {
      "inputs": [],
      "name": "renounceOwnership",
      "outputs": [],
      "stateMutability": "nonpayable",
      "type": "function"
    },
    {
      "inputs": [
        {
          "internalType": "address",
          "name": "newOwner",
          "type": "address"
        }
      ],
      "name": "transferOwnership",
      "outputs": [],
      "stateMutability": "nonpayable",
      "type": "function"
    },
    {
      "inputs": [
        {
          "internalType": "ICustomVerifier.Hash",
          "name": "_commitmentId",
          "type": "bytes32"
        }
      ],
      "name": "updateChallenge",
      "outputs": [],
      "stateMutability": "nonpayable",
      "type": "function"
    },
    {
      "inputs": [
        {
          "internalType": "uint8",
          "name": "_difficulty",
          "type": "uint8"
        }
      ],
      "name": "updateDifficulty",
      "outputs": [],
      "stateMutability": "nonpayable",
      "type": "function"
    },
    {
      "inputs": [
        {
          "internalType": "string",
          "name": "_modelName",
          "type": "string"
        },
        {
          "internalType": "string",
          "name": "_modelDescription",
          "type": "string"
        }
      ],
      "name": "updateModel",
      "outputs": [],
      "stateMutability": "nonpayable",
      "type": "function"
    },
    {
      "inputs": [
        {
          "internalType": "uint256",
          "name": "",
          "type": "uint256"
        }
      ],
      "name": "verifiedZKPs",
      "outputs": [
        {
          "components": [
            {
              "internalType": "uint256[2]",
              "name": "a",
              "type": "uint256[2]"
            },
            {
              "internalType": "uint256[2][2]",
              "name": "b",
              "type": "uint256[2][2]"
            },
            {
              "internalType": "uint256[2]",
              "name": "c",
              "type": "uint256[2]"
            },
            {
              "internalType": "uint256[1]",
              "name": "input",
              "type": "uint256[1]"
            }
          ],
          "internalType": "struct ICustomVerifier.Zkp",
          "name": "zkp",
          "type": "tuple"
        },
        {
          "internalType": "bool",
          "name": "isValid",
          "type": "bool"
        }
      ],
      "stateMutability": "view",
      "type": "function"
    },
    {
      "inputs": [
        {
          "internalType": "ICustomVerifier.Hash",
          "name": "_commitmentId",
          "type": "bytes32"
        },
        {
          "internalType": "bytes32[]",
          "name": "_merkleProofs",
          "type": "bytes32[]"
        },
        {
          "internalType": "bool[]",
          "name": "_proofFlags",
          "type": "bool[]"
        },
        {
          "internalType": "bytes32[]",
          "name": "_leaves",
          "type": "bytes32[]"
        },
        {
          "components": [
            {
              "internalType": "uint256[2]",
              "name": "a",
              "type": "uint256[2]"
            },
            {
              "internalType": "uint256[2][2]",
              "name": "b",
              "type": "uint256[2][2]"
            },
            {
              "internalType": "uint256[2]",
              "name": "c",
              "type": "uint256[2]"
            },
            {
              "internalType": "uint256[1]",
              "name": "input",
              "type": "uint256[1]"
            }
          ],
          "internalType": "struct ICustomVerifier.Zkp[]",
          "name": "_zkps",
          "type": "tuple[]"
        }
      ],
      "name": "verify",
      "outputs": [],
      "stateMutability": "nonpayable",
      "type": "function"
    }
  ],
  "bytecode": "0x60a06040523480156200001157600080fd5b50604051620046e5380380620046e58339818101604052810190620000379190620002e1565b620000576200004b6200016d60201b60201c565b6200017560201b60201c565b81600073ffffffffffffffffffffffffffffffffffffffff168173ffffffffffffffffffffffffffffffffffffffff1603620000ca576040517f08c379a0000000000000000000000000000000000000000000000000000000008152600401620000c19062000389565b60405180910390fd5b8160008160ff160362000114576040517f08c379a00000000000000000000000000000000000000000000000000000000081526004016200010b90620003fb565b60405180910390fd5b8373ffffffffffffffffffffffffffffffffffffffff1660808173ffffffffffffffffffffffffffffffffffffffff168152505082600060146101000a81548160ff021916908360ff160217905550505050506200041d565b600033905090565b60008060009054906101000a900473ffffffffffffffffffffffffffffffffffffffff169050816000806101000a81548173ffffffffffffffffffffffffffffffffffffffff021916908373ffffffffffffffffffffffffffffffffffffffff1602179055508173ffffffffffffffffffffffffffffffffffffffff168173ffffffffffffffffffffffffffffffffffffffff167f8be0079c531659141344cd1fd0a4f28419497f9722a3daafe3b4186f6b6457e060405160405180910390a35050565b600080fd5b600073ffffffffffffffffffffffffffffffffffffffff82169050919050565b60006200026b826200023e565b9050919050565b6200027d816200025e565b81146200028957600080fd5b50565b6000815190506200029d8162000272565b92915050565b600060ff82169050919050565b620002bb81620002a3565b8114620002c757600080fd5b50565b600081519050620002db81620002b0565b92915050565b60008060408385031215620002fb57620002fa62000239565b5b60006200030b858286016200028c565b92505060206200031e85828601620002ca565b9150509250929050565b600082825260208201905092915050565b7f636f6e747261637420616464726573732063616e6e6f74206265203000000000600082015250565b600062000371601c8362000328565b91506200037e8262000339565b602082019050919050565b60006020820190508181036000830152620003a48162000362565b9050919050565b7f646966666963756c74792063616e6e6f74206265203000000000000000000000600082015250565b6000620003e360168362000328565b9150620003f082620003ab565b602082019050919050565b600060208201905081810360008301526200041681620003d4565b9050919050565b6080516142ac62000439600039600061086001526142ac6000f3fe608060405234801561001057600080fd5b50600436106101005760003560e01c80639861150711610097578063e349997a11610066578063e349997a14610260578063e64c92d514610290578063f14fcbc8146102c0578063f2fde38b146102dc57610100565b806398611507146101ec578063a0bfa1e014610208578063b6baffe314610226578063b7b356d41461024457610100565b80637795820c116100d35780637795820c146101665780637aa632e1146101965780638da5cb5b146101b2578063972e98c7146101d057610100565b8063176961341461010557806328ba3673146101365780635546fe2d14610140578063715018a61461015c575b600080fd5b61011f600480360381019061011a9190612211565b6102f8565b60405161012d92919061247b565b60405180910390f35b61013e61048f565b005b61015a60048036038101906101559190612a69565b610543565b005b610164610a97565b005b610180600480360381019061017b9190612b5d565b610aab565b60405161018d9190612ca5565b60405180910390f35b6101b060048036038101906101ab9190612d16565b610bf1565b005b6101ba610d49565b6040516101c79190612da6565b60405180910390f35b6101ea60048036038101906101e59190612ded565b610d72565b005b61020660048036038101906102019190612b5d565b610de0565b005b610210610fa2565b60405161021d9190612f16565b60405180910390f35b61022e61115b565b60405161023b9190612f47565b60405180910390f35b61025e60048036038101906102599190612f8e565b61117a565b005b61027a60048036038101906102759190613071565b6112ef565b6040516102879190613160565b60405180910390f35b6102aa60048036038101906102a59190613071565b6114d5565b6040516102b79190613160565b60405180910390f35b6102da60048036038101906102d59190612b5d565b611649565b005b6102f660048036038101906102f19190613182565b61187d565b005b6008818154811061030857600080fd5b90600052602060002090600a02016000915090508060000160405180608001604052908160008201600280602002604051908101604052809291908260028015610367576020028201915b815481526020019060010190808311610353575b5050505050815260200160028201600280602002604051908101604052809291906000905b828210156103e5578382600202016002806020026040519081016040528092919082600280156103d1576020028201915b8154815260200190600101908083116103bd575b50505050508152602001906001019061038c565b50505050815260200160068201600280602002604051908101604052809291908260028015610429576020028201915b815481526020019060010190808311610415575b505050505081526020016008820160018060200260405190810160405280929190826001801561046e576020028201915b81548152602001906001019080831161045a575b505050505081525050908060090160009054906101000a900460ff16905082565b338073ffffffffffffffffffffffffffffffffffffffff16600160030160009054906101000a900473ffffffffffffffffffffffffffffffffffffffff1673ffffffffffffffffffffffffffffffffffffffff1614610523576040517f08c379a000000000000000000000000000000000000000000000000000000000815260040161051a9061320c565b60405180910390fd5b60018060030160146101000a81548160ff02191690831515021790555050565b86600060076000838152602001908152602001600020600001540361059d576040517f08c379a000000000000000000000000000000000000000000000000000000000815260040161059490613278565b60405180910390fd5b6007600089815260200190815260200160002060040160019054906101000a900473ffffffffffffffffffffffffffffffffffffffff163373ffffffffffffffffffffffffffffffffffffffff168173ffffffffffffffffffffffffffffffffffffffff1614610642576040517f08c379a0000000000000000000000000000000000000000000000000000000008152600401610639906132e4565b60405180910390fd5b60001515600760008b815260200190815260200160002060040160159054906101000a900460ff161515146106ac576040517f08c379a00000000000000000000000000000000000000000000000000000000081526004016106a390613350565b60405180910390fd5b6000600760008b81526020019081526020016000206003015490506000600760008c815260200190815260200160002060040160009054906101000a900460ff16905060011515610701838360ff1689611900565b151514610743576040517f08c379a000000000000000000000000000000000000000000000000000000000815260040161073a906133bc565b60405180910390fd5b6000600760008d8152602001908152602001600020600201549050600115156107708c8c8c8c868d61196c565b1515146107b2576040517f08c379a00000000000000000000000000000000000000000000000000000000081526004016107a990613428565b60405180910390fd5b6001600760008e815260200190815260200160002060040160156101000a81548160ff0219169083151502179055503373ffffffffffffffffffffffffffffffffffffffff168c7f03fef15878dd8a293e7eb86aaa9128f4609bf6f8b508361249d0aa251249674660405160405180910390a360005b8651811015610a44576008604051806040016040528089848151811061085157610850613448565b5b602002602001015181526020017f000000000000000000000000000000000000000000000000000000000000000073ffffffffffffffffffffffffffffffffffffffff166343753b4d8b86815181106108ad576108ac613448565b5b6020026020010151600001518c87815181106108cc576108cb613448565b5b6020026020010151602001518d88815181106108eb576108ea613448565b5b6020026020010151604001518e898151811061090a57610909613448565b5b6020026020010151606001516040518563ffffffff1660e01b8152600401610935949392919061359d565b602060405180830381865afa158015610952573d6000803e3d6000fd5b505050506040513d601f19601f820116820180604052508101906109769190613610565b151581525090806001815401808255809150506001900390600052602060002090600a02016000909190919091506000820151816000016000820151816000019060026109c4929190611ffa565b506020820151816002019060026109dc92919061203a565b506040820151816006019060026109f4929190611ffa565b50606082015181600801906001610a0c92919061208a565b50505060208201518160090160006101000a81548160ff02191690831515021790555050508080610a3c9061366c565b915050610828565b503373ffffffffffffffffffffffffffffffffffffffff168c7f92e4716c767104b4bfe6aac1c45db58f5e733e9bc04bcb348cadcd9468e7cec560405160405180910390a3505050505050505050505050565b610a9f611988565b610aa96000611a06565b565b610ab36120ca565b816000600760008381526020019081526020016000206000015403610b0d576040517f08c379a0000000000000000000000000000000000000000000000000000000008152600401610b0490613278565b60405180910390fd5b610b15611988565b600760008481526020019081526020016000206040518060e0016040529081600082015481526020016001820154815260200160028201548152602001600382015481526020016004820160009054906101000a900460ff1660ff1660ff1681526020016004820160019054906101000a900473ffffffffffffffffffffffffffffffffffffffff1673ffffffffffffffffffffffffffffffffffffffff1673ffffffffffffffffffffffffffffffffffffffff1681526020016004820160159054906101000a900460ff161515151581525050915050919050565b338073ffffffffffffffffffffffffffffffffffffffff16600160030160009054906101000a900473ffffffffffffffffffffffffffffffffffffffff1673ffffffffffffffffffffffffffffffffffffffff1614610c85576040517f08c379a0000000000000000000000000000000000000000000000000000000008152600401610c7c9061320c565b60405180910390fd5b8484848460008484905003610ccf576040517f08c379a0000000000000000000000000000000000000000000000000000000008152600401610cc690613700565b60405180910390fd5b60008282905003610d15576040517f08c379a0000000000000000000000000000000000000000000000000000000008152600401610d0c9061376c565b60405180910390fd5b8888600180019182610d289291906139a3565b50868660016002019182610d3d9291906139a3565b50505050505050505050565b60008060009054906101000a900473ffffffffffffffffffffffffffffffffffffffff16905090565b8060008160ff1603610db9576040517f08c379a0000000000000000000000000000000000000000000000000000000008152600401610db090613abf565b60405180910390fd5b610dc1611988565b81600060146101000a81548160ff021916908360ff1602179055505050565b806000600760008381526020019081526020016000206000015403610e3a576040517f08c379a0000000000000000000000000000000000000000000000000000000008152600401610e3190613278565b60405180910390fd5b6007600083815260200190815260200160002060040160019054906101000a900473ffffffffffffffffffffffffffffffffffffffff163373ffffffffffffffffffffffffffffffffffffffff168173ffffffffffffffffffffffffffffffffffffffff1614610edf576040517f08c379a0000000000000000000000000000000000000000000000000000000008152600401610ed6906132e4565b60405180910390fd5b60008060149054906101000a900460ff1690506000610f008260ff16611aca565b9050806007600087815260200190815260200160002060030181905550816007600087815260200190815260200160002060040160006101000a81548160ff021916908360ff1602179055503373ffffffffffffffffffffffffffffffffffffffff16857fda807087656d6f111071f9952e0a18e2e18eaa9b77a777dd4a1eefcf0e180f7c83604051610f939190613aee565b60405180910390a35050505050565b610faa61212e565b60016040518060a001604052908160008201548152602001600182018054610fd1906137c6565b80601f0160208091040260200160405190810160405280929190818152602001828054610ffd906137c6565b801561104a5780601f1061101f5761010080835404028352916020019161104a565b820191906000526020600020905b81548152906001019060200180831161102d57829003601f168201915b50505050508152602001600282018054611063906137c6565b80601f016020809104026020016040519081016040528092919081815260200182805461108f906137c6565b80156110dc5780601f106110b1576101008083540402835291602001916110dc565b820191906000526020600020905b8154815290600101906020018083116110bf57829003601f168201915b505050505081526020016003820160009054906101000a900473ffffffffffffffffffffffffffffffffffffffff1673ffffffffffffffffffffffffffffffffffffffff1673ffffffffffffffffffffffffffffffffffffffff1681526020016003820160149054906101000a900460ff161515151581525050905090565b6000611165611988565b600060149054906101000a900460ff16905090565b84848484600084849050036111c4576040517f08c379a00000000000000000000000000000000000000000000000000000000081526004016111bb90613700565b60405180910390fd5b6000828290500361120a576040517f08c379a00000000000000000000000000000000000000000000000000000000081526004016112019061376c565b60405180910390fd5b8960016000018190555088886001800191826112279291906139a3565b5086866001600201918261123c9291906139a3565b5084600160030160006101000a81548173ffffffffffffffffffffffffffffffffffffffff021916908373ffffffffffffffffffffffffffffffffffffffff1602179055506000600160030160146101000a81548160ff0219169083151502179055508473ffffffffffffffffffffffffffffffffffffffff168a7fc0bb3838ad72991f913b1a5c821da885948755a4ee450ec034e7a256e09aca5a60405160405180910390a350505050505050505050565b606082600660003373ffffffffffffffffffffffffffffffffffffffff1673ffffffffffffffffffffffffffffffffffffffff16815260200190815260200160002080549050600081111561138b57808263ffffffff1610611386576040517f08c379a000000000000000000000000000000000000000000000000000000000815260040161137d90613b7b565b60405180910390fd5b6113d5565b60008263ffffffff16146113d4576040517f08c379a00000000000000000000000000000000000000000000000000000000081526004016113cb90613c0d565b60405180910390fd5b5b8360008163ffffffff161180156113f35750601e8163ffffffff1611155b611432576040517f08c379a000000000000000000000000000000000000000000000000000000000815260040161142990613c79565b60405180910390fd5b6114ca600660003373ffffffffffffffffffffffffffffffffffffffff1673ffffffffffffffffffffffffffffffffffffffff1681526020019081526020016000208054806020026020016040519081016040528092919081815260200182805480156114be57602002820191906000526020600020905b8154815260200190600101908083116114aa575b50505050508787611b14565b935050505092915050565b606082600580549050600081111561153457808263ffffffff161061152f576040517f08c379a000000000000000000000000000000000000000000000000000000000815260040161152690613b7b565b60405180910390fd5b61157e565b60008263ffffffff161461157d576040517f08c379a000000000000000000000000000000000000000000000000000000000815260040161157490613c0d565b60405180910390fd5b5b8360008163ffffffff1611801561159c5750601e8163ffffffff1611155b6115db576040517f08c379a00000000000000000000000000000000000000000000000000000000081526004016115d290613c79565b60405180910390fd5b6115e3611988565b61163e600580548060200260200160405190810160405280929190818152602001828054801561163257602002820191906000526020600020905b81548152602001906001019080831161161e575b50505050508787611b14565b935050505092915050565b600061165a60016000015483611c20565b905060008060149054906101000a900460ff169050600061167d8260ff16611aca565b90506005839080600181540180825580915050600190039060005260206000200160009091909190915055600660003373ffffffffffffffffffffffffffffffffffffffff1673ffffffffffffffffffffffffffffffffffffffff1681526020019081526020016000208390806001815401808255809150506001900390600052602060002001600090919091909150556040518060e0016040528084815260200160016000015481526020018581526020018281526020018360ff1681526020013373ffffffffffffffffffffffffffffffffffffffff16815260200160001515815250600760008581526020019081526020016000206000820151816000015560208201518160010155604082015181600201556060820151816003015560808201518160040160006101000a81548160ff021916908360ff16021790555060a08201518160040160016101000a81548173ffffffffffffffffffffffffffffffffffffffff021916908373ffffffffffffffffffffffffffffffffffffffff16021790555060c08201518160040160156101000a81548160ff0219169083151502179055509050503373ffffffffffffffffffffffffffffffffffffffff16837fef653a9608e4d816ce91da70712413a9d5c5bb473d42eb5b536babad2a41238e8360405161186f9190613aee565b60405180910390a350505050565b611885611988565b600073ffffffffffffffffffffffffffffffffffffffff168173ffffffffffffffffffffffffffffffffffffffff16036118f4576040517f08c379a00000000000000000000000000000000000000000000000000000000081526004016118eb90613d0b565b60405180910390fd5b6118fd81611a06565b50565b600080600090505b825181101561195f57600061193784838151811061192957611928613448565b5b602002602001015186611cb3565b905085811461194b57600092505050611965565b5080806119579061366c565b915050611908565b50600190505b9392505050565b600061197c878787878787611cdb565b90509695505050505050565b611990611cf8565b73ffffffffffffffffffffffffffffffffffffffff166119ae610d49565b73ffffffffffffffffffffffffffffffffffffffff1614611a04576040517f08c379a00000000000000000000000000000000000000000000000000000000081526004016119fb90613d77565b60405180910390fd5b565b60008060009054906101000a900473ffffffffffffffffffffffffffffffffffffffff169050816000806101000a81548173ffffffffffffffffffffffffffffffffffffffff021916908373ffffffffffffffffffffffffffffffffffffffff1602179055508173ffffffffffffffffffffffffffffffffffffffff168173ffffffffffffffffffffffffffffffffffffffff167f8be0079c531659141344cd1fd0a4f28419497f9722a3daafe3b4186f6b6457e060405160405180910390a35050565b6000611b0d600143611adc9190613d97565b404233604051602001611af193929190613e55565b6040516020818303038152906040528051906020012083611cb3565b9050919050565b606083518284611b249190613e92565b63ffffffff161115611b46578263ffffffff168451611b439190613d97565b91505b60008263ffffffff1667ffffffffffffffff811115611b6857611b676125a8565b5b604051908082528060200260200182016040528015611b965781602001602082028036833780820191505090505b50905060005b8363ffffffff168163ffffffff161015611c1457858186611bbd9190613e92565b63ffffffff1681518110611bd457611bd3613448565b5b6020026020010151828263ffffffff1681518110611bf557611bf4613448565b5b6020026020010181815250508080611c0c90613eca565b915050611b9c565b50809150509392505050565b600080838333604051602001611c3893929190613f0d565b6040516020818303038152906040528051906020012090506000600760008381526020019081526020016000206000015414611ca9576040517f08c379a0000000000000000000000000000000000000000000000000000000008152600401611ca090613f96565b60405180910390fd5b8091505092915050565b6000816002611cc291906140e9565b8360001c611cd09190614163565b60001b905092915050565b600082611ceb8888888887611d00565b1490509695505050505050565b600033905090565b6000808251905060008585905090508060018989905084611d219190614194565b611d2b9190613d97565b14611d6b576040517f08c379a0000000000000000000000000000000000000000000000000000000008152600401611d6290614214565b60405180910390fd5b60008167ffffffffffffffff811115611d8757611d866125a8565b5b604051908082528060200260200182016040528015611db55781602001602082028036833780820191505090505b5090506000806000805b85811015611f1b576000878510611dfc57858480611ddc9061366c565b955081518110611def57611dee613448565b5b6020026020010151611e24565b898580611e089061366c565b965081518110611e1b57611e1a613448565b5b60200260200101515b905060008c8c84818110611e3b57611e3a613448565b5b9050602002016020810190611e509190614249565b611e7f578e8e8580611e619061366c565b9650818110611e7357611e72613448565b5b90506020020135611edb565b888610611eb257868580611e929061366c565b965081518110611ea557611ea4613448565b5b6020026020010151611eda565b8a8680611ebe9061366c565b975081518110611ed157611ed0613448565b5b60200260200101515b5b9050611ee78282611fb8565b878481518110611efa57611ef9613448565b5b60200260200101818152505050508080611f139061366c565b915050611dbf565b506000851115611f595783600186611f339190613d97565b81518110611f4457611f43613448565b5b60200260200101519650505050505050611faf565b6000861115611f8b5787600081518110611f7657611f75613448565b5b60200260200101519650505050505050611faf565b8b8b6000818110611f9f57611f9e613448565b5b9050602002013596505050505050505b95945050505050565b6000818310611fd057611fcb8284611fe3565b611fdb565b611fda8383611fe3565b5b905092915050565b600082600052816020526040600020905092915050565b8260028101928215612029579160200282015b8281111561202857825182559160200191906001019061200d565b5b5090506120369190612178565b5090565b82600280028101928215612079579160200282015b8281111561207857825182906002612068929190611ffa565b509160200191906002019061204f565b5b5090506120869190612195565b5090565b82600181019282156120b9579160200282015b828111156120b857825182559160200191906001019061209d565b5b5090506120c69190612178565b5090565b6040518060e0016040528060008019168152602001600080191681526020016000801916815260200160008019168152602001600060ff168152602001600073ffffffffffffffffffffffffffffffffffffffff1681526020016000151581525090565b6040518060a00160405280600080191681526020016060815260200160608152602001600073ffffffffffffffffffffffffffffffffffffffff1681526020016000151581525090565b5b80821115612191576000816000905550600101612179565b5090565b5b808211156121b557600081816121ac91906121b9565b50600201612196565b5090565b506000815560010160009055565b6000604051905090565b600080fd5b600080fd5b6000819050919050565b6121ee816121db565b81146121f957600080fd5b50565b60008135905061220b816121e5565b92915050565b600060208284031215612227576122266121d1565b5b6000612235848285016121fc565b91505092915050565b600060029050919050565b600081905092915050565b6000819050919050565b612267816121db565b82525050565b6000612279838361225e565b60208301905092915050565b6000602082019050919050565b61229b8161223e565b6122a58184612249565b92506122b082612254565b8060005b838110156122e15781516122c8878261226d565b96506122d383612285565b9250506001810190506122b4565b505050505050565b600060029050919050565b600081905092915050565b6000819050919050565b60006123158383612292565b60408301905092915050565b6000602082019050919050565b612337816122e9565b61234181846122f4565b925061234c826122ff565b8060005b8381101561237d5781516123648782612309565b965061236f83612321565b925050600181019050612350565b505050505050565b600060019050919050565b600081905092915050565b6000819050919050565b6000602082019050919050565b6123bb81612385565b6123c58184612390565b92506123d08261239b565b8060005b838110156124015781516123e8878261226d565b96506123f3836123a5565b9250506001810190506123d4565b505050505050565b610120820160008201516124206000850182612292565b506020820151612433604085018261232e565b50604082015161244660c0850182612292565b50606082015161245a6101008501826123b2565b50505050565b60008115159050919050565b61247581612460565b82525050565b6000610140820190506124916000830185612409565b61249f61012083018461246c565b9392505050565b6000819050919050565b6124b9816124a6565b81146124c457600080fd5b50565b6000813590506124d6816124b0565b92915050565b600080fd5b600080fd5b600080fd5b60008083601f840112612501576125006124dc565b5b8235905067ffffffffffffffff81111561251e5761251d6124e1565b5b60208301915083602082028301111561253a576125396124e6565b5b9250929050565b60008083601f840112612557576125566124dc565b5b8235905067ffffffffffffffff811115612574576125736124e1565b5b6020830191508360208202830111156125905761258f6124e6565b5b9250929050565b6000601f19601f8301169050919050565b7f4e487b7100000000000000000000000000000000000000000000000000000000600052604160045260246000fd5b6125e082612597565b810181811067ffffffffffffffff821117156125ff576125fe6125a8565b5b80604052505050565b60006126126121c7565b905061261e82826125d7565b919050565b600067ffffffffffffffff82111561263e5761263d6125a8565b5b602082029050602081019050919050565b612658816124a6565b811461266357600080fd5b50565b6000813590506126758161264f565b92915050565b600061268e61268984612623565b612608565b905080838252602082019050602084028301858111156126b1576126b06124e6565b5b835b818110156126da57806126c68882612666565b8452602084019350506020810190506126b3565b5050509392505050565b600082601f8301126126f9576126f86124dc565b5b813561270984826020860161267b565b91505092915050565b600067ffffffffffffffff82111561272d5761272c6125a8565b5b602082029050602081019050919050565b600080fd5b600067ffffffffffffffff82111561275e5761275d6125a8565b5b602082029050919050565b600061277c61277784612743565b612608565b90508060208402830185811115612796576127956124e6565b5b835b818110156127bf57806127ab88826121fc565b845260208401935050602081019050612798565b5050509392505050565b600082601f8301126127de576127dd6124dc565b5b60026127eb848285612769565b91505092915050565b600067ffffffffffffffff82111561280f5761280e6125a8565b5b602082029050919050565b600061282d612828846127f4565b612608565b90508060408402830185811115612847576128466124e6565b5b835b81811015612870578061285c88826127c9565b845260208401935050604081019050612849565b5050509392505050565b600082601f83011261288f5761288e6124dc565b5b600261289c84828561281a565b91505092915050565b600067ffffffffffffffff8211156128c0576128bf6125a8565b5b602082029050919050565b60006128de6128d9846128a5565b612608565b905080602084028301858111156128f8576128f76124e6565b5b835b81811015612921578061290d88826121fc565b8452602084019350506020810190506128fa565b5050509392505050565b600082601f8301126129405761293f6124dc565b5b600161294d8482856128cb565b91505092915050565b6000610120828403121561296d5761296c61273e565b5b6129776080612608565b90506000612987848285016127c9565b600083015250604061299b8482850161287a565b60208301525060c06129af848285016127c9565b6040830152506101006129c48482850161292b565b60608301525092915050565b60006129e36129de84612712565b612608565b9050808382526020820190506101208402830185811115612a0757612a066124e6565b5b835b81811015612a315780612a1c8882612956565b84526020840193505061012081019050612a09565b5050509392505050565b600082601f830112612a5057612a4f6124dc565b5b8135612a608482602086016129d0565b91505092915050565b600080600080600080600060a0888a031215612a8857612a876121d1565b5b6000612a968a828b016124c7565b975050602088013567ffffffffffffffff811115612ab757612ab66121d6565b5b612ac38a828b016124eb565b9650965050604088013567ffffffffffffffff811115612ae657612ae56121d6565b5b612af28a828b01612541565b9450945050606088013567ffffffffffffffff811115612b1557612b146121d6565b5b612b218a828b016126e4565b925050608088013567ffffffffffffffff811115612b4257612b416121d6565b5b612b4e8a828b01612a3b565b91505092959891949750929550565b600060208284031215612b7357612b726121d1565b5b6000612b81848285016124c7565b91505092915050565b6000612b95826124a6565b9050919050565b612ba581612b8a565b82525050565b600060ff82169050919050565b612bc181612bab565b82525050565b600073ffffffffffffffffffffffffffffffffffffffff82169050919050565b6000612bf282612bc7565b9050919050565b612c0281612be7565b82525050565b612c1181612460565b82525050565b60e082016000820151612c2d6000850182612b9c565b506020820151612c406020850182612b9c565b506040820151612c536040850182612b9c565b506060820151612c666060850182612b9c565b506080820151612c796080850182612bb8565b5060a0820151612c8c60a0850182612bf9565b5060c0820151612c9f60c0850182612c08565b50505050565b600060e082019050612cba6000830184612c17565b92915050565b60008083601f840112612cd657612cd56124dc565b5b8235905067ffffffffffffffff811115612cf357612cf26124e1565b5b602083019150836001820283011115612d0f57612d0e6124e6565b5b9250929050565b60008060008060408587031215612d3057612d2f6121d1565b5b600085013567ffffffffffffffff811115612d4e57612d4d6121d6565b5b612d5a87828801612cc0565b9450945050602085013567ffffffffffffffff811115612d7d57612d7c6121d6565b5b612d8987828801612cc0565b925092505092959194509250565b612da081612be7565b82525050565b6000602082019050612dbb6000830184612d97565b92915050565b612dca81612bab565b8114612dd557600080fd5b50565b600081359050612de781612dc1565b92915050565b600060208284031215612e0357612e026121d1565b5b6000612e1184828501612dd8565b91505092915050565b600081519050919050565b600082825260208201905092915050565b60005b83811015612e54578082015181840152602081019050612e39565b60008484015250505050565b6000612e6b82612e1a565b612e758185612e25565b9350612e85818560208601612e36565b612e8e81612597565b840191505092915050565b600060a083016000830151612eb16000860182612b9c565b5060208301518482036020860152612ec98282612e60565b91505060408301518482036040860152612ee38282612e60565b9150506060830151612ef86060860182612bf9565b506080830151612f0b6080860182612c08565b508091505092915050565b60006020820190508181036000830152612f308184612e99565b905092915050565b612f4181612bab565b82525050565b6000602082019050612f5c6000830184612f38565b92915050565b612f6b81612be7565b8114612f7657600080fd5b50565b600081359050612f8881612f62565b92915050565b60008060008060008060808789031215612fab57612faa6121d1565b5b6000612fb989828a016124c7565b965050602087013567ffffffffffffffff811115612fda57612fd96121d6565b5b612fe689828a01612cc0565b9550955050604087013567ffffffffffffffff811115613009576130086121d6565b5b61301589828a01612cc0565b9350935050606061302889828a01612f79565b9150509295509295509295565b600063ffffffff82169050919050565b61304e81613035565b811461305957600080fd5b50565b60008135905061306b81613045565b92915050565b60008060408385031215613088576130876121d1565b5b60006130968582860161305c565b92505060206130a78582860161305c565b9150509250929050565b600081519050919050565b600082825260208201905092915050565b6000819050602082019050919050565b60006130e98383612b9c565b60208301905092915050565b6000602082019050919050565b600061310d826130b1565b61311781856130bc565b9350613122836130cd565b8060005b8381101561315357815161313a88826130dd565b9750613145836130f5565b925050600181019050613126565b5085935050505092915050565b6000602082019050818103600083015261317a8184613102565b905092915050565b600060208284031215613198576131976121d1565b5b60006131a684828501612f79565b91505092915050565b600082825260208201905092915050565b7f6f6e6c79206d6f64656c206f776e65722063616e206578656375746500000000600082015250565b60006131f6601c836131af565b9150613201826131c0565b602082019050919050565b60006020820190508181036000830152613225816131e9565b9050919050565b7f636f6d6d69746d656e74206e6f7420666f756e64000000000000000000000000600082015250565b60006132626014836131af565b915061326d8261322c565b602082019050919050565b6000602082019050818103600083015261329181613255565b9050919050565b7f696e76616c69642070726f766572000000000000000000000000000000000000600082015250565b60006132ce600e836131af565b91506132d982613298565b602082019050919050565b600060208201905081810360008301526132fd816132c1565b9050919050565b7f636f6d6d69746d656e7420616c72656164792072657665616c65640000000000600082015250565b600061333a601b836131af565b915061334582613304565b602082019050919050565b600060208201905081810360008301526133698161332d565b9050919050565b7f696e76616c6964206c6561766573000000000000000000000000000000000000600082015250565b60006133a6600e836131af565b91506133b182613370565b602082019050919050565b600060208201905081810360008301526133d581613399565b9050919050565b7f696e76616c6964204d65726b6c652070726f6f66730000000000000000000000600082015250565b60006134126015836131af565b915061341d826133dc565b602082019050919050565b6000602082019050818103600083015261344181613405565b9050919050565b7f4e487b7100000000000000000000000000000000000000000000000000000000600052603260045260246000fd5b600081905092915050565b61348b8161223e565b6134958184613477565b92506134a082612254565b8060005b838110156134d15781516134b8878261226d565b96506134c383612285565b9250506001810190506134a4565b505050505050565b600081905092915050565b6134ed816122e9565b6134f781846134d9565b9250613502826122ff565b8060005b8381101561353357815161351a8782612309565b965061352583612321565b925050600181019050613506565b505050505050565b600081905092915050565b61354f81612385565b613559818461353b565b92506135648261239b565b8060005b8381101561359557815161357c878261226d565b9650613587836123a5565b925050600181019050613568565b505050505050565b6000610120820190506135b36000830187613482565b6135c060408301866134e4565b6135cd60c0830185613482565b6135db610100830184613546565b95945050505050565b6135ed81612460565b81146135f857600080fd5b50565b60008151905061360a816135e4565b92915050565b600060208284031215613626576136256121d1565b5b6000613634848285016135fb565b91505092915050565b7f4e487b7100000000000000000000000000000000000000000000000000000000600052601160045260246000fd5b6000613677826121db565b91507fffffffffffffffffffffffffffffffffffffffffffffffffffffffffffffffff82036136a9576136a861363d565b5b600182019050919050565b7f656d707479206d6f64656c4e616d650000000000000000000000000000000000600082015250565b60006136ea600f836131af565b91506136f5826136b4565b602082019050919050565b60006020820190508181036000830152613719816136dd565b9050919050565b7f656d707479206d6f64656c4465736372697074696f6e00000000000000000000600082015250565b60006137566016836131af565b915061376182613720565b602082019050919050565b6000602082019050818103600083015261378581613749565b9050919050565b600082905092915050565b7f4e487b7100000000000000000000000000000000000000000000000000000000600052602260045260246000fd5b600060028204905060018216806137de57607f821691505b6020821081036137f1576137f0613797565b5b50919050565b60008190508160005260206000209050919050565b60006020601f8301049050919050565b600082821b905092915050565b6000600883026138597fffffffffffffffffffffffffffffffffffffffffffffffffffffffffffffffff8261381c565b613863868361381c565b95508019841693508086168417925050509392505050565b6000819050919050565b60006138a061389b613896846121db565b61387b565b6121db565b9050919050565b6000819050919050565b6138ba83613885565b6138ce6138c6826138a7565b848454613829565b825550505050565b600090565b6138e36138d6565b6138ee8184846138b1565b505050565b5b81811015613912576139076000826138db565b6001810190506138f4565b5050565b601f82111561395757613928816137f7565b6139318461380c565b81016020851015613940578190505b61395461394c8561380c565b8301826138f3565b50505b505050565b600082821c905092915050565b600061397a6000198460080261395c565b1980831691505092915050565b60006139938383613969565b9150826002028217905092915050565b6139ad838361378c565b67ffffffffffffffff8111156139c6576139c56125a8565b5b6139d082546137c6565b6139db828285613916565b6000601f831160018114613a0a57600084156139f8578287013590505b613a028582613987565b865550613a6a565b601f198416613a18866137f7565b60005b82811015613a4057848901358255600182019150602085019450602081019050613a1b565b86831015613a5d5784890135613a59601f891682613969565b8355505b6001600288020188555050505b50505050505050565b7f646966666963756c74792063616e6e6f74206265203000000000000000000000600082015250565b6000613aa96016836131af565b9150613ab482613a73565b602082019050919050565b60006020820190508181036000830152613ad881613a9c565b9050919050565b613ae881612b8a565b82525050565b6000602082019050613b036000830184613adf565b92915050565b7f6f6666736574206d757374206265203c206c656e677468206f66206c6973742060008201527f6f66206974656d73000000000000000000000000000000000000000000000000602082015250565b6000613b656028836131af565b9150613b7082613b09565b604082019050919050565b60006020820190508181036000830152613b9481613b58565b9050919050565b7f6f6666736574206d7573742062652030207768656e206e6f206974656d73206560008201527f7869737400000000000000000000000000000000000000000000000000000000602082015250565b6000613bf76024836131af565b9150613c0282613b9b565b604082019050919050565b60006020820190508181036000830152613c2681613bea565b9050919050565b7f6c696d6974206d757374206265203e203020616e64203c3d2033300000000000600082015250565b6000613c63601b836131af565b9150613c6e82613c2d565b602082019050919050565b60006020820190508181036000830152613c9281613c56565b9050919050565b7f4f776e61626c653a206e6577206f776e657220697320746865207a65726f206160008201527f6464726573730000000000000000000000000000000000000000000000000000602082015250565b6000613cf56026836131af565b9150613d0082613c99565b604082019050919050565b60006020820190508181036000830152613d2481613ce8565b9050919050565b7f4f776e61626c653a2063616c6c6572206973206e6f7420746865206f776e6572600082015250565b6000613d616020836131af565b9150613d6c82613d2b565b602082019050919050565b60006020820190508181036000830152613d9081613d54565b9050919050565b6000613da2826121db565b9150613dad836121db565b9250828203905081811115613dc557613dc461363d565b5b92915050565b6000819050919050565b613de6613de1826124a6565b613dcb565b82525050565b6000819050919050565b613e07613e02826121db565b613dec565b82525050565b60008160601b9050919050565b6000613e2582613e0d565b9050919050565b6000613e3782613e1a565b9050919050565b613e4f613e4a82612be7565b613e2c565b82525050565b6000613e618286613dd5565b602082019150613e718285613df6565b602082019150613e818284613e3e565b601482019150819050949350505050565b6000613e9d82613035565b9150613ea883613035565b9250828201905063ffffffff811115613ec457613ec361363d565b5b92915050565b6000613ed582613035565b915063ffffffff8203613eeb57613eea61363d565b5b600182019050919050565b613f07613f0282612b8a565b613dcb565b82525050565b6000613f198286613ef6565b602082019150613f298285613ef6565b602082019150613f398284613e3e565b601482019150819050949350505050565b7f636f6d6d69746d656e7420616c72656164792065786973747300000000000000600082015250565b6000613f806019836131af565b9150613f8b82613f4a565b602082019050919050565b60006020820190508181036000830152613faf81613f73565b9050919050565b60008160011c9050919050565b6000808291508390505b600185111561400d57808604811115613fe957613fe861363d565b5b6001851615613ff85780820291505b808102905061400685613fb6565b9450613fcd565b94509492505050565b60008261402657600190506140e2565b8161403457600090506140e2565b816001811461404a576002811461405457614083565b60019150506140e2565b60ff8411156140665761406561363d565b5b8360020a91508482111561407d5761407c61363d565b5b506140e2565b5060208310610133831016604e8410600b84101617156140b85782820a9050838111156140b3576140b261363d565b5b6140e2565b6140c58484846001613fc3565b925090508184048111156140dc576140db61363d565b5b81810290505b9392505050565b60006140f4826121db565b91506140ff836121db565b925061412c7fffffffffffffffffffffffffffffffffffffffffffffffffffffffffffffffff8484614016565b905092915050565b7f4e487b7100000000000000000000000000000000000000000000000000000000600052601260045260246000fd5b600061416e826121db565b9150614179836121db565b92508261418957614188614134565b5b828206905092915050565b600061419f826121db565b91506141aa836121db565b92508282019050808211156141c2576141c161363d565b5b92915050565b7f4d65726b6c6550726f6f663a20696e76616c6964206d756c746970726f6f6600600082015250565b60006141fe601f836131af565b9150614209826141c8565b602082019050919050565b6000602082019050818103600083015261422d816141f1565b9050919050565b600081359050614243816135e4565b92915050565b60006020828403121561425f5761425e6121d1565b5b600061426d84828501614234565b9150509291505056fea2646970667358221220f5caca2a944372bbe203f35d939685fd777a62864b714a4165202fc108b8c7b064736f6c63430008130033",
  "linkReferences": {},
  "deployedLinkReferences": {}
}